{
  "address": "0xE880e70521C03d9F90c3805D47f0E148876917b0",
  "abi": [
    {
      "inputs": [
        {
          "internalType": "bytes",
          "name": "_genesisHeader",
          "type": "bytes"
        },
        {
          "internalType": "uint256",
          "name": "_height",
          "type": "uint256"
        },
        {
          "internalType": "bytes32",
          "name": "_periodStart",
          "type": "bytes32"
        },
        {
          "internalType": "address",
          "name": "_TeleportDAOToken",
          "type": "address"
        }
      ],
      "stateMutability": "nonpayable",
      "type": "constructor"
    },
    {
      "anonymous": false,
      "inputs": [
        {
          "indexed": true,
          "internalType": "uint256",
          "name": "height",
          "type": "uint256"
        },
        {
          "indexed": false,
          "internalType": "bytes32",
          "name": "selfHash",
          "type": "bytes32"
        },
        {
          "indexed": true,
          "internalType": "bytes32",
          "name": "parentHash",
          "type": "bytes32"
        },
        {
          "indexed": true,
          "internalType": "address",
          "name": "relayer",
          "type": "address"
        }
      ],
      "name": "BlockAdded",
      "type": "event"
    },
    {
      "anonymous": false,
      "inputs": [
        {
          "indexed": true,
          "internalType": "uint256",
          "name": "height",
          "type": "uint256"
        },
        {
          "indexed": false,
          "internalType": "bytes32",
          "name": "selfHash",
          "type": "bytes32"
        },
        {
          "indexed": false,
          "internalType": "bytes32",
          "name": "parentHash",
          "type": "bytes32"
        },
        {
          "indexed": true,
          "internalType": "address",
          "name": "relayer",
          "type": "address"
        },
        {
          "indexed": false,
          "internalType": "uint256",
          "name": "rewardAmountTNT",
          "type": "uint256"
        },
        {
          "indexed": false,
          "internalType": "uint256",
          "name": "rewardAmountTDT",
          "type": "uint256"
        }
      ],
      "name": "BlockFinalized",
      "type": "event"
    },
    {
      "anonymous": false,
      "inputs": [
        {
          "indexed": false,
          "internalType": "uint256",
          "name": "oldBaseQueries",
          "type": "uint256"
        },
        {
          "indexed": false,
          "internalType": "uint256",
          "name": "newBaseQueries",
          "type": "uint256"
        }
      ],
      "name": "NewBaseQueries",
      "type": "event"
    },
    {
      "anonymous": false,
      "inputs": [
        {
          "indexed": false,
          "internalType": "uint256",
          "name": "oldEpochLength",
          "type": "uint256"
        },
        {
          "indexed": false,
          "internalType": "uint256",
          "name": "newEpochLength",
          "type": "uint256"
        }
      ],
      "name": "NewEpochLength",
      "type": "event"
    },
    {
      "anonymous": false,
      "inputs": [
        {
          "indexed": false,
          "internalType": "uint256",
          "name": "oldFinalizationParameter",
          "type": "uint256"
        },
        {
          "indexed": false,
          "internalType": "uint256",
          "name": "newFinalizationParameter",
          "type": "uint256"
        }
      ],
      "name": "NewFinalizationParameter",
      "type": "event"
    },
    {
      "anonymous": false,
      "inputs": [
        {
          "indexed": false,
          "internalType": "bytes32",
          "name": "txId",
          "type": "bytes32"
        },
        {
          "indexed": false,
          "internalType": "uint256",
          "name": "blockHeight",
          "type": "uint256"
        },
        {
          "indexed": false,
          "internalType": "uint256",
          "name": "paidFee",
          "type": "uint256"
        }
      ],
      "name": "NewQuery",
      "type": "event"
    },
    {
      "anonymous": false,
      "inputs": [
        {
          "indexed": false,
          "internalType": "uint256",
          "name": "oldRelayerPercentageFee",
          "type": "uint256"
        },
        {
          "indexed": false,
          "internalType": "uint256",
          "name": "newRelayerPercentageFee",
          "type": "uint256"
        }
      ],
      "name": "NewRelayerPercentageFee",
      "type": "event"
    },
    {
      "anonymous": false,
      "inputs": [
        {
          "indexed": false,
          "internalType": "uint256",
          "name": "oldRewardAmountInTDT",
          "type": "uint256"
        },
        {
          "indexed": false,
          "internalType": "uint256",
          "name": "newRewardAmountInTDT",
          "type": "uint256"
        }
      ],
      "name": "NewRewardAmountInTDT",
      "type": "event"
    },
    {
      "anonymous": false,
      "inputs": [
        {
          "indexed": false,
          "internalType": "uint256",
          "name": "oldSubmissionGasUsed",
          "type": "uint256"
        },
        {
          "indexed": false,
          "internalType": "uint256",
          "name": "newSubmissionGasUsed",
          "type": "uint256"
        }
      ],
      "name": "NewSubmissionGasUsed",
      "type": "event"
    },
    {
      "anonymous": false,
      "inputs": [
        {
          "indexed": false,
          "internalType": "address",
          "name": "oldTeleportDAOToken",
          "type": "address"
        },
        {
          "indexed": false,
          "internalType": "address",
          "name": "newTeleportDAOToken",
          "type": "address"
        }
      ],
      "name": "NewTeleportDAOToken",
      "type": "event"
    },
    {
      "anonymous": false,
      "inputs": [
        {
          "indexed": true,
          "internalType": "address",
          "name": "previousOwner",
          "type": "address"
        },
        {
          "indexed": true,
          "internalType": "address",
          "name": "newOwner",
          "type": "address"
        }
      ],
      "name": "OwnershipTransferred",
      "type": "event"
    },
    {
      "anonymous": false,
      "inputs": [
        {
          "indexed": false,
          "internalType": "address",
          "name": "account",
          "type": "address"
        }
      ],
      "name": "Paused",
      "type": "event"
    },
    {
      "anonymous": false,
      "inputs": [
        {
          "indexed": false,
          "internalType": "address",
          "name": "account",
          "type": "address"
        }
      ],
      "name": "Unpaused",
      "type": "event"
    },
    {
      "inputs": [],
      "name": "TeleportDAOToken",
      "outputs": [
        {
          "internalType": "address",
          "name": "",
          "type": "address"
        }
      ],
      "stateMutability": "view",
      "type": "function"
    },
    {
      "inputs": [
        {
          "internalType": "bytes",
          "name": "_anchor",
          "type": "bytes"
        },
        {
          "internalType": "bytes",
          "name": "_headers",
          "type": "bytes"
        }
      ],
      "name": "addHeaders",
      "outputs": [
        {
          "internalType": "bool",
          "name": "",
          "type": "bool"
        }
      ],
      "stateMutability": "nonpayable",
      "type": "function"
    },
    {
      "inputs": [
        {
          "internalType": "bytes",
          "name": "_oldPeriodStartHeader",
          "type": "bytes"
        },
        {
          "internalType": "bytes",
          "name": "_oldPeriodEndHeader",
          "type": "bytes"
        },
        {
          "internalType": "bytes",
          "name": "_headers",
          "type": "bytes"
        }
      ],
      "name": "addHeadersWithRetarget",
      "outputs": [
        {
          "internalType": "bool",
          "name": "",
          "type": "bool"
        }
      ],
      "stateMutability": "nonpayable",
      "type": "function"
    },
    {
      "inputs": [],
      "name": "availableTDT",
      "outputs": [
        {
          "internalType": "uint256",
          "name": "",
          "type": "uint256"
        }
      ],
      "stateMutability": "view",
      "type": "function"
    },
    {
      "inputs": [],
      "name": "availableTNT",
      "outputs": [
        {
          "internalType": "uint256",
          "name": "",
          "type": "uint256"
        }
      ],
      "stateMutability": "view",
      "type": "function"
    },
    {
      "inputs": [],
      "name": "baseQueries",
      "outputs": [
        {
          "internalType": "uint256",
          "name": "",
          "type": "uint256"
        }
      ],
      "stateMutability": "view",
      "type": "function"
    },
    {
      "inputs": [
        {
          "internalType": "bytes32",
          "name": "_txid",
          "type": "bytes32"
        },
        {
          "internalType": "uint256",
          "name": "_blockHeight",
          "type": "uint256"
        },
        {
          "internalType": "bytes",
          "name": "_intermediateNodes",
          "type": "bytes"
        },
        {
          "internalType": "uint256",
          "name": "_index",
          "type": "uint256"
        }
      ],
      "name": "checkTxProof",
      "outputs": [
        {
          "internalType": "bool",
          "name": "",
          "type": "bool"
        }
      ],
      "stateMutability": "payable",
      "type": "function"
    },
    {
      "inputs": [],
      "name": "currentEpochQueries",
      "outputs": [
        {
          "internalType": "uint256",
          "name": "",
          "type": "uint256"
        }
      ],
      "stateMutability": "view",
      "type": "function"
    },
    {
      "inputs": [],
      "name": "epochLength",
      "outputs": [
        {
          "internalType": "uint256",
          "name": "",
          "type": "uint256"
        }
      ],
      "stateMutability": "view",
      "type": "function"
    },
    {
      "inputs": [],
      "name": "finalizationParameter",
      "outputs": [
        {
          "internalType": "uint256",
          "name": "",
          "type": "uint256"
        }
      ],
      "stateMutability": "view",
      "type": "function"
    },
    {
      "inputs": [
        {
          "internalType": "bytes32",
          "name": "_hash",
          "type": "bytes32"
        }
      ],
      "name": "findHeight",
      "outputs": [
        {
          "internalType": "uint256",
          "name": "",
          "type": "uint256"
        }
      ],
      "stateMutability": "view",
      "type": "function"
    },
    {
      "inputs": [
        {
          "internalType": "uint256",
          "name": "_height",
          "type": "uint256"
        },
        {
          "internalType": "uint256",
          "name": "_index",
          "type": "uint256"
        }
      ],
      "name": "getBlockHeaderFee",
      "outputs": [
        {
          "internalType": "uint256",
          "name": "",
          "type": "uint256"
        }
      ],
      "stateMutability": "view",
      "type": "function"
    },
    {
      "inputs": [
        {
          "internalType": "uint256",
          "name": "_height",
          "type": "uint256"
        },
        {
          "internalType": "uint256",
          "name": "_index",
          "type": "uint256"
        }
      ],
      "name": "getBlockHeaderHash",
      "outputs": [
        {
          "internalType": "bytes32",
          "name": "",
          "type": "bytes32"
        }
      ],
      "stateMutability": "view",
      "type": "function"
    },
    {
      "inputs": [
        {
          "internalType": "uint256",
          "name": "_height",
          "type": "uint256"
        },
        {
          "internalType": "uint256",
          "name": "_index",
          "type": "uint256"
        }
      ],
      "name": "getBlockHeaderHashContract",
      "outputs": [
        {
          "internalType": "bytes32",
          "name": "",
          "type": "bytes32"
        }
      ],
      "stateMutability": "payable",
      "type": "function"
    },
    {
      "inputs": [
        {
          "internalType": "uint256",
          "name": "_height",
          "type": "uint256"
        }
      ],
      "name": "getNumberOfSubmittedHeaders",
      "outputs": [
        {
          "internalType": "uint256",
          "name": "",
          "type": "uint256"
        }
      ],
      "stateMutability": "view",
      "type": "function"
    },
    {
      "inputs": [],
      "name": "initialHeight",
      "outputs": [
        {
          "internalType": "uint256",
          "name": "",
          "type": "uint256"
        }
      ],
      "stateMutability": "view",
      "type": "function"
    },
    {
      "inputs": [],
      "name": "lastEpochQueries",
      "outputs": [
        {
          "internalType": "uint256",
          "name": "",
          "type": "uint256"
        }
      ],
      "stateMutability": "view",
      "type": "function"
    },
    {
      "inputs": [],
      "name": "lastSubmittedHeight",
      "outputs": [
        {
          "internalType": "uint256",
          "name": "",
          "type": "uint256"
        }
      ],
      "stateMutability": "view",
      "type": "function"
    },
    {
      "inputs": [],
      "name": "owner",
      "outputs": [
        {
          "internalType": "address",
          "name": "",
          "type": "address"
        }
      ],
      "stateMutability": "view",
      "type": "function"
    },
    {
      "inputs": [
        {
          "internalType": "bytes",
          "name": "_anchor",
          "type": "bytes"
        },
        {
          "internalType": "bytes",
          "name": "_headers",
          "type": "bytes"
        }
      ],
      "name": "ownerAddHeaders",
      "outputs": [
        {
          "internalType": "bool",
          "name": "",
          "type": "bool"
        }
      ],
      "stateMutability": "nonpayable",
      "type": "function"
    },
    {
      "inputs": [
        {
          "internalType": "bytes",
          "name": "_oldPeriodStartHeader",
          "type": "bytes"
        },
        {
          "internalType": "bytes",
          "name": "_oldPeriodEndHeader",
          "type": "bytes"
        },
        {
          "internalType": "bytes",
          "name": "_headers",
          "type": "bytes"
        }
      ],
      "name": "ownerAddHeadersWithRetarget",
      "outputs": [
        {
          "internalType": "bool",
          "name": "",
          "type": "bool"
        }
      ],
      "stateMutability": "nonpayable",
      "type": "function"
    },
    {
      "inputs": [],
      "name": "pauseRelay",
      "outputs": [],
      "stateMutability": "nonpayable",
      "type": "function"
    },
    {
      "inputs": [],
      "name": "paused",
      "outputs": [
        {
          "internalType": "bool",
          "name": "",
          "type": "bool"
        }
      ],
      "stateMutability": "view",
      "type": "function"
    },
    {
      "inputs": [],
      "name": "relayGenesisHash",
      "outputs": [
        {
          "internalType": "bytes32",
          "name": "",
          "type": "bytes32"
        }
      ],
      "stateMutability": "view",
      "type": "function"
    },
    {
      "inputs": [],
      "name": "relayerPercentageFee",
      "outputs": [
        {
          "internalType": "uint256",
          "name": "",
          "type": "uint256"
        }
      ],
      "stateMutability": "view",
      "type": "function"
    },
    {
      "inputs": [],
      "name": "renounceOwnership",
      "outputs": [],
      "stateMutability": "nonpayable",
      "type": "function"
    },
    {
      "inputs": [],
      "name": "rewardAmountInTDT",
      "outputs": [
        {
          "internalType": "uint256",
          "name": "",
          "type": "uint256"
        }
      ],
      "stateMutability": "view",
      "type": "function"
    },
    {
      "inputs": [
        {
          "internalType": "uint256",
          "name": "_baseQueries",
          "type": "uint256"
        }
      ],
      "name": "setBaseQueries",
      "outputs": [],
      "stateMutability": "nonpayable",
      "type": "function"
    },
    {
      "inputs": [
        {
          "internalType": "uint256",
          "name": "_epochLength",
          "type": "uint256"
        }
      ],
      "name": "setEpochLength",
      "outputs": [],
      "stateMutability": "nonpayable",
      "type": "function"
    },
    {
      "inputs": [
        {
          "internalType": "uint256",
          "name": "_finalizationParameter",
          "type": "uint256"
        }
      ],
      "name": "setFinalizationParameter",
      "outputs": [],
      "stateMutability": "nonpayable",
      "type": "function"
    },
    {
      "inputs": [
        {
          "internalType": "uint256",
          "name": "_relayerPercentageFee",
          "type": "uint256"
        }
      ],
      "name": "setRelayerPercentageFee",
      "outputs": [],
      "stateMutability": "nonpayable",
      "type": "function"
    },
    {
      "inputs": [
        {
          "internalType": "uint256",
          "name": "_rewardAmountInTDT",
          "type": "uint256"
        }
      ],
      "name": "setRewardAmountInTDT",
      "outputs": [],
      "stateMutability": "nonpayable",
      "type": "function"
    },
    {
      "inputs": [
        {
          "internalType": "uint256",
          "name": "_submissionGasUsed",
          "type": "uint256"
        }
      ],
      "name": "setSubmissionGasUsed",
      "outputs": [],
      "stateMutability": "nonpayable",
      "type": "function"
    },
    {
      "inputs": [
        {
          "internalType": "address",
          "name": "_TeleportDAOToken",
          "type": "address"
        }
      ],
      "name": "setTeleportDAOToken",
      "outputs": [],
      "stateMutability": "nonpayable",
      "type": "function"
    },
    {
      "inputs": [],
      "name": "submissionGasUsed",
      "outputs": [
        {
          "internalType": "uint256",
          "name": "",
          "type": "uint256"
        }
      ],
      "stateMutability": "view",
      "type": "function"
    },
    {
      "inputs": [
        {
          "internalType": "address",
          "name": "newOwner",
          "type": "address"
        }
      ],
      "name": "transferOwnership",
      "outputs": [],
      "stateMutability": "nonpayable",
      "type": "function"
    },
    {
      "inputs": [],
      "name": "unpauseRelay",
      "outputs": [],
      "stateMutability": "nonpayable",
      "type": "function"
    }
  ],
  "transactionHash": "0x8f462f654d9613f3118293e3321918b08d1c3f580a90d754b46c6d6d09322fef",
  "args": [
    "0x000000203e957d177c0b73466fb86deaeaa722469e0125ec57a03c8bd62d0000000000000b3e285ec32f656cb7f5a8937a125702b8d580c3a8e1c17926a0b27f88e8c196783c4964ffff001d4dd5dfe0",
    2431126,
    "0x1b4a48bda8ce2da3a1a594b2887ae9b72ff17e784664ef941700000000000000",
    "0x167d89a98f1e2f0fa908395beea3be66b3c60a0d"
  ],
  "numDeployments": 1,
  "solcInputHash": "463f5f43c083bed99faf3aea31e51473",
  "bytecode": "0x60806040523480156200001157600080fd5b5060405162004ff438038062004ff4833981016040819052620000349162000e64565b6200003f33620002a9565b600180556002805460ff191690556000620000826200006b8683620002f9602090811b6200117a17901c565b62ffffff19166200031f60201b6200119e1760201c565b9050620000a08162ffffff1916620003ba60201b620011f61760201c565b620000f25760405162461bcd60e51b815260206004820152601860248201527f426974636f696e52656c61793a206e756c6c20626c6f636b000000000000000060448201526064015b60405180910390fd5b6000620001108262ffffff1916620003ca60201b620012031760201c565b600e8190556040805160a081018252600060208083018290529282018190526060820181905260808201528281529192506200015d9062ffffff19851690620012656200042e821b17901c565b816020018181525050620001828362ffffff19166200045d60201b620012871760201c565b6040820152336001600160a01b0390811660608301908152600060808401818152898252600f602090815260408084208054600180820183559186528386208951600590920201908155838901519181019190915581880151600282015594516003860180546001600160a01b031916919097161790955590516004909301929092558481526011909152208690556200021f6107e0876200102f565b6200022b908762000fbc565b6000868152601160205260409020556200024660036200048c565b600386905560048690556200025b846200053f565b620002686101f4620005a8565b620002756107e062000649565b6009546200028390620006dc565b600a54600c556000600b556200029c620493e06200076f565b505050505050506200107c565b600080546001600160a01b038381166001600160a01b0319831681178455604051919092169283917f8be0079c531659141344cd1fd0a4f28419497f9722a3daafe3b4186f6b6457e09190a35050565b8151600090602084016200031664ffffffffff85168284620007b0565b95945050505050565b6000818162000344815b8362ffffff1916620007fc60201b620012a91790919060201c565b50620003618462ffffff1916620008e060201b620013821760201c565b6001600160601b03166050146200038f5762000387620008ef60201b620013911760201c565b9250620003b3565b620003b060108562ffffff1916620008f760201b620013991790919060201c565b92505b5050919050565b62ffffff1981811614155b919050565b600080620003e18360781c6001600160601b031690565b6001600160601b031690506000620004028460181c6001600160601b031690565b6001600160601b03169050604051602081838560025afa5060208160208360025afa5051949350505050565b60008160106200043e8162000329565b50620003b062ffffff19851660046020620013ab62000909821b17811c565b60008160106200046d8162000329565b50620003b062ffffff19851660246020620013ab62000909821b17811c565b60055460408051918252602082018390527fe7ff4c9746f87ab86154b3cb3bb52e1647f016783ae4e195496258eaa884c296910160405180910390a1600081118015620004db57506101b08111155b6200053a5760405162461bcd60e51b815260206004820152602860248201527f426974636f696e52656c61793a20696e76616c69642066696e616c697a6174696044820152676f6e20706172616d60c01b6064820152608401620000e9565b600555565b600d54604080516001600160a01b03928316815291831660208301527ffd88adf2dc0ac6ee5960f2f4273f25017bab8b5efa8889b3cf085ce645c293b2910160405180910390a1600d80546001600160a01b0319166001600160a01b0392909216919091179055565b60075460408051918252602082018390527f1957bdf4f6fe279cd1cb63c41461020488cecbdf8721d1a1c960bc57c7cddce8910160405180910390a1612710811115620006445760405162461bcd60e51b8152602060048201526024808201527f426974636f696e52656c61793a2072656c6179206665652069732061626f7665604482015263040dac2f60e31b6064820152608401620000e9565b600755565b60095460408051918252602082018390527fd077b1717c042dc03e7eb68030220b62f703db305be2ffb5b9e1d91b639a63f9910160405180910390a160008111620006d75760405162461bcd60e51b815260206004820152601f60248201527f426974636f696e52656c61793a207a65726f2065706f6368206c656e677468006044820152606401620000e9565b600955565b600a5460408051918252602082018390527f74fc63a076510aaad1c9925c1575a3cd23bc28541d09501418a96b0a38335f53910160405180910390a1600081116200076a5760405162461bcd60e51b815260206004820152601d60248201527f426974636f696e52656c61793a207a65726f20626173652071756572790000006044820152606401620000e9565b600a55565b60085460408051918252602082018390527f7a20e935d503f4d2565dbc88569bbe136c1e2a59da068a1d1286f04512ecfff3910160405180910390a1600855565b600080620007bf838562000f75565b9050604051811115620007d0575060005b80620007e45762ffffff19915050620007f5565b5050606083811b8317901b811760181b5b9392505050565b60006200080a838362000a71565b620008d95760006200082d620008208560d81c90565b64ffffffffff1662000a95565b9150600090506200084564ffffffffff851662000a95565b6040517f5479706520617373657274696f6e206661696c65642e20476f7420307800000060208201526001600160b01b031960b086811b8216603d8401526c05c408af0e0cac6e8cac84060f609b1b604784015283901b16605482015290925060009150605e0160405160208183030381529060405290508060405162461bcd60e51b8152600401620000e9919062000f40565b5090919050565b60181c6001600160601b031690565b62ffffff1990565b60d81b6001600160d81b039091161790565b600060ff82166200091d57506000620007f5565b620009318460181c6001600160601b031690565b6001600160601b03166200094960ff84168562000f75565b1115620009b45762000999620009688560781c6001600160601b031690565b6001600160601b0316620009858660181c6001600160601b031690565b6001600160601b03168560ff861662000b4f565b60405162461bcd60e51b8152600401620000e9919062000f40565b60208260ff16111562000a305760405162461bcd60e51b815260206004820152603a60248201527f54797065644d656d566965772f696e646578202d20417474656d70746564207460448201527f6f20696e646578206d6f7265207468616e2033322062797465730000000000006064820152608401620000e9565b60088202600062000a4a8660781c6001600160601b031690565b6001600160601b031690506000600160ff1b60001984011d91909501511695945050505050565b600064ffffffffff821662000a868460d81c90565b64ffffffffff16149392505050565b600080601f5b600f8160ff16111562000afc57600062000ab782600862000f90565b60ff1685901c905062000aca8162000c8c565b61ffff16841793508160ff1660101462000ae657601084901b93505b5062000af460018262000fd6565b905062000a9b565b50600f5b60ff8160ff16101562000b495760ff600882021684901c62000b228162000c8c565b61ffff16831792508160ff1660001462000b3e57601083901b92505b506000190162000b00565b50915091565b6060600062000b5e8662000a95565b91506000905062000b6f8662000a95565b91506000905062000b808662000a95565b91506000905062000b918662000a95565b604080517f54797065644d656d566965772f696e646578202d204f76657272616e2074686560208201527f20766965772e20536c6963652069732061742030780000000000000000000000818301526001600160d01b031960d098891b811660558301526e040eed2e8d040d8cadccee8d04060f608b1b605b830181905297891b8116606a8301527f2e20417474656d7074656420746f20696e646578206174206f666673657420306070830152600f60fb1b609083015295881b861660918201526097810196909652951b90921660a68401525050601760f91b60ac8201528151808203608d01815260ad90910190915295945050505050565b600062000ca0600f600484901c1662000cc0565b60ff161760081b62ffff001662000cb78262000cc0565b60ff1617919050565b600060f08083179060ff8216141562000cde576030915050620003c5565b8060ff1660f1141562000cf6576031915050620003c5565b8060ff1660f2141562000d0e576032915050620003c5565b8060ff1660f3141562000d26576033915050620003c5565b8060ff1660f4141562000d3e576034915050620003c5565b8060ff1660f5141562000d56576035915050620003c5565b8060ff1660f6141562000d6e576036915050620003c5565b8060ff1660f7141562000d86576037915050620003c5565b8060ff1660f8141562000d9e576038915050620003c5565b8060ff1660f9141562000db6576039915050620003c5565b8060ff1660fa141562000dce576061915050620003c5565b8060ff1660fb141562000de6576062915050620003c5565b8060ff1660fc141562000dfe576063915050620003c5565b8060ff1660fd141562000e16576064915050620003c5565b8060ff1660fe141562000e2e576065915050620003c5565b8060ff1660ff141562000e46576066915050620003c5565b50919050565b80516001600160a01b0381168114620003c557600080fd5b6000806000806080858703121562000e7a578384fd5b84516001600160401b038082111562000e91578586fd5b818701915087601f83011262000ea5578586fd5b81518181111562000eba5762000eba62001066565b604051601f8201601f19908116603f0116810190838211818310171562000ee55762000ee562001066565b816040528281528a602084870101111562000efe578889fd5b62000f1183602083016020880162000ffc565b8098505050505050602085015192506040850151915062000f356060860162000e4c565b905092959194509250565b600060208252825180602084015262000f6181604085016020870162000ffc565b601f01601f19169190910160400192915050565b6000821982111562000f8b5762000f8b62001050565b500190565b600060ff821660ff84168160ff048111821515161562000fb45762000fb462001050565b029392505050565b60008282101562000fd15762000fd162001050565b500390565b600060ff821660ff84168082101562000ff35762000ff362001050565b90039392505050565b60005b838110156200101957818101518382015260200162000fff565b8381111562001029576000848401525b50505050565b6000826200104b57634e487b7160e01b81526012600452602481fd5b500690565b634e487b7160e01b600052601160045260246000fd5b634e487b7160e01b600052604160045260246000fd5b613f68806200108c6000396000f3fe60806040526004361061021a5760003560e01c8063926d44e211610123578063c20dc664116100ab578063efbc7be41161006f578063efbc7be4146105bc578063f02f62fd146105d2578063f2fde38b146105f2578063fa041af514610612578063fd9c6e85146106285761021a565b8063c20dc6641461053d578063d0a8973914610553578063dc04442214610573578063e2761af014610593578063e3282524146105a95761021a565b8063ae6e5eb0116100f2578063ae6e5eb0146104a8578063ae96c2ae146104c8578063b36161bd146104dd578063b9bbd9bd146104fd578063b9e88ac11461051d5761021a565b8063926d44e21461042f5780639f1564141461045c578063a072bc5014610472578063a3db54eb146104885761021a565b806360b5c390116101a6578063715018a611610175578063715018a6146103a75780637fa637fc146103bc578063882a5ee0146103dc5780638da5cb5b146103f1578063901186bb1461040f5761021a565b806360b5c39014610331578063659416831461035157806365da41b914610371578063665b634f146103915761021a565b806354eea796116101ed57806354eea796146102ba57806357d775f8146102da5780635b732892146102f05780635b88a0e5146103065780635c975abb146103195761021a565b8063108f438d1461021f5780632f796d901461025c5780634354da2514610280578063465e7559146102a3575b600080fd5b34801561022b57600080fd5b50600d5461023f906001600160a01b031681565b6040516001600160a01b0390911681526020015b60405180910390f35b34801561026857600080fd5b5061027260045481565b604051908152602001610253565b61029361028e3660046139e1565b61063e565b6040519015158152602001610253565b3480156102af57600080fd5b506102b8610944565b005b3480156102c657600080fd5b506102b86102d53660046139c9565b610978565b3480156102e657600080fd5b5061027260095481565b3480156102fc57600080fd5b50610272600b5481565b34801561031257600080fd5b5047610272565b34801561032557600080fd5b5060025460ff16610293565b34801561033d57600080fd5b5061027261034c3660046139c9565b6109ae565b34801561035d57600080fd5b506102b861036c3660046139c9565b6109c1565b34801561037d57600080fd5b5061029361038c366004613a3a565b6109f4565b34801561039d57600080fd5b5061027260075481565b3480156103b357600080fd5b506102b8610b18565b3480156103c857600080fd5b506102936103d7366004613aa3565b610b42565b3480156103e857600080fd5b50610272610c9e565b3480156103fd57600080fd5b506000546001600160a01b031661023f565b34801561041b57600080fd5b506102b861042a3660046139c9565b610d1f565b34801561043b57600080fd5b5061027261044a3660046139c9565b6000908152600f602052604090205490565b34801561046857600080fd5b50610272600c5481565b34801561047e57600080fd5b5061027260055481565b34801561049457600080fd5b506102b86104a33660046139c9565b610d52565b3480156104b457600080fd5b506102936104c3366004613aa3565b610d85565b3480156104d457600080fd5b506102b8610dd9565b3480156104e957600080fd5b506102b86104f83660046139c9565b610e0b565b34801561050957600080fd5b50610272610518366004613b51565b610e3e565b34801561052957600080fd5b506102b86105383660046139c9565b610ed7565b34801561054957600080fd5b5061027260085481565b34801561055f57600080fd5b5061027261056e366004613b51565b610f0a565b34801561057f57600080fd5b506102b861058e366004613982565b610f5b565b34801561059f57600080fd5b5061027260035481565b6102726105b7366004613b51565b610f8e565b3480156105c857600080fd5b50610272600e5481565b3480156105de57600080fd5b506102936105ed366004613a3a565b61108e565b3480156105fe57600080fd5b506102b861060d366004613982565b6110e2565b34801561061e57600080fd5b50610272600a5481565b34801561063457600080fd5b5061027260065481565b60006002600154141561066c5760405162461bcd60e51b815260040161066390613c20565b60405180910390fd5b600260015561067d60025460ff1690565b1561069a5760405162461bcd60e51b815260040161066390613bc1565b856106f55760405162461bcd60e51b815260206004820152602560248201527f426974636f696e52656c61793a20747869642073686f756c64206265206e6f6e6044820152642d7a65726f60d81b6064820152608401610663565b600454610703906001613c57565b6005546107109087613c57565b106107775760405162461bcd60e51b815260206004820152603160248201527f426974636f696e52656c61793a20626c6f636b206973206e6f742066696e616c604482015270697a6564206f6e207468652072656c617960781b6064820152608401610663565b6003548510156108025760405162461bcd60e51b815260206004820152604a60248201527f426974636f696e52656c61793a2074686520726571756573746564206865696760448201527f6874206973206e6f74207375626d6974746564206f6e207468652072656c61796064820152692028746f6f206f6c642960b01b608482015260a401610663565b6000858152600f60205260408120805461084a9190839061083357634e487b7160e01b600052603260045260246000fd5b906000526020600020906005020160040154611504565b6000878152600f6020526040812080549293509091829061087b57634e487b7160e01b600052603260045260246000fd5b906000526020600020906005020160020154905060006108e36108d8600089898080601f016020809104026020016040519081016040528093929190818152602001838380828437600092019190915250929392505061117a9050565b62ffffff191661158d565b604080518b8152602081018b90529081018590529091507f171c7e89f8a58af73276553913c8f63b7270aacd03134a80a0e1d46a6b783cd39060600160405180910390a1610933898383886115d3565b600180559998505050505050505050565b6000546001600160a01b0316331461096e5760405162461bcd60e51b815260040161066390613beb565b61097661162d565b565b6000546001600160a01b031633146109a25760405162461bcd60e51b815260040161066390613beb565b6109ab816116a2565b50565b60006109b982611733565b90505b919050565b6000546001600160a01b031633146109eb5760405162461bcd60e51b815260040161066390613beb565b6109ab816117a3565b600060026001541415610a195760405162461bcd60e51b815260040161066390613c20565b6002600155610a2a60025460ff1690565b15610a475760405162461bcd60e51b815260040161066390613bc1565b6000610a9b610a90600086868080601f016020809104026020016040519081016040528093929190818152602001838380828437600092019190915250929392505061117a9050565b62ffffff1916611834565b90506000610af1610ae6600089898080601f016020809104026020016040519081016040528093929190818152602001838380828437600092019190915250929392505061117a9050565b62ffffff191661119e565b9050610afd828261187a565b610b098183600061192c565b60018055979650505050505050565b6000546001600160a01b031633146109765760405162461bcd60e51b815260040161066390613beb565b600060026001541415610b675760405162461bcd60e51b815260040161066390613c20565b6002600155610b7860025460ff1690565b15610b955760405162461bcd60e51b815260040161066390613bc1565b6000610bde610ae660008a8a8080601f016020809104026020016040519081016040528093929190818152602001838380828437600092019190915250929392505061117a9050565b90506000610c29610ae6600089898080601f016020809104026020016040519081016040528093929190818152602001838380828437600092019190915250929392505061117a9050565b90506000610c74610a90600088888080601f016020809104026020016040519081016040528093929190818152602001838380828437600092019190915250929392505061117a9050565b9050610c81838383611e45565b610c8c838383611f27565b600180559a9950505050505050505050565b600d546040516370a0823160e01b81523060048201526000916001600160a01b0316906370a082319060240160206040518083038186803b158015610ce257600080fd5b505afa158015610cf6573d6000803e3d6000fd5b505050506040513d601f19601f82011682018060405250810190610d1a9190613b39565b905090565b6000546001600160a01b03163314610d495760405162461bcd60e51b815260040161066390613beb565b6109ab816121d7565b6000546001600160a01b03163314610d7c5760405162461bcd60e51b815260040161066390613beb565b6109ab81612276565b600060026001541415610daa5760405162461bcd60e51b815260040161066390613c20565b60026001556000546001600160a01b03163314610b955760405162461bcd60e51b815260040161066390613beb565b6000546001600160a01b03163314610e035760405162461bcd60e51b815260040161066390613beb565b6109766122b7565b6000546001600160a01b03163314610e355760405162461bcd60e51b815260040161066390613beb565b6109ab81612331565b6000333b15610e8f5760405162461bcd60e51b815260206004820152601e60248201527f426974636f696e52656c61793a206164647220697320636f6e747261637400006044820152606401610663565b6000838152600f60205260409020805483908110610ebd57634e487b7160e01b600052603260045260246000fd5b906000526020600020906005020160000154905092915050565b6000546001600160a01b03163314610f015760405162461bcd60e51b815260040161066390613beb565b6109ab816123e1565b6000828152600f602052604081208054610f54919084908110610f3d57634e487b7160e01b600052603260045260246000fd5b906000526020600020906005020160040154612422565b9392505050565b6000546001600160a01b03163314610f855760405162461bcd60e51b815260040161066390613beb565b6109ab81612473565b6000828152600f6020526040812080548291610fc2918590811061083357634e487b7160e01b600052603260045260246000fd5b6000858152600f6020526040902080549192507f171c7e89f8a58af73276553913c8f63b7270aacd03134a80a0e1d46a6b783cd3918590811061101557634e487b7160e01b600052603260045260246000fd5b6000918252602091829020600590910201546040805191825291810187905290810183905260600160405180910390a16000848152600f6020526040902080548490811061107357634e487b7160e01b600052603260045260246000fd5b90600052602060002090600502016000015491505092915050565b6000600260015414156110b35760405162461bcd60e51b815260040161066390613c20565b60026001556000546001600160a01b03163314610a475760405162461bcd60e51b815260040161066390613beb565b6000546001600160a01b0316331461110c5760405162461bcd60e51b815260040161066390613beb565b6001600160a01b0381166111715760405162461bcd60e51b815260206004820152602660248201527f4f776e61626c653a206e6577206f776e657220697320746865207a65726f206160448201526564647265737360d01b6064820152608401610663565b6109ab816124dc565b81516000906020840161119564ffffffffff8516828461252c565b95945050505050565b600081816111b4815b62ffffff198416906112a9565b506050601885901c6001600160601b0316146111d9576111d2611391565b92506111ef565b6111ec60105b62ffffff19861690611399565b92505b5050919050565b62ffffff19908116141590565b6000806112198360781c6001600160601b031690565b6001600160601b0316905060006112398460181c6001600160601b031690565b6001600160601b03169050604051602081838560025afa5060208160208360025afa5051949350505050565b6000816010611273816111a7565b506111ec62ffffff198516600460206113ab565b6000816010611295816111a7565b506111ec62ffffff198516602460206113ab565b60006112b58383612570565b61137b5760006112d46112c88560d81c90565b64ffffffffff16612593565b91505060006112e98464ffffffffff16612593565b6040517f5479706520617373657274696f6e206661696c65642e20476f7420307800000060208201526001600160b01b031960b086811b8216603d8401526c05c408af0e0cac6e8cac84060f609b1b604784015283901b16605482015290925060009150605e0160405160208183030381529060405290508060405162461bcd60e51b81526004016106639190613b8e565b5090919050565b60181c6001600160601b031690565b62ffffff1990565b60d81b6001600160d81b039091161790565b600060ff82166113bd57506000610f54565b6113d08460181c6001600160601b031690565b6001600160601b03166113e660ff841685613c57565b111561144a576114316114028560781c6001600160601b031690565b6001600160601b031661141e8660181c6001600160601b031690565b6001600160601b0316858560ff1661263f565b60405162461bcd60e51b81526004016106639190613b8e565b60208260ff1611156114c45760405162461bcd60e51b815260206004820152603a60248201527f54797065644d656d566965772f696e646578202d20417474656d70746564207460448201527f6f20696e646578206d6f7265207468616e2033322062797465730000000000006064820152608401610663565b6008820260006114dd8660781c6001600160601b031690565b6001600160601b03169490940151600160ff1b600019929092019190911d16949350505050565b60006001600b60008282546115199190613c57565b90915550611528905082612422565b90508034101561157a5760405162461bcd60e51b815260206004820152601f60248201527f426974636f696e52656c61793a20666565206973206e6f7420656e6f756768006044820152606401610663565b6109bc336115888334613e30565b612769565b6000818161159a816111a7565b506115b36020601886901c6001600160601b0316613ee0565b6001600160601b0316156115c9576111d2611391565b6111ec60146111df565b60008260146115e1816111a7565b5085871480156115ef575083155b80156116065750601885901c6001600160601b0316155b156116145760019250611623565b61162087868887612882565b92505b5050949350505050565b60025460ff16156116505760405162461bcd60e51b815260040161066390613bc1565b6002805460ff191660011790557f62e78cea01bee320cd4e420270b5ea74000d11b0c9f74754ebdbfc544b05a2586116853390565b6040516001600160a01b03909116815260200160405180910390a1565b60095460408051918252602082018390527fd077b1717c042dc03e7eb68030220b62f703db305be2ffb5b9e1d91b639a63f9910160405180910390a16000811161172e5760405162461bcd60e51b815260206004820152601f60248201527f426974636f696e52656c61793a207a65726f2065706f6368206c656e677468006044820152606401610663565b600955565b60008181526011602052604081205461178e5760405162461bcd60e51b815260206004820152601b60248201527f426974636f696e52656c61793a20756e6b6e6f776e20626c6f636b00000000006044820152606401610663565b506000818152601160205260409020546109bc565b600a5460408051918252602082018390527f74fc63a076510aaad1c9925c1575a3cd23bc28541d09501418a96b0a38335f53910160405180910390a16000811161182f5760405162461bcd60e51b815260206004820152601d60248201527f426974636f696e52656c61793a207a65726f20626173652071756572790000006044820152606401610663565b600a55565b60008181611841816111a7565b5061185a6050601886901c6001600160601b0316613ee0565b6001600160601b031615611870576111d2611391565b6111ec60116111df565b61188962ffffff1983166111f6565b80156118b357506118a86050601884901c6001600160601b0316613ee0565b6001600160601b0316155b80156118c957506118c962ffffff1982166111f6565b80156118e257506050601882901c6001600160601b0316145b6119285760405162461bcd60e51b81526020600482015260176024820152762134ba31b7b4b72932b630bc9d103bb937b733903632b760491b6044820152606401610663565b5050565b60008061193e62ffffff198616611203565b9050600061194b82611733565b9050600061196d61196262ffffff1988168361294f565b62ffffff191661298b565b9050848061198857508061198662ffffff19891661298b565b145b6119ef5760405162461bcd60e51b815260206004820152603260248201527f426974636f696e52656c61793a20756e657870656374656420726574617267656044820152711d081bdb88195e1d195c9b985b0818d85b1b60721b6064820152608401610663565b600454600554611a00846001613c57565b611a0a9190613c57565b11611a675760405162461bcd60e51b815260206004820152602760248201527f426974636f696e52656c61793a20626c6f636b206865616465727320617265206044820152661d1bdbc81bdb1960ca1b6064820152608401610663565b60008060005b611a85605060188b901c6001600160601b0316613cae565b6001600160601b0316811015611e35576000611aa762ffffff198b168361294f565b9050611ab38287613c57565b611abe906001613c57565b9350611acf62ffffff198216611203565b60008181526010602052604090205490935015611b495760405162461bcd60e51b815260206004820152603260248201527f426974636f696e52656c61793a2074686520626c6f636b2068656164657220656044820152717869737473206f6e207468652072656c617960701b6064820152608401610663565b8880611b5f5750611b5c6107e085613ecc565b15155b611be55760405162461bcd60e51b815260206004820152604b60248201527f426974636f696e52656c61793a20686561646572732073686f756c642062652060448201527f7375626d69747465642062792063616c6c696e6720616464486561646572735760648201526a1a5d1a14995d185c99d95d60aa1b608482015260a401610663565b611bf161151842613c57565b611c0062ffffff198316612a57565b63ffffffff1610611c5f5760405162461bcd60e51b8152602060048201526024808201527f426974636f696e52656c61793a20626c6f636b20697320616865616420696e2060448201526374696d6560e01b6064820152608401610663565b84611c6f62ffffff19831661298b565b14611cce5760405162461bcd60e51b815260206004820152602960248201527f426974636f696e52656c61793a20746172676574206368616e67656420756e65604482015268787065637465646c7960b81b6064820152608401610663565b611cde62ffffff19821688612a79565b611d475760405162461bcd60e51b815260206004820152603460248201527f426974636f696e52656c61793a206865616465727320646f206e6f7420666f726044820152733690309031b7b739b4b9ba32b73a1031b430b4b760611b6064820152608401610663565b84611d5184612a9c565b1115611db15760405162461bcd60e51b815260206004820152602960248201527f426974636f696e52656c61793a2068656164657220776f726b20697320696e736044820152681d59999a58da595b9d60ba1b6064820152608401610663565b60008381526010602090815260408083208a905560119091529020849055336001600160a01b031687857ffb8fff3e2daa665d496373ced291b62aba4162f24632a1597e286621016e9a1f86604051611e0c91815260200190565b60405180910390a4611e1e8185612bd6565b829650508080611e2d90613eb1565b915050611a6d565b5060019998505050505050505050565b611e5462ffffff1984166111f6565b8015611e6d57506050601884901c6001600160601b0316145b8015611e835750611e8362ffffff1983166111f6565b8015611e9c57506050601883901c6001600160601b0316145b8015611eb25750611eb262ffffff1982166111f6565b8015611edc5750611ed16050601883901c6001600160601b0316613ee0565b6001600160601b0316155b611f225760405162461bcd60e51b81526020600482015260176024820152762134ba31b7b4b72932b630bc9d103bb937b733903632b760491b6044820152606401610663565b505050565b600080611f41611f3c62ffffff198716611203565b611733565b90506000611f57611f3c62ffffff198716611203565b9050611f656107e082613ecc565b6107df14611fef5760405162461bcd60e51b815260206004820152604b60248201527f426974636f696e52656c61793a206d7573742070726f7669646520746865206c60448201527f61737420686561646572206f662074686520636c6f73696e672064696666696360648201526a1d5b1d1e481c195c9a5bd960aa1b608482015260a401610663565b611ffb826107df613c57565b81146120685760405162461bcd60e51b815260206004820152603660248201527f426974636f696e52656c61793a206d7573742070726f766964652065786163746044820152751b1e480c48191a59999a58dd5b1d1e481c195c9a5bd960521b6064820152608401610663565b61207762ffffff198616612d52565b61208662ffffff198816612d52565b146120f15760405162461bcd60e51b815260206004820152603560248201527f426974636f696e52656c61793a20706572696f642068656164657220646966666044820152740d2c6ead8e8d2cae640c8de40dcdee840dac2e8c6d605b1b6064820152608401610663565b600061210362ffffff1986168261294f565b9050600061211662ffffff19831661298b565b9050600061215b61212c62ffffff198b1661298b565b61213b62ffffff198c16612a57565b63ffffffff1661215062ffffff198c16612a57565b63ffffffff16612d72565b905081818316146121be5760405162461bcd60e51b815260206004820152602760248201527f426974636f696e52656c61793a20696e76616c696420726574617267657420706044820152661c9bdd9a59195960ca1b6064820152608401610663565b6121ca8888600161192c565b9998505050505050505050565b60075460408051918252602082018390527f1957bdf4f6fe279cd1cb63c41461020488cecbdf8721d1a1c960bc57c7cddce8910160405180910390a16127108111156122715760405162461bcd60e51b8152602060048201526024808201527f426974636f696e52656c61793a2072656c6179206665652069732061626f7665604482015263040dac2f60e31b6064820152608401610663565b600755565b60085460408051918252602082018390527f7a20e935d503f4d2565dbc88569bbe136c1e2a59da068a1d1286f04512ecfff3910160405180910390a1600855565b60025460ff166123005760405162461bcd60e51b815260206004820152601460248201527314185d5cd8589b194e881b9bdd081c185d5cd95960621b6044820152606401610663565b6002805460ff191690557f5db9ee0a495bf2e6ff9c91a7834c1ba4fdd244a5e8aa4e537bd38aeae4b073aa33611685565b60055460408051918252602082018390527fe7ff4c9746f87ab86154b3cb3bb52e1647f016783ae4e195496258eaa884c296910160405180910390a160008111801561237f57506101b08111155b6123dc5760405162461bcd60e51b815260206004820152602860248201527f426974636f696e52656c61793a20696e76616c69642066696e616c697a6174696044820152676f6e20706172616d60c01b6064820152608401610663565b600555565b60065460408051918252602082018390527fe43de8c98a3401a046e4ea741059d335faa482e1262eb6a888a2ca2a1da3d474910160405180910390a1600655565b6000612710600c5460095460075461271061243d9190613c57565b8560085461244b9190613de8565b6124559190613de8565b61245f9190613de8565b6124699190613c9a565b6109b99190613c9a565b600d54604080516001600160a01b03928316815291831660208301527ffd88adf2dc0ac6ee5960f2f4273f25017bab8b5efa8889b3cf085ce645c293b2910160405180910390a1600d80546001600160a01b0319166001600160a01b0392909216919091179055565b600080546001600160a01b038381166001600160a01b0319831681178455604051919092169283917f8be0079c531659141344cd1fd0a4f28419497f9722a3daafe3b4186f6b6457e09190a35050565b6000806125398385613c57565b9050604051811115612549575060005b8061255b5762ffffff19915050610f54565b5050606092831b9190911790911b1760181b90565b60008164ffffffffff166125848460d81c90565b64ffffffffff16149392505050565b600080601f5b600f8160ff1611156125f15760006125b2826008613e07565b60ff1685901c90506125c381612e03565b61ffff16841793508160ff166010146125de57601084901b93505b506125ea600182613e47565b9050612599565b50600f5b60ff8160ff1610156126395760ff600882021684901c61261481612e03565b61ffff16831792508160ff1660001461262f57601083901b92505b50600019016125f5565b50915091565b6060600061264c86612593565b915050600061265a86612593565b915050600061266886612593565b915050600061267686612593565b604080517f54797065644d656d566965772f696e646578202d204f76657272616e20746865602082015274040ecd2caee5c40a6d8d2c6ca40d2e640c2e84060f605b1b818301526001600160d01b031960d098891b811660558301526e040eed2e8d040d8cadccee8d04060f608b1b605b830181905297891b8116606a8301527f2e20417474656d7074656420746f20696e646578206174206f666673657420306070830152600f60fb1b609083015295881b861660918201526097810196909652951b90921660a68401525050601760f91b60ac8201528151808203608d01815260ad90910190915295945050505050565b804710156127b95760405162461bcd60e51b815260206004820152601d60248201527f416464726573733a20696e73756666696369656e742062616c616e63650000006044820152606401610663565b6000826001600160a01b03168260405160006040518083038185875af1925050503d8060008114612806576040519150601f19603f3d011682016040523d82523d6000602084013e61280b565b606091505b5050905080611f225760405162461bcd60e51b815260206004820152603a60248201527f416464726573733a20756e61626c6520746f2073656e642076616c75652c207260448201527f6563697069656e74206d617920686176652072657665727465640000000000006064820152608401610663565b6000836014612890816111a7565b5060006128ab6020601889901c6001600160601b0316613cae565b6001600160601b03169050806128c657858814935050611623565b848860005b8381101561293f5760006128f26128e3836020613de8565b62ffffff198d169060206113ab565b90506128ff600285613ecc565b60011415612918576129118184612e33565b9250612925565b6129228382612e33565b92505b5060019290921c918061293781613eb1565b9150506128cb565b5090961498975050505050505050565b600082601161295d816111a7565b50600061296b856050613de8565b905061298162ffffff1987168260506010612e5f565b9695505050505050565b6000816010612999816111a7565b5060006129af62ffffff19861660486003612edb565b905060026129c662ffffff198716604b6001612ef0565b11612a1e5760405162461bcd60e51b815260206004820152602260248201527f566965774254433a20696e76616c69642074617267657420646966666963756c604482015261747960f01b6064820152608401610663565b60006003612a3562ffffff198816604b6001612ef0565b612a3f9190613e30565b9050612a4d81610100613d1a565b6129819083613de8565b6000816010612a65816111a7565b506111ec62ffffff19851660446004612edb565b6000826010612a87816111a7565b5083612a9286611265565b1495945050505050565b600881811c7eff00ff00ff00ff00ff00ff00ff00ff00ff00ff00ff00ff00ff00ff00ff00ff167fff00ff00ff00ff00ff00ff00ff00ff00ff00ff00ff00ff00ff00ff00ff00ff009290911b9190911617601081811c7dffff0000ffff0000ffff0000ffff0000ffff0000ffff0000ffff0000ffff167fffff0000ffff0000ffff0000ffff0000ffff0000ffff0000ffff0000ffff00009290911b9190911617602081811c7bffffffff00000000ffffffff00000000ffffffff00000000ffffffff167fffffffff00000000ffffffff00000000ffffffff00000000ffffffff000000009290911b9190911617604081811c77ffffffffffffffff0000000000000000ffffffffffffffff1677ffffffffffffffff0000000000000000ffffffffffffffff199290911b9190911617608081811c91901b1790565b600454600554612be69083613c57565b11612c415760405162461bcd60e51b815260206004820152602560248201527f426974636f696e52656c61793a20626c6f636b2068656164657220697320746f6044820152641bc81bdb1960da1b6064820152608401610663565b6040805160a081018252600080825260208201819052918101829052606081018290526080810191909152612c7b62ffffff198416611203565b8152612c8c62ffffff198416611265565b6020820152612ca062ffffff198416611287565b6040820152336001600160a01b03908116606083019081523a608084019081526000858152600f602090815260408083208054600180820183559185529383902088516005909502019384559187015191830191909155850151600282015591516003830180546001600160a01b0319169190941617909255905160049182015554821115611f2257600160046000828254612d3c9190613c57565b90915550612d4a9050612f20565b611f22612f55565b6000816010612d60816111a7565b506111ec612d6d8561298b565b61325a565b600080612d7f8484613e30565b9050612d8f600462127500613c9a565b811015612da757612da4600462127500613c9a565b90505b612db5621275006004613de8565b811115612dcd57612dca621275006004613de8565b90505b600081612ddd6201000088613c9a565b612de79190613de8565b9050612df66212750082613c9a565b6129819062010000613de8565b6000612e1560048360ff16901c61326b565b60ff161760081b62ffff0016612e2a8261326b565b60ff1617919050565b600060405183815282602082015260208160408360025afa5060208160208360025afa50519392505050565b600080612e758660781c6001600160601b031690565b6001600160601b03169050612e89866133d7565b84612e948784613c57565b612e9e9190613c57565b1115612eb15762ffffff19915050612ed3565b612ebb8582613c57565b9050612ecf8364ffffffffff16828661252c565b9150505b949350505050565b6000612ed3612eeb8585856113ab565b612a9c565b6000612efd826020613e47565b612f08906008613e07565b60ff16612f168585856113ab565b901c949350505050565b600954600454612f309190613ecc565b61097657600a54600b5410612f4757600b54612f4b565b600a545b600c556000600b55565b600554600354600454612f689190613e30565b106109765760055460045460005b8215612ff7576000828152600f60205260408120805483908110612faa57634e487b7160e01b600052603260045260246000fd5b9060005260206000209060050201600101549050612fd481600185612fcf9190613e30565b613418565b915083612fe081613e9a565b9450508280612fee90613e9a565b93505050612f76565b6000828152600f6020526040902080548290811061302557634e487b7160e01b600052603260045260246000fd5b9060005260206000209060050201600f600084815260200190815260200160002060008154811061306657634e487b7160e01b600052603260045260246000fd5b600091825260208083208454600590930201918255600180850154818401556002808601549084015560038086015490840180546001600160a01b0319166001600160a01b039092169190911790556004948501549490920193909355848252600f909252604090205411156130df576130df82613496565b6000828152600f602052604081208054829161313491839061311157634e487b7160e01b600052603260045260246000fd5b60009182526020909120600360059092020101546001600160a01b03168561353a565b6000868152600f602052604081208054939550919350909161316657634e487b7160e01b600052603260045260246000fd5b6000918252602080832060036005909302019190910154868352600f9091526040822080546001600160a01b039092169287927f4fec6ffa2052e80db9daadc2384a8f634057472e28ea7f1bd3eebfc92b5b0f8e9291906131d757634e487b7160e01b600052603260045260246000fd5b906000526020600020906005020160000154600f600089815260200190815260200160002060008154811061321c57634e487b7160e01b600052603260045260246000fd5b600091825260209182902060016005909202010154604080519384529183015281018690526060810185905260800160405180910390a35050505050565b60006109b98261ffff60d01b613c9a565b600060f08083179060ff821614156132875760309150506109bc565b8060ff1660f1141561329d5760319150506109bc565b8060ff1660f214156132b35760329150506109bc565b8060ff1660f314156132c95760339150506109bc565b8060ff1660f414156132df5760349150506109bc565b8060ff1660f514156132f55760359150506109bc565b8060ff1660f6141561330b5760369150506109bc565b8060ff1660f714156133215760379150506109bc565b8060ff1660f814156133375760389150506109bc565b8060ff1660f9141561334d5760399150506109bc565b8060ff1660fa14156133635760619150506109bc565b8060ff1660fb14156133795760629150506109bc565b8060ff1660fc141561338f5760639150506109bc565b8060ff1660fd14156133a55760649150506109bc565b8060ff1660fe14156133bb5760659150506109bc565b8060ff1660ff14156133d15760669150506109bc565b50919050565b60006133ec8260181c6001600160601b031690565b6133ff8360781c6001600160601b031690565b6134099190613c6f565b6001600160601b031692915050565b6000805b6000838152600f602052604090205481101561348f576000838152600f6020526040902080548290811061346057634e487b7160e01b600052603260045260246000fd5b90600052602060002090600502016000015484141561347d578091505b8061348781613eb1565b91505061341c565b5092915050565b6000818152600f60205260408120546134b190600190613e30565b90505b8015611928576000828152600f602052604090208054806134e557634e487b7160e01b600052603160045260246000fd5b6000828152602081206005600019909301928302018181556001818101839055600282018390556003820180546001600160a01b031916905560049091019190915591556135339082613e30565b90506134b4565b60008060006127106007546127106135529190613c57565b6000868152600f60205260408120805490919061357f57634e487b7160e01b600052603260045260246000fd5b90600052602060002090600502016004015460085461359e9190613de8565b6135a89190613de8565b6135b29190613c9a565b600d549091506000906001600160a01b03161561364757600d546040516370a0823160e01b81523060048201526001600160a01b03909116906370a082319060240160206040518083038186803b15801561360c57600080fd5b505afa158015613620573d6000803e3d6000fd5b505050506040513d601f19601f820116820180604052508101906136449190613b39565b90505b6000816006541115801561365d57506000600654115b1561368357600654600d5461367f916001600160a01b0390911690899061373a565b5060015b600083471180156136945750600084115b156136ed576040516001600160a01b038916908590600081818185875af1925050503d80600081146136e2576040519150601f19603f3d011682016040523d82523d6000602084013e6136e7565b606091505b50909150505b8015613712578161370057836000613705565b836006545b9550955050505050613733565b8161371f57600080613725565b60006006545b60ff90911696509450505050505b9250929050565b604080516001600160a01b03848116602483015260448083018590528351808403909101815260649092018352602080830180516001600160e01b031663a9059cbb60e01b17905283518085019094528084527f5361666545524332303a206c6f772d6c6576656c2063616c6c206661696c656490840152611f22928692916000916137ca918516908490613847565b805190915015611f2257808060200190518101906137e891906139a9565b611f225760405162461bcd60e51b815260206004820152602a60248201527f5361666545524332303a204552433230206f7065726174696f6e20646964206e6044820152691bdd081cdd58d8d9595960b21b6064820152608401610663565b6060612ed3848460008585843b6138a05760405162461bcd60e51b815260206004820152601d60248201527f416464726573733a2063616c6c20746f206e6f6e2d636f6e74726163740000006044820152606401610663565b600080866001600160a01b031685876040516138bc9190613b72565b60006040518083038185875af1925050503d80600081146138f9576040519150601f19603f3d011682016040523d82523d6000602084013e6138fe565b606091505b509150915061162082828660608315613918575081610f54565b8251156139285782518084602001fd5b8160405162461bcd60e51b81526004016106639190613b8e565b60008083601f840112613953578182fd5b50813567ffffffffffffffff81111561396a578182fd5b60208301915083602082850101111561373357600080fd5b600060208284031215613993578081fd5b81356001600160a01b0381168114610f54578182fd5b6000602082840312156139ba578081fd5b81518015158114610f54578182fd5b6000602082840312156139da578081fd5b5035919050565b6000806000806000608086880312156139f8578081fd5b8535945060208601359350604086013567ffffffffffffffff811115613a1c578182fd5b613a2888828901613942565b96999598509660600135949350505050565b60008060008060408587031215613a4f578384fd5b843567ffffffffffffffff80821115613a66578586fd5b613a7288838901613942565b90965094506020870135915080821115613a8a578384fd5b50613a9787828801613942565b95989497509550505050565b60008060008060008060608789031215613abb578081fd5b863567ffffffffffffffff80821115613ad2578283fd5b613ade8a838b01613942565b90985096506020890135915080821115613af6578283fd5b613b028a838b01613942565b90965094506040890135915080821115613b1a578283fd5b50613b2789828a01613942565b979a9699509497509295939492505050565b600060208284031215613b4a578081fd5b5051919050565b60008060408385031215613b63578182fd5b50508035926020909101359150565b60008251613b84818460208701613e6a565b9190910192915050565b6000602082528251806020840152613bad816040850160208701613e6a565b601f01601f19169190910160400192915050565b60208082526010908201526f14185d5cd8589b194e881c185d5cd95960821b604082015260600190565b6020808252818101527f4f776e61626c653a2063616c6c6572206973206e6f7420746865206f776e6572604082015260600190565b6020808252601f908201527f5265656e7472616e637947756172643a207265656e7472616e742063616c6c00604082015260600190565b60008219821115613c6a57613c6a613f06565b500190565b60006001600160601b03808316818516808303821115613c9157613c91613f06565b01949350505050565b600082613ca957613ca9613f1c565b500490565b60006001600160601b0380841680613cc857613cc8613f1c565b92169190910492915050565b80825b6001808611613ce65750613d11565b818704821115613cf857613cf8613f06565b80861615613d0557918102915b9490941c938002613cd7565b94509492505050565b6000610f546000198484600082613d3357506001610f54565b81613d4057506000610f54565b8160018114613d565760028114613d6057613d8d565b6001915050610f54565b60ff841115613d7157613d71613f06565b6001841b915084821115613d8757613d87613f06565b50610f54565b5060208310610133831016604e8410600b8410161715613dc0575081810a83811115613dbb57613dbb613f06565b610f54565b613dcd8484846001613cd4565b808604821115613ddf57613ddf613f06565b02949350505050565b6000816000190483118215151615613e0257613e02613f06565b500290565b600060ff821660ff84168160ff0481118215151615613e2857613e28613f06565b029392505050565b600082821015613e4257613e42613f06565b500390565b600060ff821660ff841680821015613e6157613e61613f06565b90039392505050565b60005b83811015613e85578181015183820152602001613e6d565b83811115613e94576000848401525b50505050565b600081613ea957613ea9613f06565b506000190190565b6000600019821415613ec557613ec5613f06565b5060010190565b600082613edb57613edb613f1c565b500690565b60006001600160601b0380841680613efa57613efa613f1c565b92169190910692915050565b634e487b7160e01b600052601160045260246000fd5b634e487b7160e01b600052601260045260246000fdfea2646970667358221220bb6bd218cf51ae6dd65ad5929b1a550b034a5c05d6e5d3a27810627e36623aa564736f6c63430008020033",
  "devdoc": {
    "kind": "dev",
    "methods": {
      "addHeaders(bytes,bytes)": {
        "details": "Checks integrity and consistency of the header chain",
        "params": {
          "_anchor": "The header immediately preceeding the new chain",
          "_headers": "A tightly-packed list of 80-byte Bitcoin headers"
        },
        "returns": {
          "_0": "True if successfully written, error otherwise"
        }
      },
      "addHeadersWithRetarget(bytes,bytes,bytes)": {
        "details": "Checks the retarget, the heights, and the linkage",
        "params": {
          "_headers": "A tightly-packed list of 80-byte Bitcoin headers",
          "_oldPeriodEndHeader": "The last header in the difficulty period being closed (anchor of new headers)",
          "_oldPeriodStartHeader": "The first header in the difficulty period being closed"
        },
        "returns": {
          "_0": "True if successfully written, error otherwise"
        }
      },
      "checkTxProof(bytes32,uint256,bytes,uint256)": {
        "details": "Checks if the block is finalized, and Merkle proof is valid",
        "params": {
          "_blockHeight": "of the desired tx",
          "_index": "of the tx in Merkle tree",
          "_intermediateNodes": "Part of the Merkle tree from the tx to the root in LE form (called Merkle proof)",
          "_txid": "Desired tx Id in LE form"
        },
        "returns": {
          "_0": "True if the provided tx is confirmed on Bitcoin"
        }
      },
      "constructor": {
        "params": {
          "_TeleportDAOToken": "The address of the TeleportDAO ERC20 token contract",
          "_genesisHeader": "The starting header",
          "_height": "The starting height",
          "_periodStart": "The hash of the first header in the genesis epoch"
        }
      },
      "findHeight(bytes32)": {
        "details": "Fails if the header is unknown",
        "params": {
          "_hash": "The header hash to search for"
        },
        "returns": {
          "_0": "The height of the header"
        }
      },
      "getBlockHeaderFee(uint256,uint256)": {
        "params": {
          "_height": "of the desired block header",
          "_index": "of the desired block header in that height"
        },
        "returns": {
          "_0": "Block header submission gas price"
        }
      },
      "getBlockHeaderHash(uint256,uint256)": {
        "details": "It cannot be called by other contracts",
        "params": {
          "_height": "of the desired block header",
          "_index": "of the desired block header in that height"
        },
        "returns": {
          "_0": "Block header's hash"
        }
      },
      "getBlockHeaderHashContract(uint256,uint256)": {
        "details": "Caller should pay the query fee"
      },
      "getNumberOfSubmittedHeaders(uint256)": {
        "details": "This shows the number of temporary forks in that specific height",
        "params": {
          "_height": "The desired height of the blockchain"
        },
        "returns": {
          "_0": "Number of block headers stored in a height"
        }
      },
      "owner()": {
        "details": "Returns the address of the current owner."
      },
      "pauseRelay()": {
        "details": "Only functions with whenPaused modifier can be called"
      },
      "paused()": {
        "details": "Returns true if the contract is paused, and false otherwise."
      },
      "renounceOwnership()": {
        "details": "Leaves the contract without owner. It will not be possible to call `onlyOwner` functions anymore. Can only be called by the current owner. NOTE: Renouncing ownership will leave the contract without an owner, thereby removing any functionality that is only available to the owner."
      },
      "setBaseQueries(uint256)": {
        "params": {
          "_baseQueries": "The base number of queries we assume in each epoch                     This prevents query fee to grow significantly"
        }
      },
      "setEpochLength(uint256)": {
        "params": {
          "_epochLength": "The length of epochs used for estimating the query fee"
        }
      },
      "setFinalizationParameter(uint256)": {
        "details": "Bigger finalization parameter increases security but also increases the delay",
        "params": {
          "_finalizationParameter": "The finalization parameter of Bitcoin"
        }
      },
      "setRelayerPercentageFee(uint256)": {
        "details": "A percentage of the submission gas used goes to Relayers as reward",
        "params": {
          "_relayerPercentageFee": "New percentage fee"
        }
      },
      "setRewardAmountInTDT(uint256)": {
        "details": "This award is for the Relayer who submitted a finalized block header",
        "params": {
          "_rewardAmountInTDT": "The amount of reward in TDT"
        }
      },
      "setSubmissionGasUsed(uint256)": {
        "params": {
          "_submissionGasUsed": "The gas used by Relayers for submitting a block header"
        }
      },
      "setTeleportDAOToken(address)": {
        "params": {
          "_TeleportDAOToken": "The TeleportDAO token (TDT) address"
        }
      },
      "transferOwnership(address)": {
        "details": "Transfers ownership of the contract to a new account (`newOwner`). Can only be called by the current owner."
      },
      "unpauseRelay()": {
        "details": "Only functions with whenNotPaused modifier can be called"
      }
    },
    "version": 1
  },
  "userdoc": {
    "events": {
      "BlockAdded(uint256,bytes32,bytes32,address)": {
        "notice": "Emits when a block header is added"
      },
      "BlockFinalized(uint256,bytes32,bytes32,address,uint256,uint256)": {
        "notice": "Emits when a block header gets finalized"
      },
      "NewQuery(bytes32,uint256,uint256)": {
        "notice": "Emits when inclusion of a tx is queried"
      }
    },
    "kind": "user",
    "methods": {
      "addHeaders(bytes,bytes)": {
        "notice": "Adds headers to storage after validating"
      },
      "addHeadersWithRetarget(bytes,bytes,bytes)": {
        "notice": "Adds headers to storage, performs additional validation of retarget"
      },
      "availableTDT()": {
        "notice": "Getter for available TDT in Relay treasury"
      },
      "availableTNT()": {
        "notice": "Getter for available target native token (TNT) in Relay treasury"
      },
      "checkTxProof(bytes32,uint256,bytes,uint256)": {
        "notice": "Checks if a tx is included and finalized on Bitcoin"
      },
      "constructor": {
        "notice": "Gives a starting point for the relay"
      },
      "findHeight(bytes32)": {
        "notice": "Finds the height of a header by its hash"
      },
      "getBlockHeaderFee(uint256,uint256)": {
        "notice": "Getter for a specific block header submission gas price"
      },
      "getBlockHeaderHash(uint256,uint256)": {
        "notice": "Getter for a specific block header's hash in the stored chain"
      },
      "getBlockHeaderHashContract(uint256,uint256)": {
        "notice": "Same as getBlockHeaderHash, but can be called by other contracts"
      },
      "getNumberOfSubmittedHeaders(uint256)": {
        "notice": "Getter for the number of submitted block headers in a height"
      },
      "ownerAddHeaders(bytes,bytes)": {
        "notice": "Same as addHeaders, but can only be called by owner even if contract is paused         It will be used if a fork happend"
      },
      "ownerAddHeadersWithRetarget(bytes,bytes,bytes)": {
        "notice": "Same as addHeadersWithRetarget, but can only be called by owner even if contract is paused         It will be used if a fork happend"
      },
      "pauseRelay()": {
        "notice": "Pauses the Relay"
      },
      "setBaseQueries(uint256)": {
        "notice": "External setter for baseQueries"
      },
      "setEpochLength(uint256)": {
        "notice": "External setter for epochLength"
      },
      "setFinalizationParameter(uint256)": {
        "notice": "External setter for finalizationParameter"
      },
      "setRelayerPercentageFee(uint256)": {
        "notice": "External setter for relayerPercentageFee"
      },
      "setRewardAmountInTDT(uint256)": {
        "notice": "External setter for rewardAmountInTDT"
      },
      "setSubmissionGasUsed(uint256)": {
        "notice": "External setter for submissionGasUsed"
      },
      "setTeleportDAOToken(address)": {
        "notice": "External setter for TeleportDAO token"
      },
      "unpauseRelay()": {
        "notice": "Unpauses the relay"
      }
    },
    "version": 1
  },
  "storageLayout": {
    "storage": [
      {
        "astId": 7,
        "contract": "contracts/relay/BitcoinRelay.sol:BitcoinRelay",
        "label": "_owner",
        "offset": 0,
        "slot": "0",
        "type": "t_address"
      },
      {
        "astId": 206,
        "contract": "contracts/relay/BitcoinRelay.sol:BitcoinRelay",
        "label": "_status",
        "offset": 0,
        "slot": "1",
        "type": "t_uint256"
      },
      {
        "astId": 121,
        "contract": "contracts/relay/BitcoinRelay.sol:BitcoinRelay",
        "label": "_paused",
        "offset": 0,
        "slot": "2",
        "type": "t_bool"
      },
      {
        "astId": 5323,
        "contract": "contracts/relay/BitcoinRelay.sol:BitcoinRelay",
        "label": "initialHeight",
        "offset": 0,
        "slot": "3",
        "type": "t_uint256"
      },
      {
        "astId": 5326,
        "contract": "contracts/relay/BitcoinRelay.sol:BitcoinRelay",
        "label": "lastSubmittedHeight",
        "offset": 0,
        "slot": "4",
        "type": "t_uint256"
      },
      {
        "astId": 5329,
        "contract": "contracts/relay/BitcoinRelay.sol:BitcoinRelay",
        "label": "finalizationParameter",
        "offset": 0,
        "slot": "5",
        "type": "t_uint256"
      },
      {
        "astId": 5332,
        "contract": "contracts/relay/BitcoinRelay.sol:BitcoinRelay",
        "label": "rewardAmountInTDT",
        "offset": 0,
        "slot": "6",
        "type": "t_uint256"
      },
      {
        "astId": 5335,
        "contract": "contracts/relay/BitcoinRelay.sol:BitcoinRelay",
        "label": "relayerPercentageFee",
        "offset": 0,
        "slot": "7",
        "type": "t_uint256"
      },
      {
        "astId": 5338,
        "contract": "contracts/relay/BitcoinRelay.sol:BitcoinRelay",
        "label": "submissionGasUsed",
        "offset": 0,
        "slot": "8",
        "type": "t_uint256"
      },
      {
        "astId": 5341,
        "contract": "contracts/relay/BitcoinRelay.sol:BitcoinRelay",
        "label": "epochLength",
        "offset": 0,
        "slot": "9",
        "type": "t_uint256"
      },
      {
        "astId": 5344,
        "contract": "contracts/relay/BitcoinRelay.sol:BitcoinRelay",
        "label": "baseQueries",
        "offset": 0,
        "slot": "10",
        "type": "t_uint256"
      },
      {
        "astId": 5347,
        "contract": "contracts/relay/BitcoinRelay.sol:BitcoinRelay",
        "label": "currentEpochQueries",
        "offset": 0,
        "slot": "11",
        "type": "t_uint256"
      },
      {
        "astId": 5350,
        "contract": "contracts/relay/BitcoinRelay.sol:BitcoinRelay",
        "label": "lastEpochQueries",
        "offset": 0,
        "slot": "12",
        "type": "t_uint256"
      },
      {
        "astId": 5353,
        "contract": "contracts/relay/BitcoinRelay.sol:BitcoinRelay",
        "label": "TeleportDAOToken",
        "offset": 0,
        "slot": "13",
        "type": "t_address"
      },
      {
        "astId": 5356,
        "contract": "contracts/relay/BitcoinRelay.sol:BitcoinRelay",
        "label": "relayGenesisHash",
        "offset": 0,
        "slot": "14",
        "type": "t_bytes32"
      },
      {
        "astId": 5362,
        "contract": "contracts/relay/BitcoinRelay.sol:BitcoinRelay",
        "label": "chain",
        "offset": 0,
        "slot": "15",
        "type": "t_mapping(t_uint256,t_array(t_struct(blockHeader)7354_storage)dyn_storage)"
      },
      {
        "astId": 5366,
        "contract": "contracts/relay/BitcoinRelay.sol:BitcoinRelay",
        "label": "previousBlock",
        "offset": 0,
        "slot": "16",
        "type": "t_mapping(t_bytes32,t_bytes32)"
      },
      {
        "astId": 5370,
        "contract": "contracts/relay/BitcoinRelay.sol:BitcoinRelay",
        "label": "blockHeight",
        "offset": 0,
        "slot": "17",
        "type": "t_mapping(t_bytes32,t_uint256)"
      }
    ],
    "types": {
      "t_address": {
        "encoding": "inplace",
        "label": "address",
        "numberOfBytes": "20"
      },
      "t_array(t_struct(blockHeader)7354_storage)dyn_storage": {
        "base": "t_struct(blockHeader)7354_storage",
        "encoding": "dynamic_array",
        "label": "struct IBitcoinRelay.blockHeader[]",
        "numberOfBytes": "32"
      },
      "t_bool": {
        "encoding": "inplace",
        "label": "bool",
        "numberOfBytes": "1"
      },
      "t_bytes32": {
        "encoding": "inplace",
        "label": "bytes32",
        "numberOfBytes": "32"
      },
      "t_mapping(t_bytes32,t_bytes32)": {
        "encoding": "mapping",
        "key": "t_bytes32",
        "label": "mapping(bytes32 => bytes32)",
        "numberOfBytes": "32",
        "value": "t_bytes32"
      },
      "t_mapping(t_bytes32,t_uint256)": {
        "encoding": "mapping",
        "key": "t_bytes32",
        "label": "mapping(bytes32 => uint256)",
        "numberOfBytes": "32",
        "value": "t_uint256"
      },
      "t_mapping(t_uint256,t_array(t_struct(blockHeader)7354_storage)dyn_storage)": {
        "encoding": "mapping",
        "key": "t_uint256",
        "label": "mapping(uint256 => struct IBitcoinRelay.blockHeader[])",
        "numberOfBytes": "32",
        "value": "t_array(t_struct(blockHeader)7354_storage)dyn_storage"
      },
      "t_struct(blockHeader)7354_storage": {
        "encoding": "inplace",
        "label": "struct IBitcoinRelay.blockHeader",
        "members": [
          {
            "astId": 7345,
            "contract": "contracts/relay/BitcoinRelay.sol:BitcoinRelay",
            "label": "selfHash",
            "offset": 0,
            "slot": "0",
            "type": "t_bytes32"
          },
          {
            "astId": 7347,
            "contract": "contracts/relay/BitcoinRelay.sol:BitcoinRelay",
            "label": "parentHash",
            "offset": 0,
            "slot": "1",
            "type": "t_bytes32"
          },
          {
            "astId": 7349,
            "contract": "contracts/relay/BitcoinRelay.sol:BitcoinRelay",
            "label": "merkleRoot",
            "offset": 0,
            "slot": "2",
            "type": "t_bytes32"
          },
          {
            "astId": 7351,
            "contract": "contracts/relay/BitcoinRelay.sol:BitcoinRelay",
            "label": "relayer",
            "offset": 0,
            "slot": "3",
            "type": "t_address"
          },
          {
            "astId": 7353,
            "contract": "contracts/relay/BitcoinRelay.sol:BitcoinRelay",
            "label": "gasPrice",
            "offset": 0,
            "slot": "4",
            "type": "t_uint256"
          }
        ],
        "numberOfBytes": "160"
      },
      "t_uint256": {
        "encoding": "inplace",
        "label": "uint256",
        "numberOfBytes": "32"
      }
    }
  }
}