{
  "address": "0x5b845e3EB38d78cD5006C04b0Bc78692b5535F56",
  "abi": [
    {
      "inputs": [
        {
          "internalType": "bytes",
          "name": "_genesisHeader",
          "type": "bytes"
        },
        {
          "internalType": "uint256",
          "name": "_height",
          "type": "uint256"
        },
        {
          "internalType": "bytes32",
          "name": "_periodStart",
          "type": "bytes32"
        },
        {
          "internalType": "address",
          "name": "_TeleportDAOToken",
          "type": "address"
        }
      ],
      "stateMutability": "nonpayable",
      "type": "constructor"
    },
    {
      "anonymous": false,
      "inputs": [
        {
          "indexed": true,
          "internalType": "uint256",
          "name": "height",
          "type": "uint256"
        },
        {
          "indexed": false,
          "internalType": "bytes32",
          "name": "selfHash",
          "type": "bytes32"
        },
        {
          "indexed": true,
          "internalType": "bytes32",
          "name": "parentHash",
          "type": "bytes32"
        },
        {
          "indexed": true,
          "internalType": "address",
          "name": "relayer",
          "type": "address"
        }
      ],
      "name": "BlockAdded",
      "type": "event"
    },
    {
      "anonymous": false,
      "inputs": [
        {
          "indexed": true,
          "internalType": "uint256",
          "name": "height",
          "type": "uint256"
        },
        {
          "indexed": false,
          "internalType": "bytes32",
          "name": "selfHash",
          "type": "bytes32"
        },
        {
          "indexed": false,
          "internalType": "bytes32",
          "name": "parentHash",
          "type": "bytes32"
        },
        {
          "indexed": true,
          "internalType": "address",
          "name": "relayer",
          "type": "address"
        },
        {
          "indexed": false,
          "internalType": "uint256",
          "name": "rewardAmountTNT",
          "type": "uint256"
        },
        {
          "indexed": false,
          "internalType": "uint256",
          "name": "rewardAmountTDT",
          "type": "uint256"
        }
      ],
      "name": "BlockFinalized",
      "type": "event"
    },
    {
      "anonymous": false,
      "inputs": [
        {
          "indexed": false,
          "internalType": "uint256",
          "name": "oldBaseQueries",
          "type": "uint256"
        },
        {
          "indexed": false,
          "internalType": "uint256",
          "name": "newBaseQueries",
          "type": "uint256"
        }
      ],
      "name": "NewBaseQueries",
      "type": "event"
    },
    {
      "anonymous": false,
      "inputs": [
        {
          "indexed": false,
          "internalType": "uint256",
          "name": "oldEpochLength",
          "type": "uint256"
        },
        {
          "indexed": false,
          "internalType": "uint256",
          "name": "newEpochLength",
          "type": "uint256"
        }
      ],
      "name": "NewEpochLength",
      "type": "event"
    },
    {
      "anonymous": false,
      "inputs": [
        {
          "indexed": false,
          "internalType": "uint256",
          "name": "oldFinalizationParameter",
          "type": "uint256"
        },
        {
          "indexed": false,
          "internalType": "uint256",
          "name": "newFinalizationParameter",
          "type": "uint256"
        }
      ],
      "name": "NewFinalizationParameter",
      "type": "event"
    },
    {
      "anonymous": false,
      "inputs": [
        {
          "indexed": false,
          "internalType": "bytes32",
          "name": "txId",
          "type": "bytes32"
        },
        {
          "indexed": false,
          "internalType": "uint256",
          "name": "blockHeight",
          "type": "uint256"
        },
        {
          "indexed": false,
          "internalType": "uint256",
          "name": "paidFee",
          "type": "uint256"
        }
      ],
      "name": "NewQuery",
      "type": "event"
    },
    {
      "anonymous": false,
      "inputs": [
        {
          "indexed": false,
          "internalType": "uint256",
          "name": "oldRelayerPercentageFee",
          "type": "uint256"
        },
        {
          "indexed": false,
          "internalType": "uint256",
          "name": "newRelayerPercentageFee",
          "type": "uint256"
        }
      ],
      "name": "NewRelayerPercentageFee",
      "type": "event"
    },
    {
      "anonymous": false,
      "inputs": [
        {
          "indexed": false,
          "internalType": "uint256",
          "name": "oldRewardAmountInTDT",
          "type": "uint256"
        },
        {
          "indexed": false,
          "internalType": "uint256",
          "name": "newRewardAmountInTDT",
          "type": "uint256"
        }
      ],
      "name": "NewRewardAmountInTDT",
      "type": "event"
    },
    {
      "anonymous": false,
      "inputs": [
        {
          "indexed": false,
          "internalType": "uint256",
          "name": "oldSubmissionGasUsed",
          "type": "uint256"
        },
        {
          "indexed": false,
          "internalType": "uint256",
          "name": "newSubmissionGasUsed",
          "type": "uint256"
        }
      ],
      "name": "NewSubmissionGasUsed",
      "type": "event"
    },
    {
      "anonymous": false,
      "inputs": [
        {
          "indexed": false,
          "internalType": "address",
          "name": "oldTeleportDAOToken",
          "type": "address"
        },
        {
          "indexed": false,
          "internalType": "address",
          "name": "newTeleportDAOToken",
          "type": "address"
        }
      ],
      "name": "NewTeleportDAOToken",
      "type": "event"
    },
    {
      "anonymous": false,
      "inputs": [
        {
          "indexed": true,
          "internalType": "address",
          "name": "previousOwner",
          "type": "address"
        },
        {
          "indexed": true,
          "internalType": "address",
          "name": "newOwner",
          "type": "address"
        }
      ],
      "name": "OwnershipTransferred",
      "type": "event"
    },
    {
      "anonymous": false,
      "inputs": [
        {
          "indexed": false,
          "internalType": "address",
          "name": "account",
          "type": "address"
        }
      ],
      "name": "Paused",
      "type": "event"
    },
    {
      "anonymous": false,
      "inputs": [
        {
          "indexed": false,
          "internalType": "address",
          "name": "account",
          "type": "address"
        }
      ],
      "name": "Unpaused",
      "type": "event"
    },
    {
      "inputs": [],
      "name": "TeleportDAOToken",
      "outputs": [
        {
          "internalType": "address",
          "name": "",
          "type": "address"
        }
      ],
      "stateMutability": "view",
      "type": "function"
    },
    {
      "inputs": [
        {
          "internalType": "bytes",
          "name": "_anchor",
          "type": "bytes"
        },
        {
          "internalType": "bytes",
          "name": "_headers",
          "type": "bytes"
        }
      ],
      "name": "addHeaders",
      "outputs": [
        {
          "internalType": "bool",
          "name": "",
          "type": "bool"
        }
      ],
      "stateMutability": "nonpayable",
      "type": "function"
    },
    {
      "inputs": [
        {
          "internalType": "bytes",
          "name": "_oldPeriodStartHeader",
          "type": "bytes"
        },
        {
          "internalType": "bytes",
          "name": "_oldPeriodEndHeader",
          "type": "bytes"
        },
        {
          "internalType": "bytes",
          "name": "_headers",
          "type": "bytes"
        }
      ],
      "name": "addHeadersWithRetarget",
      "outputs": [
        {
          "internalType": "bool",
          "name": "",
          "type": "bool"
        }
      ],
      "stateMutability": "nonpayable",
      "type": "function"
    },
    {
      "inputs": [],
      "name": "availableTDT",
      "outputs": [
        {
          "internalType": "uint256",
          "name": "",
          "type": "uint256"
        }
      ],
      "stateMutability": "view",
      "type": "function"
    },
    {
      "inputs": [],
      "name": "availableTNT",
      "outputs": [
        {
          "internalType": "uint256",
          "name": "",
          "type": "uint256"
        }
      ],
      "stateMutability": "view",
      "type": "function"
    },
    {
      "inputs": [],
      "name": "baseQueries",
      "outputs": [
        {
          "internalType": "uint256",
          "name": "",
          "type": "uint256"
        }
      ],
      "stateMutability": "view",
      "type": "function"
    },
    {
      "inputs": [
        {
          "internalType": "bytes32",
          "name": "_txid",
          "type": "bytes32"
        },
        {
          "internalType": "uint256",
          "name": "_blockHeight",
          "type": "uint256"
        },
        {
          "internalType": "bytes",
          "name": "_intermediateNodes",
          "type": "bytes"
        },
        {
          "internalType": "uint256",
          "name": "_index",
          "type": "uint256"
        }
      ],
      "name": "checkTxProof",
      "outputs": [
        {
          "internalType": "bool",
          "name": "",
          "type": "bool"
        }
      ],
      "stateMutability": "payable",
      "type": "function"
    },
    {
      "inputs": [],
      "name": "currentEpochQueries",
      "outputs": [
        {
          "internalType": "uint256",
          "name": "",
          "type": "uint256"
        }
      ],
      "stateMutability": "view",
      "type": "function"
    },
    {
      "inputs": [],
      "name": "epochLength",
      "outputs": [
        {
          "internalType": "uint256",
          "name": "",
          "type": "uint256"
        }
      ],
      "stateMutability": "view",
      "type": "function"
    },
    {
      "inputs": [],
      "name": "finalizationParameter",
      "outputs": [
        {
          "internalType": "uint256",
          "name": "",
          "type": "uint256"
        }
      ],
      "stateMutability": "view",
      "type": "function"
    },
    {
      "inputs": [
        {
          "internalType": "bytes32",
          "name": "_hash",
          "type": "bytes32"
        }
      ],
      "name": "findHeight",
      "outputs": [
        {
          "internalType": "uint256",
          "name": "",
          "type": "uint256"
        }
      ],
      "stateMutability": "view",
      "type": "function"
    },
    {
      "inputs": [
        {
          "internalType": "uint256",
          "name": "_height",
          "type": "uint256"
        },
        {
          "internalType": "uint256",
          "name": "_index",
          "type": "uint256"
        }
      ],
      "name": "getBlockHeaderFee",
      "outputs": [
        {
          "internalType": "uint256",
          "name": "",
          "type": "uint256"
        }
      ],
      "stateMutability": "view",
      "type": "function"
    },
    {
      "inputs": [
        {
          "internalType": "uint256",
          "name": "_height",
          "type": "uint256"
        },
        {
          "internalType": "uint256",
          "name": "_index",
          "type": "uint256"
        }
      ],
      "name": "getBlockHeaderHash",
      "outputs": [
        {
          "internalType": "bytes32",
          "name": "",
          "type": "bytes32"
        }
      ],
      "stateMutability": "view",
      "type": "function"
    },
    {
      "inputs": [
        {
          "internalType": "uint256",
          "name": "_height",
          "type": "uint256"
        },
        {
          "internalType": "uint256",
          "name": "_index",
          "type": "uint256"
        }
      ],
      "name": "getBlockHeaderHashContract",
      "outputs": [
        {
          "internalType": "bytes32",
          "name": "",
          "type": "bytes32"
        }
      ],
      "stateMutability": "payable",
      "type": "function"
    },
    {
      "inputs": [
        {
          "internalType": "uint256",
          "name": "_height",
          "type": "uint256"
        }
      ],
      "name": "getNumberOfSubmittedHeaders",
      "outputs": [
        {
          "internalType": "uint256",
          "name": "",
          "type": "uint256"
        }
      ],
      "stateMutability": "view",
      "type": "function"
    },
    {
      "inputs": [],
      "name": "initialHeight",
      "outputs": [
        {
          "internalType": "uint256",
          "name": "",
          "type": "uint256"
        }
      ],
      "stateMutability": "view",
      "type": "function"
    },
    {
      "inputs": [],
      "name": "lastEpochQueries",
      "outputs": [
        {
          "internalType": "uint256",
          "name": "",
          "type": "uint256"
        }
      ],
      "stateMutability": "view",
      "type": "function"
    },
    {
      "inputs": [],
      "name": "lastSubmittedHeight",
      "outputs": [
        {
          "internalType": "uint256",
          "name": "",
          "type": "uint256"
        }
      ],
      "stateMutability": "view",
      "type": "function"
    },
    {
      "inputs": [],
      "name": "owner",
      "outputs": [
        {
          "internalType": "address",
          "name": "",
          "type": "address"
        }
      ],
      "stateMutability": "view",
      "type": "function"
    },
    {
      "inputs": [
        {
          "internalType": "bytes",
          "name": "_anchor",
          "type": "bytes"
        },
        {
          "internalType": "bytes",
          "name": "_headers",
          "type": "bytes"
        }
      ],
      "name": "ownerAddHeaders",
      "outputs": [
        {
          "internalType": "bool",
          "name": "",
          "type": "bool"
        }
      ],
      "stateMutability": "nonpayable",
      "type": "function"
    },
    {
      "inputs": [
        {
          "internalType": "bytes",
          "name": "_oldPeriodStartHeader",
          "type": "bytes"
        },
        {
          "internalType": "bytes",
          "name": "_oldPeriodEndHeader",
          "type": "bytes"
        },
        {
          "internalType": "bytes",
          "name": "_headers",
          "type": "bytes"
        }
      ],
      "name": "ownerAddHeadersWithRetarget",
      "outputs": [
        {
          "internalType": "bool",
          "name": "",
          "type": "bool"
        }
      ],
      "stateMutability": "nonpayable",
      "type": "function"
    },
    {
      "inputs": [],
      "name": "pauseRelay",
      "outputs": [],
      "stateMutability": "nonpayable",
      "type": "function"
    },
    {
      "inputs": [],
      "name": "paused",
      "outputs": [
        {
          "internalType": "bool",
          "name": "",
          "type": "bool"
        }
      ],
      "stateMutability": "view",
      "type": "function"
    },
    {
      "inputs": [],
      "name": "relayGenesisHash",
      "outputs": [
        {
          "internalType": "bytes32",
          "name": "",
          "type": "bytes32"
        }
      ],
      "stateMutability": "view",
      "type": "function"
    },
    {
      "inputs": [],
      "name": "relayerPercentageFee",
      "outputs": [
        {
          "internalType": "uint256",
          "name": "",
          "type": "uint256"
        }
      ],
      "stateMutability": "view",
      "type": "function"
    },
    {
      "inputs": [],
      "name": "renounceOwnership",
      "outputs": [],
      "stateMutability": "nonpayable",
      "type": "function"
    },
    {
      "inputs": [],
      "name": "rewardAmountInTDT",
      "outputs": [
        {
          "internalType": "uint256",
          "name": "",
          "type": "uint256"
        }
      ],
      "stateMutability": "view",
      "type": "function"
    },
    {
      "inputs": [
        {
          "internalType": "uint256",
          "name": "_baseQueries",
          "type": "uint256"
        }
      ],
      "name": "setBaseQueries",
      "outputs": [],
      "stateMutability": "nonpayable",
      "type": "function"
    },
    {
      "inputs": [
        {
          "internalType": "uint256",
          "name": "_epochLength",
          "type": "uint256"
        }
      ],
      "name": "setEpochLength",
      "outputs": [],
      "stateMutability": "nonpayable",
      "type": "function"
    },
    {
      "inputs": [
        {
          "internalType": "uint256",
          "name": "_finalizationParameter",
          "type": "uint256"
        }
      ],
      "name": "setFinalizationParameter",
      "outputs": [],
      "stateMutability": "nonpayable",
      "type": "function"
    },
    {
      "inputs": [
        {
          "internalType": "uint256",
          "name": "_relayerPercentageFee",
          "type": "uint256"
        }
      ],
      "name": "setRelayerPercentageFee",
      "outputs": [],
      "stateMutability": "nonpayable",
      "type": "function"
    },
    {
      "inputs": [
        {
          "internalType": "uint256",
          "name": "_rewardAmountInTDT",
          "type": "uint256"
        }
      ],
      "name": "setRewardAmountInTDT",
      "outputs": [],
      "stateMutability": "nonpayable",
      "type": "function"
    },
    {
      "inputs": [
        {
          "internalType": "uint256",
          "name": "_submissionGasUsed",
          "type": "uint256"
        }
      ],
      "name": "setSubmissionGasUsed",
      "outputs": [],
      "stateMutability": "nonpayable",
      "type": "function"
    },
    {
      "inputs": [
        {
          "internalType": "address",
          "name": "_TeleportDAOToken",
          "type": "address"
        }
      ],
      "name": "setTeleportDAOToken",
      "outputs": [],
      "stateMutability": "nonpayable",
      "type": "function"
    },
    {
      "inputs": [],
      "name": "submissionGasUsed",
      "outputs": [
        {
          "internalType": "uint256",
          "name": "",
          "type": "uint256"
        }
      ],
      "stateMutability": "view",
      "type": "function"
    },
    {
      "inputs": [
        {
          "internalType": "address",
          "name": "newOwner",
          "type": "address"
        }
      ],
      "name": "transferOwnership",
      "outputs": [],
      "stateMutability": "nonpayable",
      "type": "function"
    },
    {
      "inputs": [],
      "name": "unpauseRelay",
      "outputs": [],
      "stateMutability": "nonpayable",
      "type": "function"
    }
  ],
  "transactionHash": "0x49cf72f42ecd511430b20053cfa84be3821519362ca22f511e851f8b03e95772",
  "args": [
    "0x000000207e4c424e2611e4a28ddb9841f82b18de360cbbd8b5a9fa9b39a3665800000000ac97c9ac2e27e276b4aa8c931b2f89562b7166f9bb4fe1d8bdf5f1533a9cd246abd04964ffff001d3a20f795",
    2431165,
    "0x1b4a48bda8ce2da3a1a594b2887ae9b72ff17e784664ef941700000000000000",
    "0x167d89a98f1e2f0fa908395beea3be66b3c60a0d"
  ],
  "numDeployments": 1,
  "solcInputHash": "463f5f43c083bed99faf3aea31e51473",
  "bytecode": "0x60806040523480156200001157600080fd5b5060405162004a6438038062004a64833981016040819052620000349162000e6c565b838383836200004333620002b1565b600180556002805460ff191690556000620000866200006f868362000301602090811b6200117a17901c565b62ffffff19166200032760201b6200119e1760201c565b9050620000a48162ffffff1916620003c260201b620011f61760201c565b620000f65760405162461bcd60e51b815260206004820152601860248201527f426974636f696e52656c61793a206e756c6c20626c6f636b000000000000000060448201526064015b60405180910390fd5b6000620001148262ffffff1916620003d260201b620012031760201c565b600e8190556040805160a08101825260006020808301829052928201819052606082018190526080820152828152919250620001619062ffffff198516906200126562000436821b17901c565b816020018181525050620001868362ffffff19166200046560201b620012871760201c565b6040820152336001600160a01b0390811660608301908152600060808401818152898252600f602090815260408084208054600180820183559186528386208951600590920201908155838901519181019190915581880151600282015594516003860180546001600160a01b03191691909716179095559051600490930192909255848152601190915220869055620002236107e08762001037565b6200022f908762000fc4565b6000868152601160205260409020556200024a600362000494565b600386905560048690556200025f8462000547565b6200026c6101f4620005b0565b620002796107e062000651565b6009546200028790620006e4565b600a54600c556000600b55620002a0620493e062000777565b505050505050505050505062001084565b600080546001600160a01b038381166001600160a01b0319831681178455604051919092169283917f8be0079c531659141344cd1fd0a4f28419497f9722a3daafe3b4186f6b6457e09190a35050565b8151600090602084016200031e64ffffffffff85168284620007b8565b95945050505050565b600081816200034c815b8362ffffff19166200080460201b620012a91790919060201c565b50620003698462ffffff1916620008e860201b620013821760201c565b6001600160601b031660501462000397576200038f620008f760201b620013911760201c565b9250620003bb565b620003b860108562ffffff1916620008ff60201b620013991790919060201c565b92505b5050919050565b62ffffff1981811614155b919050565b600080620003e98360781c6001600160601b031690565b6001600160601b0316905060006200040a8460181c6001600160601b031690565b6001600160601b03169050604051602081838560025afa5060208160208360025afa5051949350505050565b6000816010620004468162000331565b50620003b862ffffff19851660046020620013ab62000911821b17811c565b6000816010620004758162000331565b50620003b862ffffff19851660246020620013ab62000911821b17811c565b60055460408051918252602082018390527fe7ff4c9746f87ab86154b3cb3bb52e1647f016783ae4e195496258eaa884c296910160405180910390a1600081118015620004e357506101b08111155b620005425760405162461bcd60e51b815260206004820152602860248201527f426974636f696e52656c61793a20696e76616c69642066696e616c697a6174696044820152676f6e20706172616d60c01b6064820152608401620000ed565b600555565b600d54604080516001600160a01b03928316815291831660208301527ffd88adf2dc0ac6ee5960f2f4273f25017bab8b5efa8889b3cf085ce645c293b2910160405180910390a1600d80546001600160a01b0319166001600160a01b0392909216919091179055565b60075460408051918252602082018390527f1957bdf4f6fe279cd1cb63c41461020488cecbdf8721d1a1c960bc57c7cddce8910160405180910390a16127108111156200064c5760405162461bcd60e51b8152602060048201526024808201527f426974636f696e52656c61793a2072656c6179206665652069732061626f7665604482015263040dac2f60e31b6064820152608401620000ed565b600755565b60095460408051918252602082018390527fd077b1717c042dc03e7eb68030220b62f703db305be2ffb5b9e1d91b639a63f9910160405180910390a160008111620006df5760405162461bcd60e51b815260206004820152601f60248201527f426974636f696e52656c61793a207a65726f2065706f6368206c656e677468006044820152606401620000ed565b600955565b600a5460408051918252602082018390527f74fc63a076510aaad1c9925c1575a3cd23bc28541d09501418a96b0a38335f53910160405180910390a160008111620007725760405162461bcd60e51b815260206004820152601d60248201527f426974636f696e52656c61793a207a65726f20626173652071756572790000006044820152606401620000ed565b600a55565b60085460408051918252602082018390527f7a20e935d503f4d2565dbc88569bbe136c1e2a59da068a1d1286f04512ecfff3910160405180910390a1600855565b600080620007c7838562000f7d565b9050604051811115620007d8575060005b80620007ec5762ffffff19915050620007fd565b5050606083811b8317901b811760181b5b9392505050565b600062000812838362000a79565b620008e157600062000835620008288560d81c90565b64ffffffffff1662000a9d565b9150600090506200084d64ffffffffff851662000a9d565b6040517f5479706520617373657274696f6e206661696c65642e20476f7420307800000060208201526001600160b01b031960b086811b8216603d8401526c05c408af0e0cac6e8cac84060f609b1b604784015283901b16605482015290925060009150605e0160405160208183030381529060405290508060405162461bcd60e51b8152600401620000ed919062000f48565b5090919050565b60181c6001600160601b031690565b62ffffff1990565b60d81b6001600160d81b039091161790565b600060ff82166200092557506000620007fd565b620009398460181c6001600160601b031690565b6001600160601b03166200095160ff84168562000f7d565b1115620009bc57620009a1620009708560781c6001600160601b031690565b6001600160601b03166200098d8660181c6001600160601b031690565b6001600160601b03168560ff861662000b57565b60405162461bcd60e51b8152600401620000ed919062000f48565b60208260ff16111562000a385760405162461bcd60e51b815260206004820152603a60248201527f54797065644d656d566965772f696e646578202d20417474656d70746564207460448201527f6f20696e646578206d6f7265207468616e2033322062797465730000000000006064820152608401620000ed565b60088202600062000a528660781c6001600160601b031690565b6001600160601b031690506000600160ff1b60001984011d91909501511695945050505050565b600064ffffffffff821662000a8e8460d81c90565b64ffffffffff16149392505050565b600080601f5b600f8160ff16111562000b0457600062000abf82600862000f98565b60ff1685901c905062000ad28162000c94565b61ffff16841793508160ff1660101462000aee57601084901b93505b5062000afc60018262000fde565b905062000aa3565b50600f5b60ff8160ff16101562000b515760ff600882021684901c62000b2a8162000c94565b61ffff16831792508160ff1660001462000b4657601083901b92505b506000190162000b08565b50915091565b6060600062000b668662000a9d565b91506000905062000b778662000a9d565b91506000905062000b888662000a9d565b91506000905062000b998662000a9d565b604080517f54797065644d656d566965772f696e646578202d204f76657272616e2074686560208201527f20766965772e20536c6963652069732061742030780000000000000000000000818301526001600160d01b031960d098891b811660558301526e040eed2e8d040d8cadccee8d04060f608b1b605b830181905297891b8116606a8301527f2e20417474656d7074656420746f20696e646578206174206f666673657420306070830152600f60fb1b609083015295881b861660918201526097810196909652951b90921660a68401525050601760f91b60ac8201528151808203608d01815260ad90910190915295945050505050565b600062000ca8600f600484901c1662000cc8565b60ff161760081b62ffff001662000cbf8262000cc8565b60ff1617919050565b600060f08083179060ff8216141562000ce6576030915050620003cd565b8060ff1660f1141562000cfe576031915050620003cd565b8060ff1660f2141562000d16576032915050620003cd565b8060ff1660f3141562000d2e576033915050620003cd565b8060ff1660f4141562000d46576034915050620003cd565b8060ff1660f5141562000d5e576035915050620003cd565b8060ff1660f6141562000d76576036915050620003cd565b8060ff1660f7141562000d8e576037915050620003cd565b8060ff1660f8141562000da6576038915050620003cd565b8060ff1660f9141562000dbe576039915050620003cd565b8060ff1660fa141562000dd6576061915050620003cd565b8060ff1660fb141562000dee576062915050620003cd565b8060ff1660fc141562000e06576063915050620003cd565b8060ff1660fd141562000e1e576064915050620003cd565b8060ff1660fe141562000e36576065915050620003cd565b8060ff1660ff141562000e4e576066915050620003cd565b50919050565b80516001600160a01b0381168114620003cd57600080fd5b6000806000806080858703121562000e82578384fd5b84516001600160401b038082111562000e99578586fd5b818701915087601f83011262000ead578586fd5b81518181111562000ec25762000ec26200106e565b604051601f8201601f19908116603f0116810190838211818310171562000eed5762000eed6200106e565b816040528281528a602084870101111562000f06578889fd5b62000f1983602083016020880162001004565b8098505050505050602085015192506040850151915062000f3d6060860162000e54565b905092959194509250565b600060208252825180602084015262000f6981604085016020870162001004565b601f01601f19169190910160400192915050565b6000821982111562000f935762000f9362001058565b500190565b600060ff821660ff84168160ff048111821515161562000fbc5762000fbc62001058565b029392505050565b60008282101562000fd95762000fd962001058565b500390565b600060ff821660ff84168082101562000ffb5762000ffb62001058565b90039392505050565b60005b838110156200102157818101518382015260200162001007565b8381111562001031576000848401525b50505050565b6000826200105357634e487b7160e01b81526012600452602481fd5b500690565b634e487b7160e01b600052601160045260246000fd5b634e487b7160e01b600052604160045260246000fd5b6139d080620010946000396000f3fe60806040526004361061021a5760003560e01c8063926d44e211610123578063c20dc664116100ab578063efbc7be41161006f578063efbc7be4146105bc578063f02f62fd146105d2578063f2fde38b146105f2578063fa041af514610612578063fd9c6e85146106285761021a565b8063c20dc6641461053d578063d0a8973914610553578063dc04442214610573578063e2761af014610593578063e3282524146105a95761021a565b8063ae6e5eb0116100f2578063ae6e5eb0146104a8578063ae96c2ae146104c8578063b36161bd146104dd578063b9bbd9bd146104fd578063b9e88ac11461051d5761021a565b8063926d44e21461042f5780639f1564141461045c578063a072bc5014610472578063a3db54eb146104885761021a565b806360b5c390116101a6578063715018a611610175578063715018a6146103a75780637fa637fc146103bc578063882a5ee0146103dc5780638da5cb5b146103f1578063901186bb1461040f5761021a565b806360b5c39014610331578063659416831461035157806365da41b914610371578063665b634f146103915761021a565b806354eea796116101ed57806354eea796146102ba57806357d775f8146102da5780635b732892146102f05780635b88a0e5146103065780635c975abb146103195761021a565b8063108f438d1461021f5780632f796d901461025c5780634354da2514610280578063465e7559146102a3575b600080fd5b34801561022b57600080fd5b50600d5461023f906001600160a01b031681565b6040516001600160a01b0390911681526020015b60405180910390f35b34801561026857600080fd5b5061027260045481565b604051908152602001610253565b61029361028e366004613449565b61063e565b6040519015158152602001610253565b3480156102af57600080fd5b506102b8610944565b005b3480156102c657600080fd5b506102b86102d5366004613431565b610978565b3480156102e657600080fd5b5061027260095481565b3480156102fc57600080fd5b50610272600b5481565b34801561031257600080fd5b5047610272565b34801561032557600080fd5b5060025460ff16610293565b34801561033d57600080fd5b5061027261034c366004613431565b6109ae565b34801561035d57600080fd5b506102b861036c366004613431565b6109c1565b34801561037d57600080fd5b5061029361038c3660046134a2565b6109f4565b34801561039d57600080fd5b5061027260075481565b3480156103b357600080fd5b506102b8610b18565b3480156103c857600080fd5b506102936103d736600461350b565b610b42565b3480156103e857600080fd5b50610272610c9e565b3480156103fd57600080fd5b506000546001600160a01b031661023f565b34801561041b57600080fd5b506102b861042a366004613431565b610d1f565b34801561043b57600080fd5b5061027261044a366004613431565b6000908152600f602052604090205490565b34801561046857600080fd5b50610272600c5481565b34801561047e57600080fd5b5061027260055481565b34801561049457600080fd5b506102b86104a3366004613431565b610d52565b3480156104b457600080fd5b506102936104c336600461350b565b610d85565b3480156104d457600080fd5b506102b8610dd9565b3480156104e957600080fd5b506102b86104f8366004613431565b610e0b565b34801561050957600080fd5b506102726105183660046135b9565b610e3e565b34801561052957600080fd5b506102b8610538366004613431565b610ed7565b34801561054957600080fd5b5061027260085481565b34801561055f57600080fd5b5061027261056e3660046135b9565b610f0a565b34801561057f57600080fd5b506102b861058e3660046133ea565b610f5b565b34801561059f57600080fd5b5061027260035481565b6102726105b73660046135b9565b610f8e565b3480156105c857600080fd5b50610272600e5481565b3480156105de57600080fd5b506102936105ed3660046134a2565b61108e565b3480156105fe57600080fd5b506102b861060d3660046133ea565b6110e2565b34801561061e57600080fd5b50610272600a5481565b34801561063457600080fd5b5061027260065481565b60006002600154141561066c5760405162461bcd60e51b815260040161066390613688565b60405180910390fd5b600260015561067d60025460ff1690565b1561069a5760405162461bcd60e51b815260040161066390613629565b856106f55760405162461bcd60e51b815260206004820152602560248201527f426974636f696e52656c61793a20747869642073686f756c64206265206e6f6e6044820152642d7a65726f60d81b6064820152608401610663565b6004546107039060016136bf565b60055461071090876136bf565b106107775760405162461bcd60e51b815260206004820152603160248201527f426974636f696e52656c61793a20626c6f636b206973206e6f742066696e616c604482015270697a6564206f6e207468652072656c617960781b6064820152608401610663565b6003548510156108025760405162461bcd60e51b815260206004820152604a60248201527f426974636f696e52656c61793a2074686520726571756573746564206865696760448201527f6874206973206e6f74207375626d6974746564206f6e207468652072656c61796064820152692028746f6f206f6c642960b01b608482015260a401610663565b6000858152600f60205260408120805461084a9190839061083357634e487b7160e01b600052603260045260246000fd5b906000526020600020906005020160040154611504565b6000878152600f6020526040812080549293509091829061087b57634e487b7160e01b600052603260045260246000fd5b906000526020600020906005020160020154905060006108e36108d8600089898080601f016020809104026020016040519081016040528093929190818152602001838380828437600092019190915250929392505061117a9050565b62ffffff191661158d565b604080518b8152602081018b90529081018590529091507f171c7e89f8a58af73276553913c8f63b7270aacd03134a80a0e1d46a6b783cd39060600160405180910390a1610933898383886115d3565b600180559998505050505050505050565b6000546001600160a01b0316331461096e5760405162461bcd60e51b815260040161066390613653565b61097661162d565b565b6000546001600160a01b031633146109a25760405162461bcd60e51b815260040161066390613653565b6109ab816116a2565b50565b60006109b982611733565b90505b919050565b6000546001600160a01b031633146109eb5760405162461bcd60e51b815260040161066390613653565b6109ab816117a3565b600060026001541415610a195760405162461bcd60e51b815260040161066390613688565b6002600155610a2a60025460ff1690565b15610a475760405162461bcd60e51b815260040161066390613629565b6000610a9b610a90600086868080601f016020809104026020016040519081016040528093929190818152602001838380828437600092019190915250929392505061117a9050565b62ffffff1916611834565b90506000610af1610ae6600089898080601f016020809104026020016040519081016040528093929190818152602001838380828437600092019190915250929392505061117a9050565b62ffffff191661119e565b9050610afd828261187a565b610b098183600061192c565b60018055979650505050505050565b6000546001600160a01b031633146109765760405162461bcd60e51b815260040161066390613653565b600060026001541415610b675760405162461bcd60e51b815260040161066390613688565b6002600155610b7860025460ff1690565b15610b955760405162461bcd60e51b815260040161066390613629565b6000610bde610ae660008a8a8080601f016020809104026020016040519081016040528093929190818152602001838380828437600092019190915250929392505061117a9050565b90506000610c29610ae6600089898080601f016020809104026020016040519081016040528093929190818152602001838380828437600092019190915250929392505061117a9050565b90506000610c74610a90600088888080601f016020809104026020016040519081016040528093929190818152602001838380828437600092019190915250929392505061117a9050565b9050610c81838383611c37565b610c8c838383611d19565b600180559a9950505050505050505050565b600d546040516370a0823160e01b81523060048201526000916001600160a01b0316906370a082319060240160206040518083038186803b158015610ce257600080fd5b505afa158015610cf6573d6000803e3d6000fd5b505050506040513d601f19601f82011682018060405250810190610d1a91906135a1565b905090565b6000546001600160a01b03163314610d495760405162461bcd60e51b815260040161066390613653565b6109ab81611d2f565b6000546001600160a01b03163314610d7c5760405162461bcd60e51b815260040161066390613653565b6109ab81611dce565b600060026001541415610daa5760405162461bcd60e51b815260040161066390613688565b60026001556000546001600160a01b03163314610b955760405162461bcd60e51b815260040161066390613653565b6000546001600160a01b03163314610e035760405162461bcd60e51b815260040161066390613653565b610976611e0f565b6000546001600160a01b03163314610e355760405162461bcd60e51b815260040161066390613653565b6109ab81611e89565b6000333b15610e8f5760405162461bcd60e51b815260206004820152601e60248201527f426974636f696e52656c61793a206164647220697320636f6e747261637400006044820152606401610663565b6000838152600f60205260409020805483908110610ebd57634e487b7160e01b600052603260045260246000fd5b906000526020600020906005020160000154905092915050565b6000546001600160a01b03163314610f015760405162461bcd60e51b815260040161066390613653565b6109ab81611f39565b6000828152600f602052604081208054610f54919084908110610f3d57634e487b7160e01b600052603260045260246000fd5b906000526020600020906005020160040154611f7a565b9392505050565b6000546001600160a01b03163314610f855760405162461bcd60e51b815260040161066390613653565b6109ab81611fcb565b6000828152600f6020526040812080548291610fc2918590811061083357634e487b7160e01b600052603260045260246000fd5b6000858152600f6020526040902080549192507f171c7e89f8a58af73276553913c8f63b7270aacd03134a80a0e1d46a6b783cd3918590811061101557634e487b7160e01b600052603260045260246000fd5b6000918252602091829020600590910201546040805191825291810187905290810183905260600160405180910390a16000848152600f6020526040902080548490811061107357634e487b7160e01b600052603260045260246000fd5b90600052602060002090600502016000015491505092915050565b6000600260015414156110b35760405162461bcd60e51b815260040161066390613688565b60026001556000546001600160a01b03163314610a475760405162461bcd60e51b815260040161066390613653565b6000546001600160a01b0316331461110c5760405162461bcd60e51b815260040161066390613653565b6001600160a01b0381166111715760405162461bcd60e51b815260206004820152602660248201527f4f776e61626c653a206e6577206f776e657220697320746865207a65726f206160448201526564647265737360d01b6064820152608401610663565b6109ab81612034565b81516000906020840161119564ffffffffff85168284612084565b95945050505050565b600081816111b4815b62ffffff198416906112a9565b506050601885901c6001600160601b0316146111d9576111d2611391565b92506111ef565b6111ec60105b62ffffff19861690611399565b92505b5050919050565b62ffffff19908116141590565b6000806112198360781c6001600160601b031690565b6001600160601b0316905060006112398460181c6001600160601b031690565b6001600160601b03169050604051602081838560025afa5060208160208360025afa5051949350505050565b6000816010611273816111a7565b506111ec62ffffff198516600460206113ab565b6000816010611295816111a7565b506111ec62ffffff198516602460206113ab565b60006112b583836120c8565b61137b5760006112d46112c88560d81c90565b64ffffffffff166120eb565b91505060006112e98464ffffffffff166120eb565b6040517f5479706520617373657274696f6e206661696c65642e20476f7420307800000060208201526001600160b01b031960b086811b8216603d8401526c05c408af0e0cac6e8cac84060f609b1b604784015283901b16605482015290925060009150605e0160405160208183030381529060405290508060405162461bcd60e51b815260040161066391906135f6565b5090919050565b60181c6001600160601b031690565b62ffffff1990565b60d81b6001600160d81b039091161790565b600060ff82166113bd57506000610f54565b6113d08460181c6001600160601b031690565b6001600160601b03166113e660ff8416856136bf565b111561144a576114316114028560781c6001600160601b031690565b6001600160601b031661141e8660181c6001600160601b031690565b6001600160601b0316858560ff16612197565b60405162461bcd60e51b815260040161066391906135f6565b60208260ff1611156114c45760405162461bcd60e51b815260206004820152603a60248201527f54797065644d656d566965772f696e646578202d20417474656d70746564207460448201527f6f20696e646578206d6f7265207468616e2033322062797465730000000000006064820152608401610663565b6008820260006114dd8660781c6001600160601b031690565b6001600160601b03169490940151600160ff1b600019929092019190911d16949350505050565b60006001600b600082825461151991906136bf565b90915550611528905082611f7a565b90508034101561157a5760405162461bcd60e51b815260206004820152601f60248201527f426974636f696e52656c61793a20666565206973206e6f7420656e6f756768006044820152606401610663565b6109bc336115888334613898565b6122c1565b6000818161159a816111a7565b506115b36020601886901c6001600160601b0316613948565b6001600160601b0316156115c9576111d2611391565b6111ec60146111df565b60008260146115e1816111a7565b5085871480156115ef575083155b80156116065750601885901c6001600160601b0316155b156116145760019250611623565b611620878688876123da565b92505b5050949350505050565b60025460ff16156116505760405162461bcd60e51b815260040161066390613629565b6002805460ff191660011790557f62e78cea01bee320cd4e420270b5ea74000d11b0c9f74754ebdbfc544b05a2586116853390565b6040516001600160a01b03909116815260200160405180910390a1565b60095460408051918252602082018390527fd077b1717c042dc03e7eb68030220b62f703db305be2ffb5b9e1d91b639a63f9910160405180910390a16000811161172e5760405162461bcd60e51b815260206004820152601f60248201527f426974636f696e52656c61793a207a65726f2065706f6368206c656e677468006044820152606401610663565b600955565b60008181526011602052604081205461178e5760405162461bcd60e51b815260206004820152601b60248201527f426974636f696e52656c61793a20756e6b6e6f776e20626c6f636b00000000006044820152606401610663565b506000818152601160205260409020546109bc565b600a5460408051918252602082018390527f74fc63a076510aaad1c9925c1575a3cd23bc28541d09501418a96b0a38335f53910160405180910390a16000811161182f5760405162461bcd60e51b815260206004820152601d60248201527f426974636f696e52656c61793a207a65726f20626173652071756572790000006044820152606401610663565b600a55565b60008181611841816111a7565b5061185a6050601886901c6001600160601b0316613948565b6001600160601b031615611870576111d2611391565b6111ec60116111df565b61188962ffffff1983166111f6565b80156118b357506118a86050601884901c6001600160601b0316613948565b6001600160601b0316155b80156118c957506118c962ffffff1982166111f6565b80156118e257506050601882901c6001600160601b0316145b6119285760405162461bcd60e51b81526020600482015260176024820152762134ba31b7b4b72932b630bc9d103bb937b733903632b760491b6044820152606401610663565b5050565b60008061193e62ffffff198616611203565b9050600061194b82611733565b9050600061196d61196262ffffff198816836124a7565b62ffffff19166124e3565b905060008060005b61198d605060188b901c6001600160601b0316613716565b6001600160601b0316811015611c275760006119af62ffffff198b16836124a7565b90506119bb82876136bf565b6119c69060016136bf565b93506119d762ffffff198216611203565b60008181526010602052604090205490935015611a515760405162461bcd60e51b815260206004820152603260248201527f426974636f696e52656c61793a2074686520626c6f636b2068656164657220656044820152717869737473206f6e207468652072656c617960701b6064820152608401610663565b84611a6162ffffff1983166124e3565b14611ac05760405162461bcd60e51b815260206004820152602960248201527f426974636f696e52656c61793a20746172676574206368616e67656420756e65604482015268787065637465646c7960b81b6064820152608401610663565b611ad062ffffff198216886125af565b611b395760405162461bcd60e51b815260206004820152603460248201527f426974636f696e52656c61793a206865616465727320646f206e6f7420666f726044820152733690309031b7b739b4b9ba32b73a1031b430b4b760611b6064820152608401610663565b84611b43846125d2565b1115611ba35760405162461bcd60e51b815260206004820152602960248201527f426974636f696e52656c61793a2068656164657220776f726b20697320696e736044820152681d59999a58da595b9d60ba1b6064820152608401610663565b60008381526010602090815260408083208a905560119091529020849055336001600160a01b031687857ffb8fff3e2daa665d496373ced291b62aba4162f24632a1597e286621016e9a1f86604051611bfe91815260200190565b60405180910390a4611c10818561270c565b829650508080611c1f90613919565b915050611975565b5060019998505050505050505050565b611c4662ffffff1984166111f6565b8015611c5f57506050601884901c6001600160601b0316145b8015611c755750611c7562ffffff1983166111f6565b8015611c8e57506050601883901c6001600160601b0316145b8015611ca45750611ca462ffffff1982166111f6565b8015611cce5750611cc36050601883901c6001600160601b0316613948565b6001600160601b0316155b611d145760405162461bcd60e51b81526020600482015260176024820152762134ba31b7b4b72932b630bc9d103bb937b733903632b760491b6044820152606401610663565b505050565b6000611d278383600161192c565b949350505050565b60075460408051918252602082018390527f1957bdf4f6fe279cd1cb63c41461020488cecbdf8721d1a1c960bc57c7cddce8910160405180910390a1612710811115611dc95760405162461bcd60e51b8152602060048201526024808201527f426974636f696e52656c61793a2072656c6179206665652069732061626f7665604482015263040dac2f60e31b6064820152608401610663565b600755565b60085460408051918252602082018390527f7a20e935d503f4d2565dbc88569bbe136c1e2a59da068a1d1286f04512ecfff3910160405180910390a1600855565b60025460ff16611e585760405162461bcd60e51b815260206004820152601460248201527314185d5cd8589b194e881b9bdd081c185d5cd95960621b6044820152606401610663565b6002805460ff191690557f5db9ee0a495bf2e6ff9c91a7834c1ba4fdd244a5e8aa4e537bd38aeae4b073aa33611685565b60055460408051918252602082018390527fe7ff4c9746f87ab86154b3cb3bb52e1647f016783ae4e195496258eaa884c296910160405180910390a1600081118015611ed757506101b08111155b611f345760405162461bcd60e51b815260206004820152602860248201527f426974636f696e52656c61793a20696e76616c69642066696e616c697a6174696044820152676f6e20706172616d60c01b6064820152608401610663565b600555565b60065460408051918252602082018390527fe43de8c98a3401a046e4ea741059d335faa482e1262eb6a888a2ca2a1da3d474910160405180910390a1600655565b6000612710600c54600954600754612710611f9591906136bf565b85600854611fa39190613850565b611fad9190613850565b611fb79190613850565b611fc19190613702565b6109b99190613702565b600d54604080516001600160a01b03928316815291831660208301527ffd88adf2dc0ac6ee5960f2f4273f25017bab8b5efa8889b3cf085ce645c293b2910160405180910390a1600d80546001600160a01b0319166001600160a01b0392909216919091179055565b600080546001600160a01b038381166001600160a01b0319831681178455604051919092169283917f8be0079c531659141344cd1fd0a4f28419497f9722a3daafe3b4186f6b6457e09190a35050565b60008061209183856136bf565b90506040518111156120a1575060005b806120b35762ffffff19915050610f54565b5050606092831b9190911790911b1760181b90565b60008164ffffffffff166120dc8460d81c90565b64ffffffffff16149392505050565b600080601f5b600f8160ff16111561214957600061210a82600861386f565b60ff1685901c905061211b81612888565b61ffff16841793508160ff1660101461213657601084901b93505b506121426001826138af565b90506120f1565b50600f5b60ff8160ff1610156121915760ff600882021684901c61216c81612888565b61ffff16831792508160ff1660001461218757601083901b92505b506000190161214d565b50915091565b606060006121a4866120eb565b91505060006121b2866120eb565b91505060006121c0866120eb565b91505060006121ce866120eb565b604080517f54797065644d656d566965772f696e646578202d204f76657272616e20746865602082015274040ecd2caee5c40a6d8d2c6ca40d2e640c2e84060f605b1b818301526001600160d01b031960d098891b811660558301526e040eed2e8d040d8cadccee8d04060f608b1b605b830181905297891b8116606a8301527f2e20417474656d7074656420746f20696e646578206174206f666673657420306070830152600f60fb1b609083015295881b861660918201526097810196909652951b90921660a68401525050601760f91b60ac8201528151808203608d01815260ad90910190915295945050505050565b804710156123115760405162461bcd60e51b815260206004820152601d60248201527f416464726573733a20696e73756666696369656e742062616c616e63650000006044820152606401610663565b6000826001600160a01b03168260405160006040518083038185875af1925050503d806000811461235e576040519150601f19603f3d011682016040523d82523d6000602084013e612363565b606091505b5050905080611d145760405162461bcd60e51b815260206004820152603a60248201527f416464726573733a20756e61626c6520746f2073656e642076616c75652c207260448201527f6563697069656e74206d617920686176652072657665727465640000000000006064820152608401610663565b60008360146123e8816111a7565b5060006124036020601889901c6001600160601b0316613716565b6001600160601b031690508061241e57858814935050611623565b848860005b8381101561249757600061244a61243b836020613850565b62ffffff198d169060206113ab565b9050612457600285613934565b600114156124705761246981846128b8565b925061247d565b61247a83826128b8565b92505b5060019290921c918061248f81613919565b915050612423565b5090961498975050505050505050565b60008260116124b5816111a7565b5060006124c3856050613850565b90506124d962ffffff19871682605060106128e4565b9695505050505050565b60008160106124f1816111a7565b50600061250762ffffff19861660486003612954565b9050600261251e62ffffff198716604b6001612969565b116125765760405162461bcd60e51b815260206004820152602260248201527f566965774254433a20696e76616c69642074617267657420646966666963756c604482015261747960f01b6064820152608401610663565b6000600361258d62ffffff198816604b6001612969565b6125979190613898565b90506125a581610100613782565b6124d99083613850565b60008260106125bd816111a7565b50836125c886611265565b1495945050505050565b600881811c7eff00ff00ff00ff00ff00ff00ff00ff00ff00ff00ff00ff00ff00ff00ff00ff167fff00ff00ff00ff00ff00ff00ff00ff00ff00ff00ff00ff00ff00ff00ff00ff009290911b9190911617601081811c7dffff0000ffff0000ffff0000ffff0000ffff0000ffff0000ffff0000ffff167fffff0000ffff0000ffff0000ffff0000ffff0000ffff0000ffff0000ffff00009290911b9190911617602081811c7bffffffff00000000ffffffff00000000ffffffff00000000ffffffff167fffffffff00000000ffffffff00000000ffffffff00000000ffffffff000000009290911b9190911617604081811c77ffffffffffffffff0000000000000000ffffffffffffffff1677ffffffffffffffff0000000000000000ffffffffffffffff199290911b9190911617608081811c91901b1790565b60045460055461271c90836136bf565b116127775760405162461bcd60e51b815260206004820152602560248201527f426974636f696e52656c61793a20626c6f636b2068656164657220697320746f6044820152641bc81bdb1960da1b6064820152608401610663565b6040805160a0810182526000808252602082018190529181018290526060810182905260808101919091526127b162ffffff198416611203565b81526127c262ffffff198416611265565b60208201526127d662ffffff198416611287565b6040820152336001600160a01b03908116606083019081523a608084019081526000858152600f602090815260408083208054600180820183559185529383902088516005909502019384559187015191830191909155850151600282015591516003830180546001600160a01b0319169190941617909255905160049182015554821115611d145760016004600082825461287291906136bf565b909155506128809050612999565b611d146129ce565b600061289a60048360ff16901c612cd3565b60ff161760081b62ffff00166128af82612cd3565b60ff1617919050565b600060405183815282602082015260208160408360025afa5060208160208360025afa50519392505050565b6000806128fa8660781c6001600160601b031690565b6001600160601b0316905061290e86612e3f565b8461291987846136bf565b61292391906136bf565b11156129365762ffffff19915050611d27565b61294085826136bf565b90506124d98364ffffffffff168286612084565b6000611d276129648585856113ab565b6125d2565b60006129768260206138af565b61298190600861386f565b60ff1661298f8585856113ab565b901c949350505050565b6009546004546129a99190613934565b61097657600a54600b54106129c057600b546129c4565b600a545b600c556000600b55565b6005546003546004546129e19190613898565b106109765760055460045460005b8215612a70576000828152600f60205260408120805483908110612a2357634e487b7160e01b600052603260045260246000fd5b9060005260206000209060050201600101549050612a4d81600185612a489190613898565b612e80565b915083612a5981613902565b9450508280612a6790613902565b935050506129ef565b6000828152600f60205260409020805482908110612a9e57634e487b7160e01b600052603260045260246000fd5b9060005260206000209060050201600f6000848152602001908152602001600020600081548110612adf57634e487b7160e01b600052603260045260246000fd5b600091825260208083208454600590930201918255600180850154818401556002808601549084015560038086015490840180546001600160a01b0319166001600160a01b039092169190911790556004948501549490920193909355848252600f90925260409020541115612b5857612b5882612efe565b6000828152600f6020526040812080548291612bad918390612b8a57634e487b7160e01b600052603260045260246000fd5b60009182526020909120600360059092020101546001600160a01b031685612fa2565b6000868152600f6020526040812080549395509193509091612bdf57634e487b7160e01b600052603260045260246000fd5b6000918252602080832060036005909302019190910154868352600f9091526040822080546001600160a01b039092169287927f4fec6ffa2052e80db9daadc2384a8f634057472e28ea7f1bd3eebfc92b5b0f8e929190612c5057634e487b7160e01b600052603260045260246000fd5b906000526020600020906005020160000154600f6000898152602001908152602001600020600081548110612c9557634e487b7160e01b600052603260045260246000fd5b600091825260209182902060016005909202010154604080519384529183015281018690526060810185905260800160405180910390a35050505050565b600060f08083179060ff82161415612cef5760309150506109bc565b8060ff1660f11415612d055760319150506109bc565b8060ff1660f21415612d1b5760329150506109bc565b8060ff1660f31415612d315760339150506109bc565b8060ff1660f41415612d475760349150506109bc565b8060ff1660f51415612d5d5760359150506109bc565b8060ff1660f61415612d735760369150506109bc565b8060ff1660f71415612d895760379150506109bc565b8060ff1660f81415612d9f5760389150506109bc565b8060ff1660f91415612db55760399150506109bc565b8060ff1660fa1415612dcb5760619150506109bc565b8060ff1660fb1415612de15760629150506109bc565b8060ff1660fc1415612df75760639150506109bc565b8060ff1660fd1415612e0d5760649150506109bc565b8060ff1660fe1415612e235760659150506109bc565b8060ff1660ff1415612e395760669150506109bc565b50919050565b6000612e548260181c6001600160601b031690565b612e678360781c6001600160601b031690565b612e7191906136d7565b6001600160601b031692915050565b6000805b6000838152600f6020526040902054811015612ef7576000838152600f60205260409020805482908110612ec857634e487b7160e01b600052603260045260246000fd5b906000526020600020906005020160000154841415612ee5578091505b80612eef81613919565b915050612e84565b5092915050565b6000818152600f6020526040812054612f1990600190613898565b90505b8015611928576000828152600f60205260409020805480612f4d57634e487b7160e01b600052603160045260246000fd5b6000828152602081206005600019909301928302018181556001818101839055600282018390556003820180546001600160a01b03191690556004909101919091559155612f9b9082613898565b9050612f1c565b6000806000612710600754612710612fba91906136bf565b6000868152600f602052604081208054909190612fe757634e487b7160e01b600052603260045260246000fd5b9060005260206000209060050201600401546008546130069190613850565b6130109190613850565b61301a9190613702565b600d549091506000906001600160a01b0316156130af57600d546040516370a0823160e01b81523060048201526001600160a01b03909116906370a082319060240160206040518083038186803b15801561307457600080fd5b505afa158015613088573d6000803e3d6000fd5b505050506040513d601f19601f820116820180604052508101906130ac91906135a1565b90505b600081600654111580156130c557506000600654115b156130eb57600654600d546130e7916001600160a01b039091169089906131a2565b5060015b600083471180156130fc5750600084115b15613155576040516001600160a01b038916908590600081818185875af1925050503d806000811461314a576040519150601f19603f3d011682016040523d82523d6000602084013e61314f565b606091505b50909150505b801561317a57816131685783600061316d565b836006545b955095505050505061319b565b816131875760008061318d565b60006006545b60ff90911696509450505050505b9250929050565b604080516001600160a01b03848116602483015260448083018590528351808403909101815260649092018352602080830180516001600160e01b031663a9059cbb60e01b17905283518085019094528084527f5361666545524332303a206c6f772d6c6576656c2063616c6c206661696c656490840152611d14928692916000916132329185169084906132af565b805190915015611d1457808060200190518101906132509190613411565b611d145760405162461bcd60e51b815260206004820152602a60248201527f5361666545524332303a204552433230206f7065726174696f6e20646964206e6044820152691bdd081cdd58d8d9595960b21b6064820152608401610663565b6060611d27848460008585843b6133085760405162461bcd60e51b815260206004820152601d60248201527f416464726573733a2063616c6c20746f206e6f6e2d636f6e74726163740000006044820152606401610663565b600080866001600160a01b0316858760405161332491906135da565b60006040518083038185875af1925050503d8060008114613361576040519150601f19603f3d011682016040523d82523d6000602084013e613366565b606091505b509150915061162082828660608315613380575081610f54565b8251156133905782518084602001fd5b8160405162461bcd60e51b815260040161066391906135f6565b60008083601f8401126133bb578182fd5b50813567ffffffffffffffff8111156133d2578182fd5b60208301915083602082850101111561319b57600080fd5b6000602082840312156133fb578081fd5b81356001600160a01b0381168114610f54578182fd5b600060208284031215613422578081fd5b81518015158114610f54578182fd5b600060208284031215613442578081fd5b5035919050565b600080600080600060808688031215613460578081fd5b8535945060208601359350604086013567ffffffffffffffff811115613484578182fd5b613490888289016133aa565b96999598509660600135949350505050565b600080600080604085870312156134b7578384fd5b843567ffffffffffffffff808211156134ce578586fd5b6134da888389016133aa565b909650945060208701359150808211156134f2578384fd5b506134ff878288016133aa565b95989497509550505050565b60008060008060008060608789031215613523578081fd5b863567ffffffffffffffff8082111561353a578283fd5b6135468a838b016133aa565b9098509650602089013591508082111561355e578283fd5b61356a8a838b016133aa565b90965094506040890135915080821115613582578283fd5b5061358f89828a016133aa565b979a9699509497509295939492505050565b6000602082840312156135b2578081fd5b5051919050565b600080604083850312156135cb578182fd5b50508035926020909101359150565b600082516135ec8184602087016138d2565b9190910192915050565b60006020825282518060208401526136158160408501602087016138d2565b601f01601f19169190910160400192915050565b60208082526010908201526f14185d5cd8589b194e881c185d5cd95960821b604082015260600190565b6020808252818101527f4f776e61626c653a2063616c6c6572206973206e6f7420746865206f776e6572604082015260600190565b6020808252601f908201527f5265656e7472616e637947756172643a207265656e7472616e742063616c6c00604082015260600190565b600082198211156136d2576136d261396e565b500190565b60006001600160601b038083168185168083038211156136f9576136f961396e565b01949350505050565b60008261371157613711613984565b500490565b60006001600160601b038084168061373057613730613984565b92169190910492915050565b80825b600180861161374e5750613779565b8187048211156137605761376061396e565b8086161561376d57918102915b9490941c93800261373f565b94509492505050565b6000610f54600019848460008261379b57506001610f54565b816137a857506000610f54565b81600181146137be57600281146137c8576137f5565b6001915050610f54565b60ff8411156137d9576137d961396e565b6001841b9150848211156137ef576137ef61396e565b50610f54565b5060208310610133831016604e8410600b8410161715613828575081810a838111156138235761382361396e565b610f54565b613835848484600161373c565b8086048211156138475761384761396e565b02949350505050565b600081600019048311821515161561386a5761386a61396e565b500290565b600060ff821660ff84168160ff04811182151516156138905761389061396e565b029392505050565b6000828210156138aa576138aa61396e565b500390565b600060ff821660ff8416808210156138c9576138c961396e565b90039392505050565b60005b838110156138ed5781810151838201526020016138d5565b838111156138fc576000848401525b50505050565b6000816139115761391161396e565b506000190190565b600060001982141561392d5761392d61396e565b5060010190565b60008261394357613943613984565b500690565b60006001600160601b038084168061396257613962613984565b92169190910692915050565b634e487b7160e01b600052601160045260246000fd5b634e487b7160e01b600052601260045260246000fdfea26469706673582212207035a789e5e86e58f7db79ae2e43fd22679f11b3b95ff1d0bfa0881e67192ebf64736f6c63430008020033",
  "devdoc": {
    "kind": "dev",
    "methods": {
      "addHeaders(bytes,bytes)": {
        "details": "Checks integrity and consistency of the header chain",
        "params": {
          "_anchor": "The header immediately preceeding the new chain",
          "_headers": "A tightly-packed list of 80-byte Bitcoin headers"
        },
        "returns": {
          "_0": "True if successfully written, error otherwise"
        }
      },
      "addHeadersWithRetarget(bytes,bytes,bytes)": {
        "details": "Checks the retarget, the heights, and the linkage",
        "params": {
          "_headers": "A tightly-packed list of 80-byte Bitcoin headers",
          "_oldPeriodEndHeader": "The last header in the difficulty period being closed (anchor of new headers)",
          "_oldPeriodStartHeader": "The first header in the difficulty period being closed"
        },
        "returns": {
          "_0": "True if successfully written, error otherwise"
        }
      },
      "checkTxProof(bytes32,uint256,bytes,uint256)": {
        "details": "Checks if the block is finalized, and Merkle proof is valid",
        "params": {
          "_blockHeight": "of the desired tx",
          "_index": "of the tx in Merkle tree",
          "_intermediateNodes": "Part of the Merkle tree from the tx to the root in LE form (called Merkle proof)",
          "_txid": "Desired tx Id in LE form"
        },
        "returns": {
          "_0": "True if the provided tx is confirmed on Bitcoin"
        }
      },
      "constructor": {
        "details": "Same as BitcoinRelay contract, but some retargeting checks has been removed"
      },
      "findHeight(bytes32)": {
        "details": "Fails if the header is unknown",
        "params": {
          "_hash": "The header hash to search for"
        },
        "returns": {
          "_0": "The height of the header"
        }
      },
      "getBlockHeaderFee(uint256,uint256)": {
        "params": {
          "_height": "of the desired block header",
          "_index": "of the desired block header in that height"
        },
        "returns": {
          "_0": "Block header submission gas price"
        }
      },
      "getBlockHeaderHash(uint256,uint256)": {
        "details": "It cannot be called by other contracts",
        "params": {
          "_height": "of the desired block header",
          "_index": "of the desired block header in that height"
        },
        "returns": {
          "_0": "Block header's hash"
        }
      },
      "getBlockHeaderHashContract(uint256,uint256)": {
        "details": "Caller should pay the query fee"
      },
      "getNumberOfSubmittedHeaders(uint256)": {
        "details": "This shows the number of temporary forks in that specific height",
        "params": {
          "_height": "The desired height of the blockchain"
        },
        "returns": {
          "_0": "Number of block headers stored in a height"
        }
      },
      "owner()": {
        "details": "Returns the address of the current owner."
      },
      "pauseRelay()": {
        "details": "Only functions with whenPaused modifier can be called"
      },
      "paused()": {
        "details": "Returns true if the contract is paused, and false otherwise."
      },
      "renounceOwnership()": {
        "details": "Leaves the contract without owner. It will not be possible to call `onlyOwner` functions anymore. Can only be called by the current owner. NOTE: Renouncing ownership will leave the contract without an owner, thereby removing any functionality that is only available to the owner."
      },
      "setBaseQueries(uint256)": {
        "params": {
          "_baseQueries": "The base number of queries we assume in each epoch                     This prevents query fee to grow significantly"
        }
      },
      "setEpochLength(uint256)": {
        "params": {
          "_epochLength": "The length of epochs used for estimating the query fee"
        }
      },
      "setFinalizationParameter(uint256)": {
        "details": "Bigger finalization parameter increases security but also increases the delay",
        "params": {
          "_finalizationParameter": "The finalization parameter of Bitcoin"
        }
      },
      "setRelayerPercentageFee(uint256)": {
        "details": "A percentage of the submission gas used goes to Relayers as reward",
        "params": {
          "_relayerPercentageFee": "New percentage fee"
        }
      },
      "setRewardAmountInTDT(uint256)": {
        "details": "This award is for the Relayer who submitted a finalized block header",
        "params": {
          "_rewardAmountInTDT": "The amount of reward in TDT"
        }
      },
      "setSubmissionGasUsed(uint256)": {
        "params": {
          "_submissionGasUsed": "The gas used by Relayers for submitting a block header"
        }
      },
      "setTeleportDAOToken(address)": {
        "params": {
          "_TeleportDAOToken": "The TeleportDAO token (TDT) address"
        }
      },
      "transferOwnership(address)": {
        "details": "Transfers ownership of the contract to a new account (`newOwner`). Can only be called by the current owner."
      },
      "unpauseRelay()": {
        "details": "Only functions with whenNotPaused modifier can be called"
      }
    },
    "version": 1
  },
  "userdoc": {
    "events": {
      "BlockAdded(uint256,bytes32,bytes32,address)": {
        "notice": "Emits when a block header is added"
      },
      "BlockFinalized(uint256,bytes32,bytes32,address,uint256,uint256)": {
        "notice": "Emits when a block header gets finalized"
      },
      "NewQuery(bytes32,uint256,uint256)": {
        "notice": "Emits when inclusion of a tx is queried"
      }
    },
    "kind": "user",
    "methods": {
      "addHeaders(bytes,bytes)": {
        "notice": "Adds headers to storage after validating"
      },
      "addHeadersWithRetarget(bytes,bytes,bytes)": {
        "notice": "Adds headers to storage, performs additional validation of retarget"
      },
      "availableTDT()": {
        "notice": "Getter for available TDT in Relay treasury"
      },
      "availableTNT()": {
        "notice": "Getter for available target native token (TNT) in Relay treasury"
      },
      "checkTxProof(bytes32,uint256,bytes,uint256)": {
        "notice": "Checks if a tx is included and finalized on Bitcoin"
      },
      "constructor": {
        "notice": "Gives a starting point for the relay"
      },
      "findHeight(bytes32)": {
        "notice": "Finds the height of a header by its hash"
      },
      "getBlockHeaderFee(uint256,uint256)": {
        "notice": "Getter for a specific block header submission gas price"
      },
      "getBlockHeaderHash(uint256,uint256)": {
        "notice": "Getter for a specific block header's hash in the stored chain"
      },
      "getBlockHeaderHashContract(uint256,uint256)": {
        "notice": "Same as getBlockHeaderHash, but can be called by other contracts"
      },
      "getNumberOfSubmittedHeaders(uint256)": {
        "notice": "Getter for the number of submitted block headers in a height"
      },
      "ownerAddHeaders(bytes,bytes)": {
        "notice": "Same as addHeaders, but can only be called by owner even if contract is paused         It will be used if a fork happend"
      },
      "ownerAddHeadersWithRetarget(bytes,bytes,bytes)": {
        "notice": "Same as addHeadersWithRetarget, but can only be called by owner even if contract is paused         It will be used if a fork happend"
      },
      "pauseRelay()": {
        "notice": "Pauses the Relay"
      },
      "setBaseQueries(uint256)": {
        "notice": "External setter for baseQueries"
      },
      "setEpochLength(uint256)": {
        "notice": "External setter for epochLength"
      },
      "setFinalizationParameter(uint256)": {
        "notice": "External setter for finalizationParameter"
      },
      "setRelayerPercentageFee(uint256)": {
        "notice": "External setter for relayerPercentageFee"
      },
      "setRewardAmountInTDT(uint256)": {
        "notice": "External setter for rewardAmountInTDT"
      },
      "setSubmissionGasUsed(uint256)": {
        "notice": "External setter for submissionGasUsed"
      },
      "setTeleportDAOToken(address)": {
        "notice": "External setter for TeleportDAO token"
      },
      "unpauseRelay()": {
        "notice": "Unpauses the relay"
      }
    },
    "version": 1
  },
  "storageLayout": {
    "storage": [
      {
        "astId": 7,
        "contract": "contracts/relay/BitcoinRelayTestnet.sol:BitcoinRelayTestnet",
        "label": "_owner",
        "offset": 0,
        "slot": "0",
        "type": "t_address"
      },
      {
        "astId": 206,
        "contract": "contracts/relay/BitcoinRelayTestnet.sol:BitcoinRelayTestnet",
        "label": "_status",
        "offset": 0,
        "slot": "1",
        "type": "t_uint256"
      },
      {
        "astId": 121,
        "contract": "contracts/relay/BitcoinRelayTestnet.sol:BitcoinRelayTestnet",
        "label": "_paused",
        "offset": 0,
        "slot": "2",
        "type": "t_bool"
      },
      {
        "astId": 5323,
        "contract": "contracts/relay/BitcoinRelayTestnet.sol:BitcoinRelayTestnet",
        "label": "initialHeight",
        "offset": 0,
        "slot": "3",
        "type": "t_uint256"
      },
      {
        "astId": 5326,
        "contract": "contracts/relay/BitcoinRelayTestnet.sol:BitcoinRelayTestnet",
        "label": "lastSubmittedHeight",
        "offset": 0,
        "slot": "4",
        "type": "t_uint256"
      },
      {
        "astId": 5329,
        "contract": "contracts/relay/BitcoinRelayTestnet.sol:BitcoinRelayTestnet",
        "label": "finalizationParameter",
        "offset": 0,
        "slot": "5",
        "type": "t_uint256"
      },
      {
        "astId": 5332,
        "contract": "contracts/relay/BitcoinRelayTestnet.sol:BitcoinRelayTestnet",
        "label": "rewardAmountInTDT",
        "offset": 0,
        "slot": "6",
        "type": "t_uint256"
      },
      {
        "astId": 5335,
        "contract": "contracts/relay/BitcoinRelayTestnet.sol:BitcoinRelayTestnet",
        "label": "relayerPercentageFee",
        "offset": 0,
        "slot": "7",
        "type": "t_uint256"
      },
      {
        "astId": 5338,
        "contract": "contracts/relay/BitcoinRelayTestnet.sol:BitcoinRelayTestnet",
        "label": "submissionGasUsed",
        "offset": 0,
        "slot": "8",
        "type": "t_uint256"
      },
      {
        "astId": 5341,
        "contract": "contracts/relay/BitcoinRelayTestnet.sol:BitcoinRelayTestnet",
        "label": "epochLength",
        "offset": 0,
        "slot": "9",
        "type": "t_uint256"
      },
      {
        "astId": 5344,
        "contract": "contracts/relay/BitcoinRelayTestnet.sol:BitcoinRelayTestnet",
        "label": "baseQueries",
        "offset": 0,
        "slot": "10",
        "type": "t_uint256"
      },
      {
        "astId": 5347,
        "contract": "contracts/relay/BitcoinRelayTestnet.sol:BitcoinRelayTestnet",
        "label": "currentEpochQueries",
        "offset": 0,
        "slot": "11",
        "type": "t_uint256"
      },
      {
        "astId": 5350,
        "contract": "contracts/relay/BitcoinRelayTestnet.sol:BitcoinRelayTestnet",
        "label": "lastEpochQueries",
        "offset": 0,
        "slot": "12",
        "type": "t_uint256"
      },
      {
        "astId": 5353,
        "contract": "contracts/relay/BitcoinRelayTestnet.sol:BitcoinRelayTestnet",
        "label": "TeleportDAOToken",
        "offset": 0,
        "slot": "13",
        "type": "t_address"
      },
      {
        "astId": 5356,
        "contract": "contracts/relay/BitcoinRelayTestnet.sol:BitcoinRelayTestnet",
        "label": "relayGenesisHash",
        "offset": 0,
        "slot": "14",
        "type": "t_bytes32"
      },
      {
        "astId": 5362,
        "contract": "contracts/relay/BitcoinRelayTestnet.sol:BitcoinRelayTestnet",
        "label": "chain",
        "offset": 0,
        "slot": "15",
        "type": "t_mapping(t_uint256,t_array(t_struct(blockHeader)7354_storage)dyn_storage)"
      },
      {
        "astId": 5366,
        "contract": "contracts/relay/BitcoinRelayTestnet.sol:BitcoinRelayTestnet",
        "label": "previousBlock",
        "offset": 0,
        "slot": "16",
        "type": "t_mapping(t_bytes32,t_bytes32)"
      },
      {
        "astId": 5370,
        "contract": "contracts/relay/BitcoinRelayTestnet.sol:BitcoinRelayTestnet",
        "label": "blockHeight",
        "offset": 0,
        "slot": "17",
        "type": "t_mapping(t_bytes32,t_uint256)"
      }
    ],
    "types": {
      "t_address": {
        "encoding": "inplace",
        "label": "address",
        "numberOfBytes": "20"
      },
      "t_array(t_struct(blockHeader)7354_storage)dyn_storage": {
        "base": "t_struct(blockHeader)7354_storage",
        "encoding": "dynamic_array",
        "label": "struct IBitcoinRelay.blockHeader[]",
        "numberOfBytes": "32"
      },
      "t_bool": {
        "encoding": "inplace",
        "label": "bool",
        "numberOfBytes": "1"
      },
      "t_bytes32": {
        "encoding": "inplace",
        "label": "bytes32",
        "numberOfBytes": "32"
      },
      "t_mapping(t_bytes32,t_bytes32)": {
        "encoding": "mapping",
        "key": "t_bytes32",
        "label": "mapping(bytes32 => bytes32)",
        "numberOfBytes": "32",
        "value": "t_bytes32"
      },
      "t_mapping(t_bytes32,t_uint256)": {
        "encoding": "mapping",
        "key": "t_bytes32",
        "label": "mapping(bytes32 => uint256)",
        "numberOfBytes": "32",
        "value": "t_uint256"
      },
      "t_mapping(t_uint256,t_array(t_struct(blockHeader)7354_storage)dyn_storage)": {
        "encoding": "mapping",
        "key": "t_uint256",
        "label": "mapping(uint256 => struct IBitcoinRelay.blockHeader[])",
        "numberOfBytes": "32",
        "value": "t_array(t_struct(blockHeader)7354_storage)dyn_storage"
      },
      "t_struct(blockHeader)7354_storage": {
        "encoding": "inplace",
        "label": "struct IBitcoinRelay.blockHeader",
        "members": [
          {
            "astId": 7345,
            "contract": "contracts/relay/BitcoinRelayTestnet.sol:BitcoinRelayTestnet",
            "label": "selfHash",
            "offset": 0,
            "slot": "0",
            "type": "t_bytes32"
          },
          {
            "astId": 7347,
            "contract": "contracts/relay/BitcoinRelayTestnet.sol:BitcoinRelayTestnet",
            "label": "parentHash",
            "offset": 0,
            "slot": "1",
            "type": "t_bytes32"
          },
          {
            "astId": 7349,
            "contract": "contracts/relay/BitcoinRelayTestnet.sol:BitcoinRelayTestnet",
            "label": "merkleRoot",
            "offset": 0,
            "slot": "2",
            "type": "t_bytes32"
          },
          {
            "astId": 7351,
            "contract": "contracts/relay/BitcoinRelayTestnet.sol:BitcoinRelayTestnet",
            "label": "relayer",
            "offset": 0,
            "slot": "3",
            "type": "t_address"
          },
          {
            "astId": 7353,
            "contract": "contracts/relay/BitcoinRelayTestnet.sol:BitcoinRelayTestnet",
            "label": "gasPrice",
            "offset": 0,
            "slot": "4",
            "type": "t_uint256"
          }
        ],
        "numberOfBytes": "160"
      },
      "t_uint256": {
        "encoding": "inplace",
        "label": "uint256",
        "numberOfBytes": "32"
      }
    }
  }
}