{
  "address": "0xc652F3a228A54d582a5230BF42e7225FC9bD40F6",
  "abi": [
    {
      "anonymous": false,
      "inputs": [
        {
          "indexed": true,
          "internalType": "uint256",
          "name": "height",
          "type": "uint256"
        },
        {
          "indexed": false,
          "internalType": "bytes32",
          "name": "selfHash",
          "type": "bytes32"
        },
        {
          "indexed": true,
          "internalType": "bytes32",
          "name": "parentHash",
          "type": "bytes32"
        },
        {
          "indexed": true,
          "internalType": "address",
          "name": "relayer",
          "type": "address"
        }
      ],
      "name": "BlockAdded",
      "type": "event"
    },
    {
      "anonymous": false,
      "inputs": [
        {
          "indexed": true,
          "internalType": "uint256",
          "name": "height",
          "type": "uint256"
        },
        {
          "indexed": false,
          "internalType": "bytes32",
          "name": "selfHash",
          "type": "bytes32"
        },
        {
          "indexed": false,
          "internalType": "bytes32",
          "name": "parentHash",
          "type": "bytes32"
        },
        {
          "indexed": true,
          "internalType": "address",
          "name": "relayer",
          "type": "address"
        },
        {
          "indexed": false,
          "internalType": "uint256",
          "name": "rewardAmountTNT",
          "type": "uint256"
        },
        {
          "indexed": false,
          "internalType": "uint256",
          "name": "rewardAmountTDT",
          "type": "uint256"
        }
      ],
      "name": "BlockFinalized",
      "type": "event"
    },
    {
      "anonymous": false,
      "inputs": [
        {
          "indexed": false,
          "internalType": "uint8",
          "name": "version",
          "type": "uint8"
        }
      ],
      "name": "Initialized",
      "type": "event"
    },
    {
      "anonymous": false,
      "inputs": [
        {
          "indexed": false,
          "internalType": "uint256",
          "name": "oldBaseQueries",
          "type": "uint256"
        },
        {
          "indexed": false,
          "internalType": "uint256",
          "name": "newBaseQueries",
          "type": "uint256"
        }
      ],
      "name": "NewBaseQueries",
      "type": "event"
    },
    {
      "anonymous": false,
      "inputs": [
        {
          "indexed": false,
          "internalType": "uint256",
          "name": "oldEpochLength",
          "type": "uint256"
        },
        {
          "indexed": false,
          "internalType": "uint256",
          "name": "newEpochLength",
          "type": "uint256"
        }
      ],
      "name": "NewEpochLength",
      "type": "event"
    },
    {
      "anonymous": false,
      "inputs": [
        {
          "indexed": false,
          "internalType": "uint256",
          "name": "oldFinalizationParameter",
          "type": "uint256"
        },
        {
          "indexed": false,
          "internalType": "uint256",
          "name": "newFinalizationParameter",
          "type": "uint256"
        }
      ],
      "name": "NewFinalizationParameter",
      "type": "event"
    },
    {
      "anonymous": false,
      "inputs": [
        {
          "indexed": false,
          "internalType": "bytes32",
          "name": "txId",
          "type": "bytes32"
        },
        {
          "indexed": false,
          "internalType": "uint256",
          "name": "blockHeight",
          "type": "uint256"
        },
        {
          "indexed": false,
          "internalType": "uint256",
          "name": "paidFee",
          "type": "uint256"
        }
      ],
      "name": "NewQuery",
      "type": "event"
    },
    {
      "anonymous": false,
      "inputs": [
        {
          "indexed": false,
          "internalType": "uint256",
          "name": "oldRelayerPercentageFee",
          "type": "uint256"
        },
        {
          "indexed": false,
          "internalType": "uint256",
          "name": "newRelayerPercentageFee",
          "type": "uint256"
        }
      ],
      "name": "NewRelayerPercentageFee",
      "type": "event"
    },
    {
      "anonymous": false,
      "inputs": [
        {
          "indexed": false,
          "internalType": "uint256",
          "name": "oldRewardAmountInTDT",
          "type": "uint256"
        },
        {
          "indexed": false,
          "internalType": "uint256",
          "name": "newRewardAmountInTDT",
          "type": "uint256"
        }
      ],
      "name": "NewRewardAmountInTDT",
      "type": "event"
    },
    {
      "anonymous": false,
      "inputs": [
        {
          "indexed": false,
          "internalType": "uint256",
          "name": "oldSubmissionGasUsed",
          "type": "uint256"
        },
        {
          "indexed": false,
          "internalType": "uint256",
          "name": "newSubmissionGasUsed",
          "type": "uint256"
        }
      ],
      "name": "NewSubmissionGasUsed",
      "type": "event"
    },
    {
      "anonymous": false,
      "inputs": [
        {
          "indexed": false,
          "internalType": "address",
          "name": "oldTeleportDAOToken",
          "type": "address"
        },
        {
          "indexed": false,
          "internalType": "address",
          "name": "newTeleportDAOToken",
          "type": "address"
        }
      ],
      "name": "NewTeleportDAOToken",
      "type": "event"
    },
    {
      "anonymous": false,
      "inputs": [
        {
          "indexed": true,
          "internalType": "address",
          "name": "previousOwner",
          "type": "address"
        },
        {
          "indexed": true,
          "internalType": "address",
          "name": "newOwner",
          "type": "address"
        }
      ],
      "name": "OwnershipTransferred",
      "type": "event"
    },
    {
      "anonymous": false,
      "inputs": [
        {
          "indexed": false,
          "internalType": "address",
          "name": "account",
          "type": "address"
        }
      ],
      "name": "Paused",
      "type": "event"
    },
    {
      "anonymous": false,
      "inputs": [
        {
          "indexed": false,
          "internalType": "address",
          "name": "account",
          "type": "address"
        }
      ],
      "name": "Unpaused",
      "type": "event"
    },
    {
      "inputs": [],
      "name": "TeleportDAOToken",
      "outputs": [
        {
          "internalType": "address",
          "name": "",
          "type": "address"
        }
      ],
      "stateMutability": "view",
      "type": "function"
    },
    {
      "inputs": [
        {
          "internalType": "bytes",
          "name": "_anchor",
          "type": "bytes"
        },
        {
          "internalType": "bytes",
          "name": "_headers",
          "type": "bytes"
        }
      ],
      "name": "addHeaders",
      "outputs": [
        {
          "internalType": "bool",
          "name": "",
          "type": "bool"
        }
      ],
      "stateMutability": "nonpayable",
      "type": "function"
    },
    {
      "inputs": [
        {
          "internalType": "bytes",
          "name": "_oldPeriodStartHeader",
          "type": "bytes"
        },
        {
          "internalType": "bytes",
          "name": "_oldPeriodEndHeader",
          "type": "bytes"
        },
        {
          "internalType": "bytes",
          "name": "_headers",
          "type": "bytes"
        }
      ],
      "name": "addHeadersWithRetarget",
      "outputs": [
        {
          "internalType": "bool",
          "name": "",
          "type": "bool"
        }
      ],
      "stateMutability": "nonpayable",
      "type": "function"
    },
    {
      "inputs": [],
      "name": "availableTDT",
      "outputs": [
        {
          "internalType": "uint256",
          "name": "",
          "type": "uint256"
        }
      ],
      "stateMutability": "view",
      "type": "function"
    },
    {
      "inputs": [],
      "name": "availableTNT",
      "outputs": [
        {
          "internalType": "uint256",
          "name": "",
          "type": "uint256"
        }
      ],
      "stateMutability": "view",
      "type": "function"
    },
    {
      "inputs": [],
      "name": "baseQueries",
      "outputs": [
        {
          "internalType": "uint256",
          "name": "",
          "type": "uint256"
        }
      ],
      "stateMutability": "view",
      "type": "function"
    },
    {
      "inputs": [
        {
          "internalType": "bytes32",
          "name": "_txid",
          "type": "bytes32"
        },
        {
          "internalType": "uint256",
          "name": "_blockHeight",
          "type": "uint256"
        },
        {
          "internalType": "bytes",
          "name": "_intermediateNodes",
          "type": "bytes"
        },
        {
          "internalType": "uint256",
          "name": "_index",
          "type": "uint256"
        }
      ],
      "name": "checkTxProof",
      "outputs": [
        {
          "internalType": "bool",
          "name": "",
          "type": "bool"
        }
      ],
      "stateMutability": "payable",
      "type": "function"
    },
    {
      "inputs": [],
      "name": "currentEpochQueries",
      "outputs": [
        {
          "internalType": "uint256",
          "name": "",
          "type": "uint256"
        }
      ],
      "stateMutability": "view",
      "type": "function"
    },
    {
      "inputs": [],
      "name": "epochLength",
      "outputs": [
        {
          "internalType": "uint256",
          "name": "",
          "type": "uint256"
        }
      ],
      "stateMutability": "view",
      "type": "function"
    },
    {
      "inputs": [],
      "name": "finalizationParameter",
      "outputs": [
        {
          "internalType": "uint256",
          "name": "",
          "type": "uint256"
        }
      ],
      "stateMutability": "view",
      "type": "function"
    },
    {
      "inputs": [
        {
          "internalType": "bytes32",
          "name": "_hash",
          "type": "bytes32"
        }
      ],
      "name": "findHeight",
      "outputs": [
        {
          "internalType": "uint256",
          "name": "",
          "type": "uint256"
        }
      ],
      "stateMutability": "view",
      "type": "function"
    },
    {
      "inputs": [
        {
          "internalType": "uint256",
          "name": "_height",
          "type": "uint256"
        },
        {
          "internalType": "uint256",
          "name": "_index",
          "type": "uint256"
        }
      ],
      "name": "getBlockHeaderFee",
      "outputs": [
        {
          "internalType": "uint256",
          "name": "",
          "type": "uint256"
        }
      ],
      "stateMutability": "view",
      "type": "function"
    },
    {
      "inputs": [
        {
          "internalType": "uint256",
          "name": "_height",
          "type": "uint256"
        },
        {
          "internalType": "uint256",
          "name": "_index",
          "type": "uint256"
        }
      ],
      "name": "getBlockHeaderHash",
      "outputs": [
        {
          "internalType": "bytes32",
          "name": "",
          "type": "bytes32"
        }
      ],
      "stateMutability": "view",
      "type": "function"
    },
    {
      "inputs": [
        {
          "internalType": "uint256",
          "name": "_height",
          "type": "uint256"
        },
        {
          "internalType": "uint256",
          "name": "_index",
          "type": "uint256"
        }
      ],
      "name": "getBlockHeaderHashContract",
      "outputs": [
        {
          "internalType": "bytes32",
          "name": "",
          "type": "bytes32"
        }
      ],
      "stateMutability": "payable",
      "type": "function"
    },
    {
      "inputs": [
        {
          "internalType": "uint256",
          "name": "_height",
          "type": "uint256"
        }
      ],
      "name": "getNumberOfSubmittedHeaders",
      "outputs": [
        {
          "internalType": "uint256",
          "name": "",
          "type": "uint256"
        }
      ],
      "stateMutability": "view",
      "type": "function"
    },
    {
      "inputs": [],
      "name": "initialHeight",
      "outputs": [
        {
          "internalType": "uint256",
          "name": "",
          "type": "uint256"
        }
      ],
      "stateMutability": "view",
      "type": "function"
    },
    {
      "inputs": [
        {
          "internalType": "bytes",
          "name": "_genesisHeader",
          "type": "bytes"
        },
        {
          "internalType": "uint256",
          "name": "_height",
          "type": "uint256"
        },
        {
          "internalType": "bytes32",
          "name": "_periodStart",
          "type": "bytes32"
        },
        {
          "internalType": "address",
          "name": "_TeleportDAOToken",
          "type": "address"
        }
      ],
      "name": "initialize",
      "outputs": [],
      "stateMutability": "nonpayable",
      "type": "function"
    },
    {
      "inputs": [],
      "name": "lastEpochQueries",
      "outputs": [
        {
          "internalType": "uint256",
          "name": "",
          "type": "uint256"
        }
      ],
      "stateMutability": "view",
      "type": "function"
    },
    {
      "inputs": [],
      "name": "lastSubmittedHeight",
      "outputs": [
        {
          "internalType": "uint256",
          "name": "",
          "type": "uint256"
        }
      ],
      "stateMutability": "view",
      "type": "function"
    },
    {
      "inputs": [],
      "name": "owner",
      "outputs": [
        {
          "internalType": "address",
          "name": "",
          "type": "address"
        }
      ],
      "stateMutability": "view",
      "type": "function"
    },
    {
      "inputs": [
        {
          "internalType": "bytes",
          "name": "_anchor",
          "type": "bytes"
        },
        {
          "internalType": "bytes",
          "name": "_headers",
          "type": "bytes"
        }
      ],
      "name": "ownerAddHeaders",
      "outputs": [
        {
          "internalType": "bool",
          "name": "",
          "type": "bool"
        }
      ],
      "stateMutability": "nonpayable",
      "type": "function"
    },
    {
      "inputs": [
        {
          "internalType": "bytes",
          "name": "_oldPeriodStartHeader",
          "type": "bytes"
        },
        {
          "internalType": "bytes",
          "name": "_oldPeriodEndHeader",
          "type": "bytes"
        },
        {
          "internalType": "bytes",
          "name": "_headers",
          "type": "bytes"
        }
      ],
      "name": "ownerAddHeadersWithRetarget",
      "outputs": [
        {
          "internalType": "bool",
          "name": "",
          "type": "bool"
        }
      ],
      "stateMutability": "nonpayable",
      "type": "function"
    },
    {
      "inputs": [],
      "name": "pauseRelay",
      "outputs": [],
      "stateMutability": "nonpayable",
      "type": "function"
    },
    {
      "inputs": [],
      "name": "paused",
      "outputs": [
        {
          "internalType": "bool",
          "name": "",
          "type": "bool"
        }
      ],
      "stateMutability": "view",
      "type": "function"
    },
    {
      "inputs": [],
      "name": "relayGenesisHash",
      "outputs": [
        {
          "internalType": "bytes32",
          "name": "",
          "type": "bytes32"
        }
      ],
      "stateMutability": "view",
      "type": "function"
    },
    {
      "inputs": [],
      "name": "relayerPercentageFee",
      "outputs": [
        {
          "internalType": "uint256",
          "name": "",
          "type": "uint256"
        }
      ],
      "stateMutability": "view",
      "type": "function"
    },
    {
      "inputs": [],
      "name": "renounceOwnership",
      "outputs": [],
      "stateMutability": "nonpayable",
      "type": "function"
    },
    {
      "inputs": [],
      "name": "rewardAmountInTDT",
      "outputs": [
        {
          "internalType": "uint256",
          "name": "",
          "type": "uint256"
        }
      ],
      "stateMutability": "view",
      "type": "function"
    },
    {
      "inputs": [
        {
          "internalType": "uint256",
          "name": "_baseQueries",
          "type": "uint256"
        }
      ],
      "name": "setBaseQueries",
      "outputs": [],
      "stateMutability": "nonpayable",
      "type": "function"
    },
    {
      "inputs": [
        {
          "internalType": "uint256",
          "name": "_epochLength",
          "type": "uint256"
        }
      ],
      "name": "setEpochLength",
      "outputs": [],
      "stateMutability": "nonpayable",
      "type": "function"
    },
    {
      "inputs": [
        {
          "internalType": "uint256",
          "name": "_finalizationParameter",
          "type": "uint256"
        }
      ],
      "name": "setFinalizationParameter",
      "outputs": [],
      "stateMutability": "nonpayable",
      "type": "function"
    },
    {
      "inputs": [
        {
          "internalType": "uint256",
          "name": "_relayerPercentageFee",
          "type": "uint256"
        }
      ],
      "name": "setRelayerPercentageFee",
      "outputs": [],
      "stateMutability": "nonpayable",
      "type": "function"
    },
    {
      "inputs": [
        {
          "internalType": "uint256",
          "name": "_rewardAmountInTDT",
          "type": "uint256"
        }
      ],
      "name": "setRewardAmountInTDT",
      "outputs": [],
      "stateMutability": "nonpayable",
      "type": "function"
    },
    {
      "inputs": [
        {
          "internalType": "uint256",
          "name": "_submissionGasUsed",
          "type": "uint256"
        }
      ],
      "name": "setSubmissionGasUsed",
      "outputs": [],
      "stateMutability": "nonpayable",
      "type": "function"
    },
    {
      "inputs": [
        {
          "internalType": "address",
          "name": "_TeleportDAOToken",
          "type": "address"
        }
      ],
      "name": "setTeleportDAOToken",
      "outputs": [],
      "stateMutability": "nonpayable",
      "type": "function"
    },
    {
      "inputs": [],
      "name": "submissionGasUsed",
      "outputs": [
        {
          "internalType": "uint256",
          "name": "",
          "type": "uint256"
        }
      ],
      "stateMutability": "view",
      "type": "function"
    },
    {
      "inputs": [
        {
          "internalType": "address",
          "name": "newOwner",
          "type": "address"
        }
      ],
      "name": "transferOwnership",
      "outputs": [],
      "stateMutability": "nonpayable",
      "type": "function"
    },
    {
      "inputs": [],
      "name": "unpauseRelay",
      "outputs": [],
      "stateMutability": "nonpayable",
      "type": "function"
    }
  ],
  "transactionHash": "0x24bfcf7bcac5ba3b6c9f2ded011f15e1d4e330081e6de13f848977bf44024272",
  "args": [],
  "numDeployments": 1,
  "solcInputHash": "9735652126147b866066c827e5ca2d12",
  "bytecode": "0x608060405234801561001057600080fd5b506137f5806100206000396000f3fe6080604052600436106102255760003560e01c80639503c8bf11610123578063c20dc664116100ab578063efbc7be41161006f578063efbc7be4146105e7578063f02f62fd146105fd578063f2fde38b1461061d578063fa041af51461063d578063fd9c6e851461065357610225565b8063c20dc66414610568578063d0a897391461057e578063dc0444221461059e578063e2761af0146105be578063e3282524146105d457610225565b8063ae6e5eb0116100f2578063ae6e5eb0146104d3578063ae96c2ae146104f3578063b36161bd14610508578063b9bbd9bd14610528578063b9e88ac11461054857610225565b80639503c8bf146104675780639f15641414610487578063a072bc501461049d578063a3db54eb146104b357610225565b806360b5c390116101b15780637fa637fc116101755780637fa637fc146103c7578063882a5ee0146103e75780638da5cb5b146103fc578063901186bb1461041a578063926d44e21461043a57610225565b806360b5c3901461033c578063659416831461035c57806365da41b91461037c578063665b634f1461039c578063715018a6146103b257610225565b806354eea796116101f857806354eea796146102c557806357d775f8146102e55780635b732892146102fb5780635b88a0e5146103115780635c975abb1461032457610225565b8063108f438d1461022a5780632f796d90146102675780634354da251461028b578063465e7559146102ae575b600080fd5b34801561023657600080fd5b5060d35461024a906001600160a01b031681565b6040516001600160a01b0390911681526020015b60405180910390f35b34801561027357600080fd5b5061027d60ca5481565b60405190815260200161025e565b61029e6102993660046132eb565b610669565b604051901515815260200161025e565b3480156102ba57600080fd5b506102c361092e565b005b3480156102d157600080fd5b506102c36102e03660046132d3565b610940565b3480156102f157600080fd5b5061027d60cf5481565b34801561030757600080fd5b5061027d60d15481565b34801561031d57600080fd5b504761027d565b34801561033057600080fd5b5060975460ff1661029e565b34801561034857600080fd5b5061027d6103573660046132d3565b610954565b34801561036857600080fd5b506102c36103773660046132d3565b610967565b34801561038857600080fd5b5061029e610397366004613344565b610978565b3480156103a857600080fd5b5061027d60cd5481565b3480156103be57600080fd5b506102c3610a62565b3480156103d357600080fd5b5061029e6103e23660046133ad565b610a6a565b3480156103f357600080fd5b5061027d610b8c565b34801561040857600080fd5b506033546001600160a01b031661024a565b34801561042657600080fd5b506102c36104353660046132d3565b610c0d565b34801561044657600080fd5b5061027d6104553660046132d3565b600090815260d5602052604090205490565b34801561047357600080fd5b506102c3610482366004613443565b610c1e565b34801561049357600080fd5b5061027d60d25481565b3480156104a957600080fd5b5061027d60cb5481565b3480156104bf57600080fd5b506102c36104ce3660046132d3565b610ecf565b3480156104df57600080fd5b5061029e6104ee3660046133ad565b610ee0565b3480156104ff57600080fd5b506102c3610ef2565b34801561051457600080fd5b506102c36105233660046132d3565b610f02565b34801561053457600080fd5b5061027d610543366004613527565b610f13565b34801561055457600080fd5b506102c36105633660046132d3565b610fac565b34801561057457600080fd5b5061027d60ce5481565b34801561058a57600080fd5b5061027d610599366004613527565b610fbd565b3480156105aa57600080fd5b506102c36105b9366004613299565b61100e565b3480156105ca57600080fd5b5061027d60c95481565b61027d6105e2366004613527565b61101f565b3480156105f357600080fd5b5061027d60d45481565b34801561060957600080fd5b5061029e610618366004613344565b61111f565b34801561062957600080fd5b506102c3610638366004613299565b611131565b34801561064957600080fd5b5061027d60d05481565b34801561065f57600080fd5b5061027d60cc5481565b60006106736111a7565b61067b611201565b856106db5760405162461bcd60e51b815260206004820152602560248201527f426974636f696e52656c61793a20747869642073686f756c64206265206e6f6e6044820152642d7a65726f60d81b60648201526084015b60405180910390fd5b60ca546106e99060016135e2565b60cb546106f690876135e2565b1061075d5760405162461bcd60e51b815260206004820152603160248201527f426974636f696e52656c61793a20626c6f636b206973206e6f742066696e616c604482015270697a6564206f6e207468652072656c617960781b60648201526084016106d2565b60c9548510156107e85760405162461bcd60e51b815260206004820152604a60248201527f426974636f696e52656c61793a2074686520726571756573746564206865696760448201527f6874206973206e6f74207375626d6974746564206f6e207468652072656c61796064820152692028746f6f206f6c642960b01b608482015260a4016106d2565b600085815260d56020526040812080546108309190839061081957634e487b7160e01b600052603260045260246000fd5b906000526020600020906005020160040154611247565b60408051898152602081018990529081018290529091507f171c7e89f8a58af73276553913c8f63b7270aacd03134a80a0e1d46a6b783cd39060600160405180910390a1600086815260d560205260408120805482906108a057634e487b7160e01b600052603260045260246000fd5b906000526020600020906005020160020154905060006109086108fd600089898080601f01602080910402602001604051908101604052809392919081815260200183838082843760009201919091525092939250506112d09050565b62ffffff19166112eb565b905061091689838388611359565b93505050506109256001606555565b95945050505050565b6109366113ba565b61093e611414565b565b6109486113ba565b6109518161146e565b50565b600061095f826114ff565b90505b919050565b61096f6113ba565b6109518161156f565b60006109826111a7565b61098a611201565b60006109de6109d3600086868080601f01602080910402602001604051908101604052809392919081815260200183838082843760009201919091525092939250506112d09050565b62ffffff1916611600565b90506000610a34610a29600089898080601f01602080910402602001604051908101604052809392919081815260200183838082843760009201919091525092939250506112d09050565b62ffffff1916611648565b9050610a40828261167f565b610a4c81836000611728565b92505050610a5a6001606555565b949350505050565b61093e6113ba565b6000610a746111a7565b610a7c611201565b6000610ac5610a2960008a8a8080601f01602080910402602001604051908101604052809392919081815260200183838082843760009201919091525092939250506112d09050565b90506000610b10610a29600089898080601f01602080910402602001604051908101604052809392919081815260200183838082843760009201919091525092939250506112d09050565b90506000610b5b6109d3600088888080601f01602080910402602001604051908101604052809392919081815260200183838082843760009201919091525092939250506112d09050565b9050610b68838383611937565b610b73838383611a0c565b9350505050610b826001606555565b9695505050505050565b60d3546040516370a0823160e01b81523060048201526000916001600160a01b0316906370a082319060240160206040518083038186803b158015610bd057600080fd5b505afa158015610be4573d6000803e3d6000fd5b505050506040513d601f19601f82011682018060405250810190610c08919061350f565b905090565b610c156113ba565b61095181611a1a565b600054610100900460ff1615808015610c3e5750600054600160ff909116105b80610c585750303b158015610c58575060005460ff166001145b610cbb5760405162461bcd60e51b815260206004820152602e60248201527f496e697469616c697a61626c653a20636f6e747261637420697320616c72656160448201526d191e481a5b9a5d1a585b1a5e995960921b60648201526084016106d2565b6000805460ff191660011790558015610cde576000805461ff0019166101001790555b610ce6611ab9565b610cee611ae8565b610cf6611b17565b6000610d05610a2987836112d0565b90506000610d1862ffffff198316611b46565b60d48190559050610d506040805160a08101825260008082526020820181905291810182905260608101829052608081019190915290565b818152610d6262ffffff198416611ba8565b6020820152610d7662ffffff198416611bca565b6040820152336001600160a01b03908116606083019081526000608084018181528a825260d5602090815260408084208054600180820183559186528386208951600590920201908155838901519181019190915581880151600282015594516003860180546001600160a01b0319169190971617909555905160049093019290925584815260d790915220879055610e116107e088613743565b610e1b90886136a7565b600087815260d76020526040902055610e346003611bec565b60c987905560ca879055610e4785611c9c565b610e526101f4611a1a565b610e5d6107e061146e565b610e6860cf5461156f565b60d05460d255600060d155610e7f620493e0611d05565b5050508015610ec8576000805461ff0019169055604051600181527f7f26b83ff96e1f2b6a682f133852f6798a09c465da95921460cefb38474024989060200160405180910390a15b5050505050565b610ed76113ba565b61095181611d05565b6000610eea6111a7565b610a7c6113ba565b610efa6113ba565b61093e611d46565b610f0a6113ba565b61095181611bec565b6000333b15610f645760405162461bcd60e51b815260206004820152601e60248201527f426974636f696e52656c61793a206164647220697320636f6e7472616374000060448201526064016106d2565b600083815260d560205260409020805483908110610f9257634e487b7160e01b600052603260045260246000fd5b906000526020600020906005020160000154905092915050565b610fb46113ba565b61095181611d7f565b600082815260d5602052604081208054611007919084908110610ff057634e487b7160e01b600052603260045260246000fd5b906000526020600020906005020160040154611dc0565b9392505050565b6110166113ba565b61095181611c9c565b600082815260d56020526040812080548291611053918590811061081957634e487b7160e01b600052603260045260246000fd5b600085815260d56020526040902080549192507f171c7e89f8a58af73276553913c8f63b7270aacd03134a80a0e1d46a6b783cd391859081106110a657634e487b7160e01b600052603260045260246000fd5b6000918252602091829020600590910201546040805191825291810187905290810183905260600160405180910390a1600084815260d56020526040902080548490811061110457634e487b7160e01b600052603260045260246000fd5b90600052602060002090600502016000015491505092915050565b60006111296111a7565b61098a6113ba565b6111396113ba565b6001600160a01b03811661119e5760405162461bcd60e51b815260206004820152602660248201527f4f776e61626c653a206e6577206f776e657220697320746865207a65726f206160448201526564647265737360d01b60648201526084016106d2565b61095181611e11565b600260655414156111fa5760405162461bcd60e51b815260206004820152601f60248201527f5265656e7472616e637947756172643a207265656e7472616e742063616c6c0060448201526064016106d2565b6002606555565b60975460ff161561093e5760405162461bcd60e51b815260206004820152601060248201526f14185d5cd8589b194e881c185d5cd95960821b60448201526064016106d2565b6000600160d1600082825461125c91906135e2565b9091555061126b905082611dc0565b9050803410156112bd5760405162461bcd60e51b815260206004820152601f60248201527f426974636f696e52656c61793a20666565206973206e6f7420656e6f7567680060448201526064016106d2565b610962336112cb83346136a7565b611e63565b81516000906020840161092564ffffffffff85168284611f7c565b60008181611301815b62ffffff19841690611fc0565b5061131a6020601886901c6001600160601b0316613757565b6001600160601b0316156113355762ffffff195b9250611352565b61134f60145b60d81b6301000000600160d81b0386161790565b92505b5050919050565b6000826014611367816112f4565b508587148015611375575083155b801561138c5750601885901c6001600160601b0316155b1561139a57600192506113a9565b6113a687868887612099565b92505b5050949350505050565b6001606555565b6033546001600160a01b0316331461093e5760405162461bcd60e51b815260206004820181905260248201527f4f776e61626c653a2063616c6c6572206973206e6f7420746865206f776e657260448201526064016106d2565b61141c611201565b6097805460ff191660011790557f62e78cea01bee320cd4e420270b5ea74000d11b0c9f74754ebdbfc544b05a2586114513390565b6040516001600160a01b03909116815260200160405180910390a1565b60cf5460408051918252602082018390527fd077b1717c042dc03e7eb68030220b62f703db305be2ffb5b9e1d91b639a63f9910160405180910390a1600081116114fa5760405162461bcd60e51b815260206004820152601f60248201527f426974636f696e52656c61793a207a65726f2065706f6368206c656e6774680060448201526064016106d2565b60cf55565b600081815260d7602052604081205461155a5760405162461bcd60e51b815260206004820152601b60248201527f426974636f696e52656c61793a20756e6b6e6f776e20626c6f636b000000000060448201526064016106d2565b50600081815260d76020526040902054610962565b60d05460408051918252602082018390527f74fc63a076510aaad1c9925c1575a3cd23bc28541d09501418a96b0a38335f53910160405180910390a1600081116115fb5760405162461bcd60e51b815260206004820152601d60248201527f426974636f696e52656c61793a207a65726f206261736520717565727900000060448201526064016106d2565b60d055565b6000818161160d816112f4565b506116266050601886901c6001600160601b0316613757565b6001600160601b03161561163e5762ffffff1961132e565b61134f601161133b565b60008181611655816112f4565b506050601885901c6001600160601b0316146116755762ffffff1961132e565b61134f601061133b565b62ffffff19828116141580156116b357506116a86050601884901c6001600160601b0316613757565b6001600160601b0316155b80156116c5575062ffffff1981811614155b80156116de57506050601882901c6001600160601b0316145b6117245760405162461bcd60e51b81526020600482015260176024820152762134ba31b7b4b72932b630bc9d103bb937b733903632b760491b60448201526064016106d2565b5050565b60008061173a62ffffff198616611b46565b90506000611747826114ff565b905060008060005b611767605060188a901c6001600160601b0316613639565b6001600160601b031681101561192857600061178962ffffff198a16836121b3565b905061179582866135e2565b6117a09060016135e2565b93506117b162ffffff198216611b46565b600081815260d660205260409020549093501561182b5760405162461bcd60e51b815260206004820152603260248201527f426974636f696e52656c61793a2074686520626c6f636b2068656164657220656044820152717869737473206f6e207468652072656c617960701b60648201526084016106d2565b61183b62ffffff198216876121e5565b6118a45760405162461bcd60e51b815260206004820152603460248201527f426974636f696e52656c61793a206865616465727320646f206e6f7420666f726044820152733690309031b7b739b4b9ba32b73a1031b430b4b760611b60648201526084016106d2565b600083815260d66020908152604080832089905560d79091529020849055336001600160a01b031686857ffb8fff3e2daa665d496373ced291b62aba4162f24632a1597e286621016e9a1f866040516118ff91815260200190565b60405180910390a46119118185612208565b82955050808061192090613728565b91505061174f565b50600198975050505050505050565b62ffffff198381161415801561195a57506050601884901c6001600160601b0316145b801561196c575062ffffff1982811614155b801561198557506050601883901c6001600160601b0316145b8015611997575062ffffff1981811614155b80156119c157506119b66050601883901c6001600160601b0316613757565b6001600160601b0316155b611a075760405162461bcd60e51b81526020600482015260176024820152762134ba31b7b4b72932b630bc9d103bb937b733903632b760491b60448201526064016106d2565b505050565b6000610a5a83836001611728565b60cd5460408051918252602082018390527f1957bdf4f6fe279cd1cb63c41461020488cecbdf8721d1a1c960bc57c7cddce8910160405180910390a1612710811115611ab45760405162461bcd60e51b8152602060048201526024808201527f426974636f696e52656c61793a2072656c6179206665652069732061626f7665604482015263040dac2f60e31b60648201526084016106d2565b60cd55565b600054610100900460ff16611ae05760405162461bcd60e51b81526004016106d290613597565b61093e612386565b600054610100900460ff16611b0f5760405162461bcd60e51b81526004016106d290613597565b61093e6123b6565b600054610100900460ff16611b3e5760405162461bcd60e51b81526004016106d290613597565b61093e6123dd565b600080611b5c8360781c6001600160601b031690565b6001600160601b031690506000611b7c8460181c6001600160601b031690565b6001600160601b03169050604051602081838560025afa5060208160208360025afa5051949350505050565b6000816010611bb6816112f4565b5061134f62ffffff19851660046020612410565b6000816010611bd8816112f4565b5061134f62ffffff19851660246020612410565b60cb5460408051918252602082018390527fe7ff4c9746f87ab86154b3cb3bb52e1647f016783ae4e195496258eaa884c296910160405180910390a1600081118015611c3a57506101b08111155b611c975760405162461bcd60e51b815260206004820152602860248201527f426974636f696e52656c61793a20696e76616c69642066696e616c697a6174696044820152676f6e20706172616d60c01b60648201526084016106d2565b60cb55565b60d354604080516001600160a01b03928316815291831660208301527ffd88adf2dc0ac6ee5960f2f4273f25017bab8b5efa8889b3cf085ce645c293b2910160405180910390a160d380546001600160a01b0319166001600160a01b0392909216919091179055565b60ce5460408051918252602082018390527f7a20e935d503f4d2565dbc88569bbe136c1e2a59da068a1d1286f04512ecfff3910160405180910390a160ce55565b611d4e612569565b6097805460ff191690557f5db9ee0a495bf2e6ff9c91a7834c1ba4fdd244a5e8aa4e537bd38aeae4b073aa33611451565b60cc5460408051918252602082018390527fe43de8c98a3401a046e4ea741059d335faa482e1262eb6a888a2ca2a1da3d474910160405180910390a160cc55565b600061271060d25460cf5460cd54612710611ddb91906135e2565b8560ce54611de9919061365f565b611df3919061365f565b611dfd919061365f565b611e079190613625565b61095f9190613625565b603380546001600160a01b038381166001600160a01b0319831681179093556040519116919082907f8be0079c531659141344cd1fd0a4f28419497f9722a3daafe3b4186f6b6457e090600090a35050565b80471015611eb35760405162461bcd60e51b815260206004820152601d60248201527f416464726573733a20696e73756666696369656e742062616c616e636500000060448201526064016106d2565b6000826001600160a01b03168260405160006040518083038185875af1925050503d8060008114611f00576040519150601f19603f3d011682016040523d82523d6000602084013e611f05565b606091505b5050905080611a075760405162461bcd60e51b815260206004820152603a60248201527f416464726573733a20756e61626c6520746f2073656e642076616c75652c207260448201527f6563697069656e74206d6179206861766520726576657274656400000000000060648201526084016106d2565b600080611f8983856135e2565b9050604051811115611f99575060005b80611fab5762ffffff19915050611007565b5050606092831b9190911790911b1760181b90565b6000611fcc83836125b2565b612092576000611feb611fdf8560d81c90565b64ffffffffff166125d5565b91505060006120008464ffffffffff166125d5565b6040517f5479706520617373657274696f6e206661696c65642e20476f7420307800000060208201526001600160b01b031960b086811b8216603d8401526c05c408af0e0cac6e8cac84060f609b1b604784015283901b16605482015290925060009150605e0160405160208183030381529060405290508060405162461bcd60e51b81526004016106d29190613564565b5090919050565b60008360146120a7816112f4565b50846120f55760405162461bcd60e51b815260206004820152601860248201527f426974636f696e48656c7065723a207a65726f20726f6f74000000000000000060448201526064016106d2565b600061210f6020601889901c6001600160601b0316613639565b6001600160601b031690508061212a578588149350506113a9565b848860005b838110156121a357600061215661214783602061365f565b62ffffff198d16906020612410565b9050612163600285613743565b6001141561217c576121758184612681565b9250612189565b6121868382612681565b92505b5060019290921c918061219b81613728565b91505061212f565b5090961498975050505050505050565b60008260116121c1816112f4565b5060006121cf85605061365f565b9050610b8262ffffff19871682605060106126ad565b60008260106121f3816112f4565b50836121fe86611ba8565b1495945050505050565b60ca5460cb5461221890836135e2565b116122735760405162461bcd60e51b815260206004820152602560248201527f426974636f696e52656c61793a20626c6f636b2068656164657220697320746f6044820152641bc81bdb1960da1b60648201526084016106d2565b6040805160a0810182526000808252602082018190529181018290526060810182905260808101919091526122ad62ffffff198416611b46565b81526122be62ffffff198416611ba8565b60208201526122d262ffffff198416611bca565b6040820152336001600160a01b03908116606083019081523a60808401908152600085815260d5602090815260408083208054600180820183559185529383902088516005909502019384559187015191830191909155850151600282015591516003830180546001600160a01b0319169190941617909255905160049091015560ca54821115611a0757600160ca600082825461237091906135e2565b9091555061237e905061271d565b611a07612752565b600054610100900460ff166123ad5760405162461bcd60e51b81526004016106d290613597565b61093e33611e11565b600054610100900460ff166113b35760405162461bcd60e51b81526004016106d290613597565b600054610100900460ff166124045760405162461bcd60e51b81526004016106d290613597565b6097805460ff19169055565b600060ff821661242257506000611007565b6124358460181c6001600160601b031690565b6001600160601b031661244b60ff8416856135e2565b11156124af576124966124678560781c6001600160601b031690565b6001600160601b03166124838660181c6001600160601b031690565b6001600160601b0316858560ff16612a57565b60405162461bcd60e51b81526004016106d29190613564565b60208260ff1611156125295760405162461bcd60e51b815260206004820152603a60248201527f54797065644d656d566965772f696e646578202d20417474656d70746564207460448201527f6f20696e646578206d6f7265207468616e20333220627974657300000000000060648201526084016106d2565b6008820260006125428660781c6001600160601b031690565b6001600160601b031690506000600160ff1b60001984011d91909501511695945050505050565b60975460ff1661093e5760405162461bcd60e51b815260206004820152601460248201527314185d5cd8589b194e881b9bdd081c185d5cd95960621b60448201526064016106d2565b60008164ffffffffff166125c68460d81c90565b64ffffffffff16149392505050565b600080601f5b600f8160ff1611156126335760006125f482600861367e565b60ff1685901c905061260581612b81565b61ffff16841793508160ff1660101461262057601084901b93505b5061262c6001826136be565b90506125db565b50600f5b60ff8160ff16101561267b5760ff600882021684901c61265681612b81565b61ffff16831792508160ff1660001461267157601083901b92505b5060001901612637565b50915091565b600060405183815282602082015260208160408360025afa5060208160208360025afa50519392505050565b6000806126c38660781c6001600160601b031690565b6001600160601b031690506126d786612bb1565b846126e287846135e2565b6126ec91906135e2565b11156126ff5762ffffff19915050610a5a565b61270985826135e2565b9050610b828364ffffffffff168286611f7c565b60cf5460ca5461272d9190613743565b61093e5760d05460d154106127445760d154612748565b60d0545b60d255600060d155565b60cb5460c95460ca5461276591906136a7565b1061093e5760cb5460ca5460005b82156127f457600082815260d5602052604081208054839081106127a757634e487b7160e01b600052603260045260246000fd5b90600052602060002090600502016001015490506127d1816001856127cc91906136a7565b612bf2565b9150836127dd81613711565b94505082806127eb90613711565b93505050612773565b600082815260d56020526040902080548290811061282257634e487b7160e01b600052603260045260246000fd5b906000526020600020906005020160d5600084815260200190815260200160002060008154811061286357634e487b7160e01b600052603260045260246000fd5b600091825260208083208454600590930201918255600180850154818401556002808601549084015560038086015490840180546001600160a01b0319166001600160a01b03909216919091179055600494850154949092019390935584825260d5909252604090205411156128dc576128dc82612c70565b600082815260d5602052604081208054829161293191839061290e57634e487b7160e01b600052603260045260246000fd5b60009182526020909120600360059092020101546001600160a01b031685612d14565b600086815260d5602052604081208054939550919350909161296357634e487b7160e01b600052603260045260246000fd5b600091825260208083206003600590930201919091015486835260d59091526040822080546001600160a01b039092169287927f4fec6ffa2052e80db9daadc2384a8f634057472e28ea7f1bd3eebfc92b5b0f8e9291906129d457634e487b7160e01b600052603260045260246000fd5b90600052602060002090600502016000015460d56000898152602001908152602001600020600081548110612a1957634e487b7160e01b600052603260045260246000fd5b600091825260209182902060016005909202010154604080519384529183015281018690526060810185905260800160405180910390a35050505050565b60606000612a64866125d5565b9150506000612a72866125d5565b9150506000612a80866125d5565b9150506000612a8e866125d5565b604080517f54797065644d656d566965772f696e646578202d204f76657272616e20746865602082015274040ecd2caee5c40a6d8d2c6ca40d2e640c2e84060f605b1b818301526001600160d01b031960d098891b811660558301526e040eed2e8d040d8cadccee8d04060f608b1b605b830181905297891b8116606a8301527f2e20417474656d7074656420746f20696e646578206174206f666673657420306070830152600f60fb1b609083015295881b861660918201526097810196909652951b90921660a68401525050601760f91b60ac8201528151808203608d01815260ad90910190915295945050505050565b6000612b9360048360ff16901c612ece565b60ff161760081b62ffff0016612ba882612ece565b60ff1617919050565b6000612bc68260181c6001600160601b031690565b612bd98360781c6001600160601b031690565b612be391906135fa565b6001600160601b031692915050565b6000805b600083815260d56020526040902054811015612c6957600083815260d560205260409020805482908110612c3a57634e487b7160e01b600052603260045260246000fd5b906000526020600020906005020160000154841415612c57578091505b80612c6181613728565b915050612bf6565b5092915050565b600081815260d56020526040812054612c8b906001906136a7565b90505b801561172457600082815260d560205260409020805480612cbf57634e487b7160e01b600052603160045260246000fd5b6000828152602081206005600019909301928302018181556001818101839055600282018390556003820180546001600160a01b03191690556004909101919091559155612d0d90826136a7565b9050612c8e565b600080600061271060cd54612710612d2c91906135e2565b600086815260d5602052604081208054909190612d5957634e487b7160e01b600052603260045260246000fd5b90600052602060002090600502016004015460ce54612d78919061365f565b612d82919061365f565b612d8c9190613625565b60d3549091506000906001600160a01b031615612e215760d3546040516370a0823160e01b81523060048201526001600160a01b03909116906370a082319060240160206040518083038186803b158015612de657600080fd5b505afa158015612dfa573d6000803e3d6000fd5b505050506040513d601f19601f82011682018060405250810190612e1e919061350f565b90505b60008160cc5411158015612e375750600060cc54115b15612e5d5760cc5460d354612e59916001600160a01b0390911690899061303a565b5060015b60008347118015612e6e5750600084115b15612e8157612e7d8885611e63565b5060015b8015612ea65781612e9457836000612e99565b8360cc545b9550955050505050612ec7565b81612eb357600080612eb9565b600060cc545b60ff90911696509450505050505b9250929050565b600060f08083179060ff82161415612eea576030915050610962565b8060ff1660f11415612f00576031915050610962565b8060ff1660f21415612f16576032915050610962565b8060ff1660f31415612f2c576033915050610962565b8060ff1660f41415612f42576034915050610962565b8060ff1660f51415612f58576035915050610962565b8060ff1660f61415612f6e576036915050610962565b8060ff1660f71415612f84576037915050610962565b8060ff1660f81415612f9a576038915050610962565b8060ff1660f91415612fb0576039915050610962565b8060ff1660fa1415612fc6576061915050610962565b8060ff1660fb1415612fdc576062915050610962565b8060ff1660fc1415612ff2576063915050610962565b8060ff1660fd1415613008576064915050610962565b8060ff1660fe141561301e576065915050610962565b8060ff1660ff1415613034576066915050610962565b50919050565b604080516001600160a01b03848116602483015260448083018590528351808403909101815260649092018352602080830180516001600160e01b031663a9059cbb60e01b17905283518085019094528084527f5361666545524332303a206c6f772d6c6576656c2063616c6c206661696c656490840152611a07928692916000916130ca918516908490613147565b805190915015611a0757808060200190518101906130e891906132b3565b611a075760405162461bcd60e51b815260206004820152602a60248201527f5361666545524332303a204552433230206f7065726174696f6e20646964206e6044820152691bdd081cdd58d8d9595960b21b60648201526084016106d2565b6060610a5a848460008585843b6131a05760405162461bcd60e51b815260206004820152601d60248201527f416464726573733a2063616c6c20746f206e6f6e2d636f6e747261637400000060448201526064016106d2565b600080866001600160a01b031685876040516131bc9190613548565b60006040518083038185875af1925050503d80600081146131f9576040519150601f19603f3d011682016040523d82523d6000602084013e6131fe565b606091505b50915091506113a682828660608315613218575081611007565b8251156132285782518084602001fd5b8160405162461bcd60e51b81526004016106d29190613564565b80356001600160a01b038116811461096257600080fd5b60008083601f84011261326a578182fd5b50813567ffffffffffffffff811115613281578182fd5b602083019150836020828501011115612ec757600080fd5b6000602082840312156132aa578081fd5b61100782613242565b6000602082840312156132c4578081fd5b81518015158114611007578182fd5b6000602082840312156132e4578081fd5b5035919050565b600080600080600060808688031215613302578081fd5b8535945060208601359350604086013567ffffffffffffffff811115613326578182fd5b61333288828901613259565b96999598509660600135949350505050565b60008060008060408587031215613359578384fd5b843567ffffffffffffffff80821115613370578586fd5b61337c88838901613259565b90965094506020870135915080821115613394578384fd5b506133a187828801613259565b95989497509550505050565b600080600080600080606087890312156133c5578081fd5b863567ffffffffffffffff808211156133dc578283fd5b6133e88a838b01613259565b90985096506020890135915080821115613400578283fd5b61340c8a838b01613259565b90965094506040890135915080821115613424578283fd5b5061343189828a01613259565b979a9699509497509295939492505050565b60008060008060808587031215613458578384fd5b843567ffffffffffffffff8082111561346f578586fd5b818701915087601f830112613482578586fd5b813581811115613494576134946137a9565b604051601f8201601f19908116603f011681019083821181831017156134bc576134bc6137a9565b816040528281528a60208487010111156134d4578889fd5b82602086016020830137602092810183019890985250870135945050506040850135915061350460608601613242565b905092959194509250565b600060208284031215613520578081fd5b5051919050565b60008060408385031215613539578182fd5b50508035926020909101359150565b6000825161355a8184602087016136e1565b9190910192915050565b60006020825282518060208401526135838160408501602087016136e1565b601f01601f19169190910160400192915050565b6020808252602b908201527f496e697469616c697a61626c653a20636f6e7472616374206973206e6f74206960408201526a6e697469616c697a696e6760a81b606082015260800190565b600082198211156135f5576135f561377d565b500190565b60006001600160601b0380831681851680830382111561361c5761361c61377d565b01949350505050565b60008261363457613634613793565b500490565b60006001600160601b038084168061365357613653613793565b92169190910492915050565b60008160001904831182151516156136795761367961377d565b500290565b600060ff821660ff84168160ff048111821515161561369f5761369f61377d565b029392505050565b6000828210156136b9576136b961377d565b500390565b600060ff821660ff8416808210156136d8576136d861377d565b90039392505050565b60005b838110156136fc5781810151838201526020016136e4565b8381111561370b576000848401525b50505050565b6000816137205761372061377d565b506000190190565b600060001982141561373c5761373c61377d565b5060010190565b60008261375257613752613793565b500690565b60006001600160601b038084168061377157613771613793565b92169190910692915050565b634e487b7160e01b600052601160045260246000fd5b634e487b7160e01b600052601260045260246000fd5b634e487b7160e01b600052604160045260246000fdfea264697066735822122083e587d0366a0346494adb57418b7034a254613ffddb938db45e14da6bb20cd864736f6c63430008020033",
  "devdoc": {
    "kind": "dev",
    "methods": {
      "addHeaders(bytes,bytes)": {
        "details": "Checks integrity and consistency of the header chain",
        "params": {
          "_anchor": "The header immediately preceeding the new chain",
          "_headers": "A tightly-packed list of 80-byte Bitcoin headers"
        },
        "returns": {
          "_0": "True if successfully written, error otherwise"
        }
      },
      "addHeadersWithRetarget(bytes,bytes,bytes)": {
        "details": "Checks the retarget, the heights, and the linkage",
        "params": {
          "_headers": "A tightly-packed list of 80-byte Bitcoin headers",
          "_oldPeriodEndHeader": "The last header in the difficulty period being closed (anchor of new headers)",
          "_oldPeriodStartHeader": "The first header in the difficulty period being closed"
        },
        "returns": {
          "_0": "True if successfully written, error otherwise"
        }
      },
      "checkTxProof(bytes32,uint256,bytes,uint256)": {
        "details": "Checks if the block is finalized, and Merkle proof is valid",
        "params": {
          "_blockHeight": "of the desired tx",
          "_index": "of the tx in Merkle tree",
          "_intermediateNodes": "Part of the Merkle tree from the tx to the root in LE form (called Merkle proof)",
          "_txid": "Desired tx Id in LE form"
        },
        "returns": {
          "_0": "True if the provided tx is confirmed on Bitcoin"
        }
      },
      "findHeight(bytes32)": {
        "details": "Fails if the header is unknown",
        "params": {
          "_hash": "The header hash to search for"
        },
        "returns": {
          "_0": "The height of the header"
        }
      },
      "getBlockHeaderFee(uint256,uint256)": {
        "params": {
          "_height": "of the desired block header",
          "_index": "of the desired block header in that height"
        },
        "returns": {
          "_0": "Block header submission gas price"
        }
      },
      "getBlockHeaderHash(uint256,uint256)": {
        "details": "It cannot be called by other contracts",
        "params": {
          "_height": "of the desired block header",
          "_index": "of the desired block header in that height"
        },
        "returns": {
          "_0": "Block header's hash"
        }
      },
      "getBlockHeaderHashContract(uint256,uint256)": {
        "details": "Caller should pay the query fee"
      },
      "getNumberOfSubmittedHeaders(uint256)": {
        "details": "This shows the number of temporary forks in that specific height",
        "params": {
          "_height": "The desired height of the blockchain"
        },
        "returns": {
          "_0": "Number of block headers stored in a height"
        }
      },
      "initialize(bytes,uint256,bytes32,address)": {
        "params": {
          "_TeleportDAOToken": "The address of the TeleportDAO ERC20 token contract",
          "_genesisHeader": "The starting header",
          "_height": "The starting height",
          "_periodStart": "The hash of the first header in the genesis epoch"
        }
      },
      "owner()": {
        "details": "Returns the address of the current owner."
      },
      "pauseRelay()": {
        "details": "Only functions with whenPaused modifier can be called"
      },
      "paused()": {
        "details": "Returns true if the contract is paused, and false otherwise."
      },
      "renounceOwnership()": {
        "details": "Leaves the contract without owner. It will not be possible to call `onlyOwner` functions anymore. Can only be called by the current owner. NOTE: Renouncing ownership will leave the contract without an owner, thereby removing any functionality that is only available to the owner."
      },
      "setBaseQueries(uint256)": {
        "params": {
          "_baseQueries": "The base number of queries we assume in each epoch                     This prevents query fee to grow significantly"
        }
      },
      "setEpochLength(uint256)": {
        "params": {
          "_epochLength": "The length of epochs used for estimating the query fee"
        }
      },
      "setFinalizationParameter(uint256)": {
        "details": "Bigger finalization parameter increases security but also increases the delay",
        "params": {
          "_finalizationParameter": "The finalization parameter of Bitcoin"
        }
      },
      "setRelayerPercentageFee(uint256)": {
        "details": "A percentage of the submission gas used goes to Relayers as reward",
        "params": {
          "_relayerPercentageFee": "New percentage fee"
        }
      },
      "setRewardAmountInTDT(uint256)": {
        "details": "This award is for the Relayer who submitted a finalized block header",
        "params": {
          "_rewardAmountInTDT": "The amount of reward in TDT"
        }
      },
      "setSubmissionGasUsed(uint256)": {
        "params": {
          "_submissionGasUsed": "The gas used by Relayers for submitting a block header"
        }
      },
      "setTeleportDAOToken(address)": {
        "params": {
          "_TeleportDAOToken": "The TeleportDAO token (TDT) address"
        }
      },
      "transferOwnership(address)": {
        "details": "Transfers ownership of the contract to a new account (`newOwner`). Can only be called by the current owner."
      },
      "unpauseRelay()": {
        "details": "Only functions with whenNotPaused modifier can be called"
      }
    },
    "version": 1
  },
  "userdoc": {
    "events": {
      "BlockAdded(uint256,bytes32,bytes32,address)": {
        "notice": "Emits when a block header is added"
      },
      "BlockFinalized(uint256,bytes32,bytes32,address,uint256,uint256)": {
        "notice": "Emits when a block header gets finalized"
      },
      "NewQuery(bytes32,uint256,uint256)": {
        "notice": "Emits when inclusion of a tx is queried"
      }
    },
    "kind": "user",
    "methods": {
      "addHeaders(bytes,bytes)": {
        "notice": "Adds headers to storage after validating"
      },
      "addHeadersWithRetarget(bytes,bytes,bytes)": {
        "notice": "Adds headers to storage, performs additional validation of retarget"
      },
      "availableTDT()": {
        "notice": "Getter for available TDT in Relay treasury"
      },
      "availableTNT()": {
        "notice": "Getter for available target native token (TNT) in Relay treasury"
      },
      "checkTxProof(bytes32,uint256,bytes,uint256)": {
        "notice": "Checks if a tx is included and finalized on Bitcoin"
      },
      "findHeight(bytes32)": {
        "notice": "Finds the height of a header by its hash"
      },
      "getBlockHeaderFee(uint256,uint256)": {
        "notice": "Getter for a specific block header submission gas price"
      },
      "getBlockHeaderHash(uint256,uint256)": {
        "notice": "Getter for a specific block header's hash in the stored chain"
      },
      "getBlockHeaderHashContract(uint256,uint256)": {
        "notice": "Same as getBlockHeaderHash, but can be called by other contracts"
      },
      "getNumberOfSubmittedHeaders(uint256)": {
        "notice": "Getter for the number of submitted block headers in a height"
      },
      "initialize(bytes,uint256,bytes32,address)": {
        "notice": "Gives a starting point for the relay"
      },
      "ownerAddHeaders(bytes,bytes)": {
        "notice": "Same as addHeaders, but can only be called by owner even if contract is paused         It will be used if a fork happend"
      },
      "ownerAddHeadersWithRetarget(bytes,bytes,bytes)": {
        "notice": "Same as addHeadersWithRetarget, but can only be called by owner even if contract is paused         It will be used if a fork happend"
      },
      "pauseRelay()": {
        "notice": "Pauses the Relay"
      },
      "setBaseQueries(uint256)": {
        "notice": "External setter for baseQueries"
      },
      "setEpochLength(uint256)": {
        "notice": "External setter for epochLength"
      },
      "setFinalizationParameter(uint256)": {
        "notice": "External setter for finalizationParameter"
      },
      "setRelayerPercentageFee(uint256)": {
        "notice": "External setter for relayerPercentageFee"
      },
      "setRewardAmountInTDT(uint256)": {
        "notice": "External setter for rewardAmountInTDT"
      },
      "setSubmissionGasUsed(uint256)": {
        "notice": "External setter for submissionGasUsed"
      },
      "setTeleportDAOToken(address)": {
        "notice": "External setter for TeleportDAO token"
      },
      "unpauseRelay()": {
        "notice": "Unpauses the relay"
      }
    },
    "version": 1
  },
  "storageLayout": {
    "storage": [
      {
        "astId": 138,
        "contract": "contracts/relay/BitcoinRelayLogicTestnet.sol:BitcoinRelayLogicTestnet",
        "label": "_initialized",
        "offset": 0,
        "slot": "0",
        "type": "t_uint8"
      },
      {
        "astId": 141,
        "contract": "contracts/relay/BitcoinRelayLogicTestnet.sol:BitcoinRelayLogicTestnet",
        "label": "_initializing",
        "offset": 1,
        "slot": "0",
        "type": "t_bool"
      },
      {
        "astId": 825,
        "contract": "contracts/relay/BitcoinRelayLogicTestnet.sol:BitcoinRelayLogicTestnet",
        "label": "__gap",
        "offset": 0,
        "slot": "1",
        "type": "t_array(t_uint256)50_storage"
      },
      {
        "astId": 10,
        "contract": "contracts/relay/BitcoinRelayLogicTestnet.sol:BitcoinRelayLogicTestnet",
        "label": "_owner",
        "offset": 0,
        "slot": "51",
        "type": "t_address"
      },
      {
        "astId": 130,
        "contract": "contracts/relay/BitcoinRelayLogicTestnet.sol:BitcoinRelayLogicTestnet",
        "label": "__gap",
        "offset": 0,
        "slot": "52",
        "type": "t_array(t_uint256)49_storage"
      },
      {
        "astId": 441,
        "contract": "contracts/relay/BitcoinRelayLogicTestnet.sol:BitcoinRelayLogicTestnet",
        "label": "_status",
        "offset": 0,
        "slot": "101",
        "type": "t_uint256"
      },
      {
        "astId": 499,
        "contract": "contracts/relay/BitcoinRelayLogicTestnet.sol:BitcoinRelayLogicTestnet",
        "label": "__gap",
        "offset": 0,
        "slot": "102",
        "type": "t_array(t_uint256)49_storage"
      },
      {
        "astId": 321,
        "contract": "contracts/relay/BitcoinRelayLogicTestnet.sol:BitcoinRelayLogicTestnet",
        "label": "_paused",
        "offset": 0,
        "slot": "151",
        "type": "t_bool"
      },
      {
        "astId": 426,
        "contract": "contracts/relay/BitcoinRelayLogicTestnet.sol:BitcoinRelayLogicTestnet",
        "label": "__gap",
        "offset": 0,
        "slot": "152",
        "type": "t_array(t_uint256)49_storage"
      },
      {
        "astId": 5930,
        "contract": "contracts/relay/BitcoinRelayLogicTestnet.sol:BitcoinRelayLogicTestnet",
        "label": "initialHeight",
        "offset": 0,
        "slot": "201",
        "type": "t_uint256"
      },
      {
        "astId": 5933,
        "contract": "contracts/relay/BitcoinRelayLogicTestnet.sol:BitcoinRelayLogicTestnet",
        "label": "lastSubmittedHeight",
        "offset": 0,
        "slot": "202",
        "type": "t_uint256"
      },
      {
        "astId": 5936,
        "contract": "contracts/relay/BitcoinRelayLogicTestnet.sol:BitcoinRelayLogicTestnet",
        "label": "finalizationParameter",
        "offset": 0,
        "slot": "203",
        "type": "t_uint256"
      },
      {
        "astId": 5939,
        "contract": "contracts/relay/BitcoinRelayLogicTestnet.sol:BitcoinRelayLogicTestnet",
        "label": "rewardAmountInTDT",
        "offset": 0,
        "slot": "204",
        "type": "t_uint256"
      },
      {
        "astId": 5942,
        "contract": "contracts/relay/BitcoinRelayLogicTestnet.sol:BitcoinRelayLogicTestnet",
        "label": "relayerPercentageFee",
        "offset": 0,
        "slot": "205",
        "type": "t_uint256"
      },
      {
        "astId": 5945,
        "contract": "contracts/relay/BitcoinRelayLogicTestnet.sol:BitcoinRelayLogicTestnet",
        "label": "submissionGasUsed",
        "offset": 0,
        "slot": "206",
        "type": "t_uint256"
      },
      {
        "astId": 5948,
        "contract": "contracts/relay/BitcoinRelayLogicTestnet.sol:BitcoinRelayLogicTestnet",
        "label": "epochLength",
        "offset": 0,
        "slot": "207",
        "type": "t_uint256"
      },
      {
        "astId": 5951,
        "contract": "contracts/relay/BitcoinRelayLogicTestnet.sol:BitcoinRelayLogicTestnet",
        "label": "baseQueries",
        "offset": 0,
        "slot": "208",
        "type": "t_uint256"
      },
      {
        "astId": 5954,
        "contract": "contracts/relay/BitcoinRelayLogicTestnet.sol:BitcoinRelayLogicTestnet",
        "label": "currentEpochQueries",
        "offset": 0,
        "slot": "209",
        "type": "t_uint256"
      },
      {
        "astId": 5957,
        "contract": "contracts/relay/BitcoinRelayLogicTestnet.sol:BitcoinRelayLogicTestnet",
        "label": "lastEpochQueries",
        "offset": 0,
        "slot": "210",
        "type": "t_uint256"
      },
      {
        "astId": 5960,
        "contract": "contracts/relay/BitcoinRelayLogicTestnet.sol:BitcoinRelayLogicTestnet",
        "label": "TeleportDAOToken",
        "offset": 0,
        "slot": "211",
        "type": "t_address"
      },
      {
        "astId": 5963,
        "contract": "contracts/relay/BitcoinRelayLogicTestnet.sol:BitcoinRelayLogicTestnet",
        "label": "relayGenesisHash",
        "offset": 0,
        "slot": "212",
        "type": "t_bytes32"
      },
      {
        "astId": 5969,
        "contract": "contracts/relay/BitcoinRelayLogicTestnet.sol:BitcoinRelayLogicTestnet",
        "label": "chain",
        "offset": 0,
        "slot": "213",
        "type": "t_mapping(t_uint256,t_array(t_struct(blockHeader)7921_storage)dyn_storage)"
      },
      {
        "astId": 5973,
        "contract": "contracts/relay/BitcoinRelayLogicTestnet.sol:BitcoinRelayLogicTestnet",
        "label": "previousBlock",
        "offset": 0,
        "slot": "214",
        "type": "t_mapping(t_bytes32,t_bytes32)"
      },
      {
        "astId": 5977,
        "contract": "contracts/relay/BitcoinRelayLogicTestnet.sol:BitcoinRelayLogicTestnet",
        "label": "blockHeight",
        "offset": 0,
        "slot": "215",
        "type": "t_mapping(t_bytes32,t_uint256)"
      }
    ],
    "types": {
      "t_address": {
        "encoding": "inplace",
        "label": "address",
        "numberOfBytes": "20"
      },
      "t_array(t_struct(blockHeader)7921_storage)dyn_storage": {
        "base": "t_struct(blockHeader)7921_storage",
        "encoding": "dynamic_array",
        "label": "struct IBitcoinRelay.blockHeader[]",
        "numberOfBytes": "32"
      },
      "t_array(t_uint256)49_storage": {
        "base": "t_uint256",
        "encoding": "inplace",
        "label": "uint256[49]",
        "numberOfBytes": "1568"
      },
      "t_array(t_uint256)50_storage": {
        "base": "t_uint256",
        "encoding": "inplace",
        "label": "uint256[50]",
        "numberOfBytes": "1600"
      },
      "t_bool": {
        "encoding": "inplace",
        "label": "bool",
        "numberOfBytes": "1"
      },
      "t_bytes32": {
        "encoding": "inplace",
        "label": "bytes32",
        "numberOfBytes": "32"
      },
      "t_mapping(t_bytes32,t_bytes32)": {
        "encoding": "mapping",
        "key": "t_bytes32",
        "label": "mapping(bytes32 => bytes32)",
        "numberOfBytes": "32",
        "value": "t_bytes32"
      },
      "t_mapping(t_bytes32,t_uint256)": {
        "encoding": "mapping",
        "key": "t_bytes32",
        "label": "mapping(bytes32 => uint256)",
        "numberOfBytes": "32",
        "value": "t_uint256"
      },
      "t_mapping(t_uint256,t_array(t_struct(blockHeader)7921_storage)dyn_storage)": {
        "encoding": "mapping",
        "key": "t_uint256",
        "label": "mapping(uint256 => struct IBitcoinRelay.blockHeader[])",
        "numberOfBytes": "32",
        "value": "t_array(t_struct(blockHeader)7921_storage)dyn_storage"
      },
      "t_struct(blockHeader)7921_storage": {
        "encoding": "inplace",
        "label": "struct IBitcoinRelay.blockHeader",
        "members": [
          {
            "astId": 7912,
            "contract": "contracts/relay/BitcoinRelayLogicTestnet.sol:BitcoinRelayLogicTestnet",
            "label": "selfHash",
            "offset": 0,
            "slot": "0",
            "type": "t_bytes32"
          },
          {
            "astId": 7914,
            "contract": "contracts/relay/BitcoinRelayLogicTestnet.sol:BitcoinRelayLogicTestnet",
            "label": "parentHash",
            "offset": 0,
            "slot": "1",
            "type": "t_bytes32"
          },
          {
            "astId": 7916,
            "contract": "contracts/relay/BitcoinRelayLogicTestnet.sol:BitcoinRelayLogicTestnet",
            "label": "merkleRoot",
            "offset": 0,
            "slot": "2",
            "type": "t_bytes32"
          },
          {
            "astId": 7918,
            "contract": "contracts/relay/BitcoinRelayLogicTestnet.sol:BitcoinRelayLogicTestnet",
            "label": "relayer",
            "offset": 0,
            "slot": "3",
            "type": "t_address"
          },
          {
            "astId": 7920,
            "contract": "contracts/relay/BitcoinRelayLogicTestnet.sol:BitcoinRelayLogicTestnet",
            "label": "gasPrice",
            "offset": 0,
            "slot": "4",
            "type": "t_uint256"
          }
        ],
        "numberOfBytes": "160"
      },
      "t_uint256": {
        "encoding": "inplace",
        "label": "uint256",
        "numberOfBytes": "32"
      },
      "t_uint8": {
        "encoding": "inplace",
        "label": "uint8",
        "numberOfBytes": "1"
      }
    }
  }
}